:100000000C94A3020C94BC270C94DB020C94DB022E
:100010000C94DB020C94DB020C94DB020C94DB02EC
:100020000C94DB020C94DB020C94D6210C949221EC
:100030000C94D3220C94DB020C94DB020C94DB02B4
:100040000C94DB020C94DB020C94DB020C94DB02BC
:100050000C94DB020C94AF220C94DB020C94DB02B8
:100060000C94DB020C94DB020C94DB020C94DB029C
:100070000C94DB020C94DB020C94DB020C94DB028C
:100080000C94DB020C94DB020C94DB020C94DB027C
:100090000C94DB020C94DB020C94DB020C94DB026C
:1000A0000C94DB020C94DB020C94DB020100AE002A
:1000B000167C1E001F002000210022002300AC003F
:1000C000AB002B0014001A000800150017000000F8
:1000D0003E003F00390004001600070009000A0036
:1000E0000000A800B200E10000001D001B00060097
:1000F0001900050029031303E0002152E300E20088
:1001000000002C00000024002500260027002D0000
:100110002E004C002A004A001C0018000C0012009F
:1001200013002F00300031004D000B000D000E00B9
:100130000F0033003400000028004B0011001000B5
:100140003600370038000000E50052004E002C0059
:100150002C00E600E400E7000000500051004F00D2
:100160000100010001000100010001000100010087
:100170000100010001000100010001000100010077
:100180000100000001000100010001000100010068
:100190000100010000000100010001000000010059
:1001A0000100010001000100010001000100010047
:1001B0000100010000000100000001000100010039
:1001C0000100010001000100010001000100010027
:1001D00052000100010001000100010001000100C6
:1001E000500051004F00010001000000010001001B
:1001F00001000100010001000100000001000100F8
:1002000001000100010001000100010000000100E7
:10021000010001004E004B00A900AA0003780478F9
:10022000A900AA001E0F0500047F3F1F643214645A
:100230003214783C1E1E140A05000101010101015F
:10024000010101020202020202020202030303038D
:10025000030303030404040404040405050505055D
:10026000060606060607070707070808080809091B
:1002700009090A0A0A0B0B0B0C0C0C0D0D0D0E0EC6
:100280000E0F0F0F10101111111212131314141559
:100290001516161717181819191A1A1B1B1C1D1DCD
:1002A0001E1E1F2020212222232424252626272823
:1002B00029292A2B2C2D2D2E2F3031323233343553
:1002C000363738393A3B3C3D3E3F40414243444556
:1002D000464748494A4C4D4E4F5051535455565835
:1002E000595A5B5D5E5F616264656668696B6C6DDF
:1002F0006F7072737577787A7B7D7E808283858755
:10030000888A8C8E8F91939596989A9C9EA0A2A392
:10031000A5A7A9ABADAFB1B3B5B7BABCBEC0C2C497
:10032000C6C9CBCDCFD1D4D6D8DBDDDFE2E4E7E957
:10033000EBEEF0F3F5F8FAFDFFFFAA7F554001025E
:10034000030C0D0E0F00070605040B0A09082223F3
:10035000252628292A2C2D2F3032333536383A3BA2
:100360003D3E4042434547494A4C4E5051535557F4
:10037000595A5C5E6062646668696B6D6F71737513
:1003800077797B7D7F81838587898A8C8E90929413
:1003900096989A9C9E9FA1A3A5A7A8AAACAEAFB120
:1003A000B3B4B6B8B9BBBCBEBFC1C2C3C5C6C7C96A
:1003B000CACBCCCDCED0D1D2D2D3D4D5D6D7D7D824
:1003C000D9D9DADADBDBDBDCDCDCDCDCDDDDDDDD76
:1003D000DCDCDCDCDCDBDBDBDADAD9D9D8D7D7D67E
:1003E000D5D4D3D2D2D1D0CECDCCCBCAC9C7C6C535
:1003F000C3C2C1BFBEBCBBB9B8B6B4B3B1AFAEAC7B
:10040000AAA8A7A5A3A19F9E9C9A98969492908E25
:100410008C8A89878583817F7D7B79777573716FFE
:100420006D6B6968666462605E5C5A5957555351DA
:10043000504E4C4A4947454342403E3D3B3A383690
:10044000353332302F2D2C2A292826252322050149
:100450000980A101850319012AB700150126B700FB
:10046000950175108100C0050C0901A101850419D1
:10047000012AA002150126A002950175108100C075
:1004800005010906A101050719E029E71500250165
:10049000950875018102950175088101050719000C
:1004A00029FF150026FF009506750881000508192B
:1004B000012905950575019102950175039101C00A
:1004C00009023B00020100A0FA0904000001030137
:1004D00001000921110100012240000705810308E4
:1004E00000010904010001030000000921110100BD
:1004F00001223200070582032000011201000200E0
:1005000000000810CB5733100301020001220351F1
:1005100000750065006600720065006E006300797A
:100520000020005200650076002E002000330000FD
:10053000000E034B0065006500620069006F00005B
:1005400000040309040011241FBECFEFDAE0DEBF70
:10055000CDBF04B603FE18C08091C6039091C703B7
:10056000A091C803B091C9038730904BA740B04B0E
:1005700059F41092C6031092C7031092C803109248
:10058000C903E0E0F8E3099523E0AEEEB1E001C075
:100590001D92A63CB207E1F711E0A0E0B1E0E0ED6A
:1005A000F5E502C005900D92AE3EB107D9F70E9465
:1005B000FA220C94922A0C940000E8EDF0E080817D
:1005C0008E7F80831092E2001092DA001092E10098
:1005D000A0EEB0E08C9181608C9380818F778083D6
:1005E00019BCA7EDB0E08C918E7F8C9380818F7EBB
:1005F00080831092AC0308952091E4003091E500CF
:1006000095E6A9012091EC00822F817020FF06C0A1
:100610008091E80080FF06C080E008952091E80006
:1006200022FD1AC08091B903882389F0853089F0B2
:100630008091EB0085FD0FC02091E4003091E50032
:1006400042175307F9F29150E1F684E0089582E0F1
:10065000089583E0089581E008958091BB0387FFAA
:1006600013C08091E80082FF06C08091E8008B777C
:100670008093E80004C08091B9038111F2CF0895FE
:100680008091B9038823D9F38091E80080FFF8CFE7
:100690008091E8008E77ECCF982F9093E900242F7B
:1006A000762F50E0891731F07091EC002091ED0029
:1006B0005091F00021FD07C09F5F973071F7809344
:1006C000E90081E008953091EB003E7F3093EB002C
:1006D0003091ED003D7F3093ED003091EB003160C3
:1006E0003093EB007093EC002093ED005093F000FA
:1006F0002091EE0027FDE0CF80E00895B0E0A0E07B
:10070000E4E8F3E00C94E228C8EDD0E088818F7E25
:100710008883E7EDF0E080818160808384E082BFA0
:1007200081E08093AC0388818E7F888302EE10E0A5
:10073000F80110821092DA0081EEC82ED12CF60159
:10074000108288818F7788838881806888838881F8
:100750008F7D888319BC1092B9031092BA0310924E
:10076000B8031092B70390EEE92EF12CF7018081C7
:100770008B7F808388818160888342E060E080E0B5
:100780000E944C03F60180818E7F8083F801808176
:1007900081608083808188608083F70180818E7F83
:1007A0008083888180618883CDB7DEB7E8E00C94D0
:1007B000FE28FC018091C1039091C2038617970720
:1007C000A0F06115710529F49091E8009E7790934F
:1007D000E80090E06115710551F4911108C0809115
:1007E000E80082FF34C080E00895BC01F2CF809120
:1007F000B9038823C1F18530C1F18091E80083FD00
:1008000030C08091E80082FDEACF8091E80080FF4F
:10081000E1CF8091F3002091F200382F611571052E
:1008200019F02830310558F091E02830310509F0F1
:1008300090E02091E8002E772093E800CBCF8191C3
:100840008093F100615071092F5F3F4FE7CF809196
:10085000B903882341F0853041F08091E80083FF9F
:10086000BECF81E0089582E0089583E00895089561
:1008700008958091AE0308959C014FB7F89480913C
:10088000A8039091A903A091AA03B091AB034FBF15
:10089000821B930B08952FB7F8946091A803709171
:1008A000A9038091AA039091AB032FBF08952FB79E
:1008B000F8948091A8039091A903A091AA03B09104
:1008C000AB032FBF08959C01FC0132969FEF80E09F
:1008D0004191461751F09F3F19F4411101C0982FE3
:1008E0008F5F8630A9F79F3F09F40895290F311DC6
:1008F00097FD3A95F90162830895A3E0B0E0E3E83B
:10090000F4E00C94E8282091A5033091A603281761
:100910003907A1F09093A6038093A503E091A30368
:10092000F091A403309751F024E029839B838A83BC
:100930000680F781E02DCE01019609952396E2E02D
:100940000C940429A3E0B0E0E8EAF4E00C94E82871
:100950002091A1033091A20328173907A1F09093A9
:10096000A2038093A103E091A303F091A403309725
:1009700051F023E029839B838A830680F781E02D51
:10098000CE01019609952396E2E00C940429FC011E
:10099000680F791F8FEF91E32191822728E030E0E3
:1009A00087FF09C0880F892721503109C9F7E61749
:1009B000F70791F70895880FF7CF8F929F92AF9224
:1009C000BF92EF92FF920F931F93CF93DF938430E8
:1009D000B8F5811136C0909180009F779093800088
:1009E0002D98A0918600B0918700282F30E00E94BA
:1009F000832A23E030E040E050E00E94612A890130
:100A00009A0180918600909187006CE070E00E94CE
:100A10002B2960177107D8F0C80169E070E00E94C7
:100A20002B297093890060938800DF91CF911F91EB
:100A30000F91FF90EF90BF90AF909F908F9008958F
:100A400083E090918000906890938000CACF80915D
:100A5000860090918700E0908600F0908700E091FA
:100A60008600F0918700C6E0D0E0BE010E942B29ED
:100A7000060F171F211D311D4801590185E0880C03
:100A8000991CAA1CBB1C8A95D1F7C701BE010E9404
:100A90002B299F0150E040E0260F371F411D511DBB
:100AA000C501B4010E94612A49015A01E091860002
:100AB000F0918700CA01B9010E940F299B01AC0186
:100AC000DF010E944E2A9B01AC01C501B4010E94C6
:100AD0000F292FE096958795779567952A95D1F7F9
:100AE000009186001091870030E020E0061717077C
:100AF0002807390708F095CF60918600709187002C
:100B000090CFFA01811101C0FB0109950895E5E13B
:100B1000F3E01182828184608283089580919B0337
:100B2000982F9E7F29F48170826080939B030895A3
:100B30008635E8F381708465F8CFAF92BF92DF927B
:100B4000EF92FF920F931F93CF93DF93082F162FEF
:100B5000E901E42FF0E0E75CFD4F611110C0E49182
:100B60005E2F4E2F4983E8835A83DF91CF911F91E7
:100B70000F91FF90EF90DF90BF90AF900895E62E19
:100B8000F12C4491D42EE42FF0E026E0829FC001A6
:100B900011242FEF30E0B9010E942B29802F90E023
:100BA000880F991F55E5569FD001579FB00D11240E
:100BB0008A1B9B0B982F990F890F5901AE18BF08FC
:100BC000AE9ED001AF9EB00DBE9EB00D11245B2F26
:100BD000189F80011124012F11275901A01AB10A71
:100BE000AE9E8001AF9E100DBE9E100D11245901C6
:100BF000A81AB108AE9CC001AF9C900DBE9C900D90
:100C00001124892F9927281B390B2E9FC0012F9F54
:100C1000900D3E9F900D1124E92F62307105A1F0D7
:100C200050F46115710509F49DCF6130710581F0B3
:100C3000EB2F512F97CF6430710569F080F066304B
:100C4000710509F48FCFF4CFE42F4B2F592F8ACFA2
:100C5000E42F412F87CFEB2F542F492F83CF4B2FDA
:100C60005D2DE12F7FCF80E00895F894E82FE29585
:100C7000EF70F0E031A1282F2F7081E090E001C0EB
:100C8000880F2A95EAF7982F9095932391A392A124
:100C9000892B82A3789408959091D70292FF06C081
:100CA000282F28712830F9F4877F846093FF06C0CD
:100CB000282F28712831F1F4877E84612091D80291
:100CC00020FF06C0382F38713830D9F4877F816013
:100CD00021FF06C0282F28712831D1F4877E816139
:100CE00094FD877E0895282F24712430F9F68B7F98
:100CF0008860DCCF282F2471243101F78B7E886136
:100D0000DDCF382F3171313019F78E7F8860E0CF19
:100D1000282F2171213121F78E7E8861E1CF823821
:100D20009105B9F1B0F48133910509F47DC048F41F
:100D30008932910509F46DC08A32910509F47BC0AE
:100D400008958533910509F45FC08933910509F150
:100D50000895833E9105D9F138F4803E910529F13B
:100D6000823E910579F10895863E9105D9F1873E3D
:100D7000910509F43EC0843E910541F52091D802C9
:100D800021FF24C08091D70284FD19C087EE90E036
:100D900008952091D702237009F05AC02091D802FB
:100DA00023FF14C089E290E008952091D70220FD2E
:100DB00038C03091D80230FF09C024FF43C090E012
:100DC00080E008952091D70222FDF7CF0895209169
:100DD000D70222FD3AC03091D80230FD39C024FF3D
:100DE000F5CFEDCF2091D70223FFF0CF24FDE7CF41
:100DF000CDCF2091D70223FD2EC03091D80231FFF4
:100E0000EECF84EE90E008952091D70225FFDECF4B
:100E1000C9CF2091D70225FD21C02091D80223FF00
:100E2000D5CF89E390E0D2CF2091D70226FFCECF55
:100E30008AE290E008952091D70226FFC7CF81E390
:100E400090E0089583EE90E0089582EE90E008959A
:100E500080EE90E0089586EE90E0089585E390E0BE
:100E60000895E62F972F7A30C8F4693008F03EC015
:100E7000823008F03EC070E029E0929F600D711D45
:100E80001124FB019AE5899FE00DF11D1124EE0F5D
:100E9000FF1FE455FF4F8591949108957D3F91F494
:100EA000623020F5823028F5682F70E0660F771FDA
:100EB000E60FF72FF11DEE0FFF1FEE0FFF1FEC5E89
:100EC000FD4FE9CF7C3F91F4623080F4823088F4AA
:100ED000682F70E0660F771FE60FF72FF11DEE0FFA
:100EE000FF1FEE0FFF1FEA5EFD4FD5CF80E090E0C1
:100EF000089581E0FCCF1F93CF93DF930E948F066C
:100F0000EC01C11580E5D807F0F5C11580E4D807DC
:100F100008F09CC0C03ED10520F5CD3CD10508F0BD
:100F200082C0C83AD10578F4C53AD10508F073C03B
:100F3000C130D10519F1209709F1C430D105F0F481
:100F4000D0E0C0E01BC0C33CD105D0F7C85AD0E008
:100F5000CC0FDD1FC658DE4F0990D881C02DD46458
:100F60000DC0C11580E2D80708F0D1C0C11581E0DD
:100F7000D80708F05AC0C83ED10510F7CE01DF915E
:100F8000CF911F910895C03682E5D80718F5C03477
:100F900082E5D80708F06BC0C03282E5D80708F0B8
:100FA0005FC0C11582E5D80708F497C02C2F26959D
:100FB000269580E2289F900111248C2F8370C1E038
:100FC000D0E002C0CC0FDD1F8A95E2F7C22BD32BF5
:100FD000DD68D4CFC03A82E5D80760F4C03882E536
:100FE000D80708F459C0CF71D0E0DC2FCC27C46FEC
:100FF000D06AC4CFC03C82E5D80708F462C0C03EC6
:1010000082E5D80708F09CCFDC2FCC27CC27DF71F6
:10101000C06FD06AB3CFC55AD0E0C958DE4FC8817F
:10102000D0E0D064ABCFD065A9CF8D2F0E944C0605
:10103000182FCE0199270E948F06C12FD0E0DC2FF8
:10104000CC27CC27DF71C82BD92B98CFCE0199277D
:101050000E948F06CC27DF70C82BD92BD06A8ECF89
:10106000CF71D0E0DC2FCC27C16FD06A87CF2C2F77
:1010700026952695277080E2289F900111248C2FB9
:101080008370C1E0D0E002C0CC0FDD1F8A95E2F78B
:10109000C22BD32BDC6872CF2C2F26952695277078
:1010A00080E2289F900111248C2F8370C1E0D0E052
:1010B00002C0CC0FDD1F8A95E2F7C22BD32BDA6872
:1010C0005DCF8C2F8F710E944C06C82FD0E0DC2F93
:1010D000CC27CC27DF71D06251CF8C2F8F710E942B
:1010E0004C0655E0D695C7955A95E1F7CF70D0E0FC
:1010F000DC2FCC27282F30E084FF05C044E0220FEE
:10110000331F4A95E1F7C22BD32BD06937CF8D2FF0
:101110008F710E944C06182FCE0199270E948F06CE
:10112000C12FD0E0DC2FCC27CC27DF71C82BD92BE7
:10113000D2CF0E944B0408958091700281111092C9
:1011400070020895809590916F02982390936F029A
:101150000895209164029091330256E0291302C051
:1011600080E0089530E0529FF001539FF00D11246C
:10117000EC5CFD4F7181761306C07081781303C05B
:101180007281741304C02F5F3F4F2770E7CF81E057
:1011900008958091640290913302981301C00895DC
:1011A0008F5F8770FACFB0E0A0E0E9EDF8E00C9433
:1011B000E1287C010091D5021091D6028091710244
:1011C00090917202082B192BCFE0D0E0CC24C3946D
:1011D000D12CBC2EC6010C2E02C0880F991F0A9478
:1011E000E2F780239123892B49F4219790F7B12CC2
:1011F0008B2DCDB7DEB7E9E00C94FD28B7018C2F1D
:101200000E9431070E947B07019779F3F1CFCF93BA
:10121000DF93EC010E94D308BE010E9431070E94B7
:101220007B07DF91CF910895A82FA77023E09695B3
:1012300087952A95E1F7880F991F880F991FFB0161
:10124000E80FF91F50E040E080E0219130E00A2EE5
:1012500002C0369527950A94E2F721703327042EB1
:1012600001C0220F0A94EAF7822B4F5F5F4F443090
:10127000510559F70895292F9A3068F4893090F470
:1012800090E06DEF71E039E0239F800D911D1124F6
:101290000E94140908952C5F223020F469EF71E058
:1012A00090E0F6CF80E00895262F277091E001C0EE
:1012B000990F2A95EAF723E0769567952A95E1F745
:1012C000660F771F660F771FFA01E60FF71F50E0D2
:1012D00040E0682F70E08191DF0111979B01042E9F
:1012E00002C0369527950A94E2F7217021952827A8
:1012F000292328272C934F5F5F4F4430510559F71E
:101300000895282F862F9A3070F4293058F4622FD0
:1013100070E029E0929F600D711D11244DEF51E0A6
:101320000E94540908959C5F9230E0F7622F70E0AC
:1013300049EF51E0F5CF9093D6028093D5020895FE
:1013400021E030E002C0220F331F8A95E2F720959A
:1013500030958091D5029091D602822393230E94EA
:101360009B09089590916502809589238093650279
:10137000282F277091F4282F082E000C330B92177A
:10138000130659F09091D80292FF07C08595859574
:1013900085950E94A00910926502089521E030E031
:1013A00002C0220F331F8A95E2F78091D5029091F7
:1013B000D602822B932B0E949B0908959093720270
:1013C000809371020895FC0183819481892B29F017
:1013D0008081918189238F3F51F480E00895843F7B
:1013E000E1F717C0883EA8F0813FB9F712C08081AD
:1013F00091810E94070992959F70963099F358F455
:10140000925F9F70923048F7803F19F040F7883E16
:1014100020F781E008959A5FF4CF90914A019923D3
:1014200019F081FD03C02E9A81E008952E98FCCF1B
:101430000F931F93CF93DF938B01EA019091B90330
:10144000943061F58093E9008FEF9091E80081502E
:1014500095FD06C095ED9A95F1F700008111F5CF45
:101460008091E80085FF1AC00E94FC02811111C022
:101470008091E80085FD06C08091E8008E7780931A
:10148000E800F2CFF80181918F018093F10021975C
:1014900079F78091E8008E778093E800DF91CF9113
:1014A0001F910F91089543E050E0BC0182E00E943B
:1014B000180A0895CF93DF93EC0148E050E0BC0197
:1014C00081E00E94180A88E0FE01AFEAB3E00190D3
:1014D0000D928A95E1F7DF91CF910895CF92DF9237
:1014E000EF920F931F93CF93DF93CDB7DEB7E097C3
:1014F0000FB6F894DEBF0FBECDBF6091640180913E
:101500009B0380FF4BC0EEE3F3E09E012F5F3F4F54
:101510008E010F5C1F4FC901A4914A2F50E0DA01E0
:10152000AA0FBB1FA40FB51FA55EBC4FCD90DD90C9
:10153000EC90D901CD92DD92ED929D013196A017EC
:10154000B10751F72091630143E0249F800D911D65
:1015500011246E9A2EB12F7B3EB130645FB7F894A0
:10156000FC01649FE00DF11D1124BF018617970750
:1015700041F55FBFEFE5F4E03197F1F700C00000FF
:10158000E0960FB6F894DEBF0FBECDBFDF91CF91CE
:101590001F910F91EF90DF90CF900895809165019A
:1015A0009091660123E0829FF0011124E55EFC4FDB
:1015B000891708F0A8CF1182108212828F5F3396AC
:1015C000F7CFDC014D91CD01E8E03EB9000000C04D
:1015D00047FF2EB9440F000000C000C000C02EB964
:1015E00000C0EA9591F7C2CF0F931F93CF93DF937B
:1015F000EC0110E000E0909167019017110609F0EE
:101600006CF40E946E0A8C8190E00196817099279B
:101610008C83DF91CF911F910F91089520916501E7
:10162000A801420F511D9A01220F331F240F351FAD
:10163000255E3C4F4C8160919D0380919C03969563
:101640009017110651F04CF0442349F040919E034D
:101650000E949D050F5F1F4FCECF4423B9F340E09A
:10166000F7CFB0E0A0E0E7E3FBE00C94DE28EC016C
:101670004C81042F10E09801D8010E94832A9B011D
:10168000AC010E944E2A4B015C01E0E2F0E0E01B5D
:10169000F10BA5E5B0E0AC019B010E944E2A6B0165
:1016A0007C019F01DF010E9459299B01AC010E942E
:1016B000592A9B01AC01280D391D4A1D5B1DC7012C
:1016C000B6010E94612AF22E822F90E039E23F1586
:1016D00020F143E0249F9001112435952795122F86
:1016E000109500E085E5E82EEF1880916701081756
:1016F00018F10E946E0A9C8181E0992319F09032C2
:1017000019F48FEF8093620180916201890F8C83BD
:10171000CDB7DEB7ECE00C94FA2825E530E0B9014E
:10172000681B790B9B01220F331F260F371F37FFD2
:10173000D4CF2F5F3F4FD1CF8E2D01FD8F2D209124
:101740006501622F600F7727771F9B01220F331FE0
:10175000260F371F255E3C4F412F60919D030E944D
:101760009D050F5FC2CFEF92FF920F931F93CF9310
:10177000DF93EC018C81811109C081E08C83109290
:10178000190392E09093610180936001809165015B
:101790009091660123E0829FF0011124E55EFC4FE9
:1017A000891758F110E003E060916701161758F1AE
:1017B0000E946E0A8091600120911903280F2093E6
:1017C000190390916101980F90936101191654F4D7
:1017D000022E000C330B409167014150550B24172A
:1017E000350734F0819580936001813009F41C82C3
:1017F000CDB7DEB7E6E00C94002911821082128288
:101800008F5F3396CDCFE12EF12C70E0C7010E949F
:101810003F2920916501820F482F50E02091190344
:10182000022E000C330BE216F306BCF0209161018E
:10183000022E000C330B2E153F057CF0809F90018B
:101840001124255E3C4F40919E0360919D03809141
:101850009C030E949D051F5FA7CFFA01EE0FFF1F9B
:10186000E40FF51FE55EFC4F118210821282F3CF68
:10187000B0E0A0E0EEE3FCE00C94DF28EC018A810C
:10188000BB24BA9480FD02C0BB24B394A09067012E
:101890008C81811109C081E0B8121EC08FEF8A0DC2
:1018A0008093180381E08C83F12CE12CEA14B8F0CA
:1018B0000E946E0A8091180391E0B91254C0811100
:1018C0004DC0809167018150809318031C82CDB771
:1018D000DEB7EBE00C94FB2810921803E3CF0091E5
:1018E00065010E0D1F2D111DC801880F991F080FCE
:1018F000191F055E1C4FF80111821082128234E01C
:10190000C32ED12C912C80911803890D813114F1B3
:101910008F70082E000C990B8E159F0591F4809105
:101920009E038C9DA0018D9D500D112455954795CA
:1019300055954795980160919D0380919C030E9465
:101940009D059B0CF1E0CF1AD108E9F68FEFE81A5C
:10195000F80AACCF87FFDDCF8A0DDBCF81508093B3
:101960001803BC82B4CF90E001966091670170E0EB
:101970000E943F29809318038C83A9CFEF92FF9296
:101980001F93CF93DF93EC0110E0EE24EA94F12C47
:1019900060916701161770F00E946E0A9A818C811F
:1019A00090FF27C08F5F8C83DF91CF911F91FF90B5
:1019B000EF90089520916501422F410F5527551F43
:1019C000CA019A01220F331F280F391F255E3C4F91
:1019D00070E0C7010E943F29962F8C8140919E03A1
:1019E00060919D03199F800D11240E949D051F5F2A
:1019F000CFCF8150D8CF90919B0390FF0EC0909194
:101A000065012091660133E0939FF0011124E55EAA
:101A1000FC4F921718F00E946E0A0895818360832C
:101A200042839F5F3396F5CFA3E0B0E0EAE1FDE0AB
:101A30000C94E6288C0180911A0381110AC09E0142
:101A40002F5F3F4F4FEF6FEF0E949D058A8180937C
:101A50001A03F8016481613069F080911A0340E053
:101A6000662361F040E0623011F440911A0380E097
:101A700060E004C060911A0340E080E00E94FB0C2B
:101A8000F801848190E0019663E070E00E943F29B4
:101A900084832396E4E00C940229A3E0B0E0E3E51C
:101AA000FDE00C94E82890919B0390FF0AC09E01F2
:101AB0002F5F3F4F0E949D054B8169818A810E9463
:101AC000FB0C2396E2E00C940429CF93DF93EC0106
:101AD000EBE9F3E0438162818C810E944D0D8C81A2
:101AE0008F5F8C83DF91CF910895CF93DF93EC01CB
:101AF000EC81F0E0E25BFC4F4491EBE9F3E06281C2
:101B000081810E944D0D8C818F5F8C83DF91CF91FD
:101B10000895B0E0A0E0EFE8FDE00C94E0287C013F
:101B20005B016A018091B80201E010E08A3010F494
:101B30000AE010E0C1E0D0E0B501C701F601099567
:101B4000811104C021960C171D072CF4CDB7DEB708
:101B5000EAE00C94FC28CC9F9001CD9F300D300D15
:101B6000112490E080E045E34A95F1F700000196EA
:101B700082179307C1F7E0CF80917F02811110C0D7
:101B80008091D80080618093D8008AE18A95F1F72E
:101B900000C08091D90080FF0AC081E080937F025D
:101BA00081E090917F02913009F080E0089582E019
:101BB00080937F020E94DD021092B903F1CF0E9450
:101BC000BC0D882359F0E091A303F091A403309752
:101BD00029F00190F081E02D0995089580E00895A5
:101BE0000F931F930E94BC0D882329F00E944B0481
:101BF0001F910F9108950E944B040091B90210911A
:101C0000BA022091BB023091BC02600F711F821F8B
:101C1000931FEECF0E94BC0D882319F00E94570439
:101C200008950E94F00DCB010895682F86E090E0A2
:101C30000E94FB290895282F220F220F220F909136
:101C4000A0039770922B9093A003987F21E009F452
:101C500020E09091A00320FB90F99093A0030E94B4
:101C6000DD048091A0030E94150E08958091A003C9
:101C700080FD13C081608093A003813019F489E056
:101C80008093A0038091A0030E94150E8091A00371
:101C90008695869586950E94DD040895B0E0A0E0C3
:101CA000E4E5FEE00C94DA28FC016280448081E0E7
:101CB0008483EEE4F3E07490EDECF3E0E491C09102
:101CC0009E03C695C158D0E0CC0FDD1FCD2FDD2778
:101CD000812C75E0972EAA24AA94B12C55245A94ED
:101CE000E719EE2EF12C80916701881638F00E94DA
:101CF0006E0ACDB7DEB7E0E10C94F628C82CD12CE3
:101D000082E0861568F09C9CF0019D9CF00D1124EA
:101D1000E55BFC4F80919C03808380919D038183D0
:101D2000411023C09C9CF0019D9CF00D1124E55BAB
:101D3000FC4F1382128220916501C601820F911D12
:101D40009C01220F331F280F391F255E3C4F9C9C9E
:101D5000F0019D9CF00D1124E55BFC4F42816181F7
:101D600080810E949D058394BECF9C9C80019D9C98
:101D7000100D1124055B1C4FF80183818823F1F0BD
:101D800081508383859DC0011124648170E00E948D
:101D90002B29FB01FF27E25BFC4F8491E82FE71919
:101DA000E59DC0011124B7010E942B2980919E035B
:101DB000689FB0011124F8017283BDCF0E94B4293D
:101DC000B5010E943F298C179D070CF0B4CFF2E0BB
:101DD000F61598F40E94B429B5010E943F29F80134
:101DE00080830E94B42920919D032695622F70E084
:101DF0000E943F29280FF80121839C9CF0019D9CA3
:101E0000F00D1124E55BFC4F128280919E03893C0A
:101E100058F088EC9C9CF0019D9CF00D1124E55B32
:101E2000FC4F8483838387CF8431A0F784E1F2CF92
:101E300060919B03669570E04BE050E085E591E092
:101E40000E94C429892B19F481E0809316030E9413
:101E50000A0E9093100380930F0380911703846000
:101E6000809317030895CF92DF92EF92FF926B0158
:101E70007C010E948E05B701A60188E090E00E94D7
:101E80000D2AFF90EF90DF90CF900895A3E0B0E08F
:101E9000ECE4FFE00C94E128082FD62EF42EC22E9D
:101EA00090919B0390FF3CC020919C03281308C095
:101EB00080919D03861304C080919E03841729F0AE
:101EC00080911703826080931703E92FE695AE2F68
:101ED000B0E0AE53BE4F8C91809315039E7F92303D
:101EE00019F59E012F5F3F4F4F2D6D2D802F0E94C2
:101EF0009D054B8169818A810E94FB0C00939C03A4
:101F0000D0929D03F0929E03CC2051F060919B03F0
:101F100070919C0380919D0390919E030E94330FCA
:101F20002396E9E00C94FD28823019F4F0909E038A
:101F3000E5CF8630A1F1893091F18931F9F6E95187
:101F40006E2F6170B62EE695F0E0E75CFC4F1491C1
:101F5000E12C60916701E61618F00E946E0ACECF60
:101F6000E19EC001112470E00E942B29802FB11046
:101F700014C0860F20916501622F6E0D7727771FA1
:101F80009B01220F331F260F371F255E3C4F4F2D1D
:101F90006D2D0E949D05E394DCCF861BEBCF022FB5
:101FA000ADCFEBE9F3E0438121E1421B08F440E0CF
:101FB00021E0628181810E94460F0895EBE9F3E000
:101FC000438121E1420F08F44FEF21E062818181DA
:101FD0000E94460F0895EBE9F3E0628121E1621B64
:101FE00008F460E021E0438181810E94460F08955A
:101FF000EBE9F3E0628121E1620F08F46FEF21E089
:10200000438181810E94460F0895EBE9F3E08181CD
:1020100021E04381628188500E94460F0895EBE9D8
:10202000F3E0818121E043816281885F0E94460F55
:10203000089580919F03882319F0815080939F0316
:1020400060919B0370919C0380919D0390919E03EE
:102050000E94330F089580919F03833018F48F5F9F
:1020600080939F0360919B0370919C0380919D03DB
:1020700090919E030E94330F089590919B0390FFCF
:1020800031C0917081112FC0926090939B03809119
:102090001703816080931703662351F060919B03BF
:1020A00070919C0380919D0390919E030E94330F39
:1020B00060919B03669570E04BE050E085E591E010
:1020C0000E94C429892BB1F00E94870581E080938A
:1020D000120320E040919E0360919D0380919C0338
:1020E0000E94460F08958B3210F09465CECF880F72
:1020F000982BCBCF0E94180FE9CF61E00E943D10D2
:10210000089580919B038695815009F48AE261E0ED
:102110000E943D10089580919B0386958F5F8B32BE
:1021200008F081E061E00E943D10089590919B03CA
:1021300090FF08C09695981728F0961718F40E94FB
:102140008B1008950E947D100895EBE9F3E083E081
:10215000808311828FEF828383831482A5E1B3E0B1
:1021600012968C911297836012968C936081718184
:10217000828193810E94330F0895A4E0B0E0E3ECE4
:10218000F0E10C94E7284091AC025091AD026091CF
:10219000AE027091AF022FB7F8948091A80390918E
:1021A000A903A091AA03B091AB032FBF841B950B89
:1021B000A60BB70B11E084369105A105B10570F1AE
:1021C0000E94F00D6E5F7F4F8F4F9F4F69837A8320
:1021D0008B839C8380912501909126018E569D4F83
:1021E0004091240150E04530510510F044E050E0AA
:1021F000BE016F5F7F4F0E94DE2984E090E00E9465
:102200006228182F882351F00E944B046093AC027F
:102210007093AD028093AE029093AF02812F24960B
:10222000E3E00C9403294F925F926F927F928F921A
:102230009F92AF92BF92EF92FF920F931F93CF9313
:10224000DF937B01FB0140805180628073809FB7E8
:10225000F8948090A8039090A903A090AA03B0904E
:10226000AB039FBF84189508A608B708F4E68F163D
:102270009104A104B10418F4C1E0442329F1C82F4A
:10228000880FDD0BFE0183E0EE0FFF1F8A95E1F75B
:10229000EC5FFE4F818192818E569D4F408150E0D0
:1022A0000417150708F4A801B9010E94DE29CE0120
:1022B0000E946228C82F882339F00E944B04F7013E
:1022C00060837183828393838C2FDF91CF911F91E1
:1022D0000F91FF90EF90BF90AF909F908F907F9065
:1022E0006F905F904F900895A8E0B0E0EAE7F1E1C9
:1022F0000C94E62885E0EBE9F3E0DE01119601900D
:102300000D928A95E1F78091150390911603A091A3
:1023100017038E839F83A88741E08885811101C0C0
:1023200040E008E010E09E012F5F3F4F64EB72E059
:1023300086E00E9413118111109217032896E4E0A1
:102340000C940229A1E0B0E0E8EAF1E10C94E6285F
:102350008091A00380FF18C0869586958695898315
:1023600041E09091A302981301C040E001E010E029
:102370009E012F5F3F4F60EB72E085E00E941311DA
:102380002196E4E00C94022980E0E9CF4F925F921D
:102390007F928F929F92AF92BF92CF92DF92EF92F5
:1023A000FF920F931F93CF93DF930F92CDB7DEB7BA
:1023B000C62E4A015901482E880F5508C2010E94B5
:1023C0006228782E882309F480C0C20133E0880F88
:1023D000991F3A95E1F7FC01EC5FFE4F438150E015
:1023E0004115510511F041E050E08C5F9E4FFC011A
:1023F000648175816E567D4FCE0101960E94DE2963
:10240000F40140815181628173812FB7F8948091EA
:10241000A8039091A903A091AA03B091AB032FBF89
:10242000841B950BA60BB70B84369105A105B1054E
:1024300040F4B701C8010E94C7049981891709F4C3
:1024400044C00C2C000CDD08C6010E946228782EC6
:10245000811113C0712C872D0F90DF91CF911F91A7
:102460000F91FF90EF90DF90CF90BF90AF909F9033
:102470008F907F905F904F900895C60123E0880F62
:10248000991F2A95E1F7FC01EC5FFE4F438150E074
:10249000E416F50608F4A7018C5F9E4FFC016481E9
:1024A00075816E567D4FC5010E94DE29B701C801B6
:1024B0000E94C70499818913CDCF0E944B04F40177
:1024C0006083718382839383C6CFA701B801C5015E
:1024D0000E94DE29C0CFAAE0B0E0E1E7F2E10C946F
:1024E000E2286B018AE0E82EF12C03E912E09E015C
:1024F0002F5F3F4F4AE852E061E080E00E94C61142
:10250000882349F09AE0FE013196A0E8B2E00190FC
:102510000D929A95E1F79AE0E0E8F2E0D601019099
:102520000D929A95E1F72A96E8E00C94FE28AEE128
:10253000B0E0EDE9F2E10C94DA288E010F5F1F4F55
:1025400084E1D8011D928A95E9F765E4E62E61E001
:10255000F62E68017AE4472E71E0572E66246394C4
:10256000712CF5E48F2EF1E09F2EF70181917F0110
:102570008F3F09F445C0F894E82FE295EF70F0E042
:1025800021A18F70A30102C0440F551F8A95E2F765
:10259000CA01922F982B91A392A18095892382A39F
:1025A000789400C0ECE3F1E021E030E0B12CA12C04
:1025B00041914F3F09F46DC0A42FA295AF70B0E0D8
:1025C00090968C9190E04F7002C0959587954A95B2
:1025D000E2F780FD5EC0C901A82AB92A220F331F85
:1025E0008E169F0629F7F701319780818F3F11F0F2
:1025F0000E94350650EA5A95F1F7D601AD92BC9289
:10260000B2E0CB0ED11C4E145F0409F0AECF44E112
:1026100050E0B8018FEB92E00E94D129009741F081
:1026200024E1F801AFEBB2E001900D922A95E1F7B9
:102630000091D402892B81F181E0809377020E947E
:102640005704909376028093750280917502909161
:1026500076020E943C04059718F110E0000F111F4C
:1026600006521D4F4AE050E06FEB72E0C8010E9435
:10267000D129D12C892B51F08AE0EFEBF2E0D8017F
:1026800001900D928A95E1F7DD24D39410927702A0
:1026900008C090E080E0A0CF809177028111D5CF73
:1026A000D12C0E94BC0DC82EE091D402AE014B5E2D
:1026B0005F4F7A01882309F48BC08AE0DA011D920A
:1026C0008A95E9F70E2F10E0000F111F06521D4FDB
:1026D0008091B8028A3008F046C04BE652E1B7015B
:1026E000C8010E94890D882309F461C041E151E2CB
:1026F000B701C8010E94890D882309F458C04DEB29
:1027000050E1B701C8010E94890D882309F44FC028
:1027100042EA51E1B701C8010E94890D882309F4FA
:1027200046C044E751E1B701C8010E94890D8823E2
:10273000F1F11092B8028091D30290E0880F991FB6
:102740004AE050E0B70186529D4F0E94D12921E016
:1027500020937E02892BE1F4C12C8C2D8D296E965D
:10276000E0E10C94F62880917802909179020E9421
:102770003C04843F914008F0B0CF80917E028823D2
:1027800059F38AE0F70111928A95E9F710927E02D7
:10279000A091D302B0E0AA0FBB1FA652BD4F8AE0A2
:1027A000FE01759601900D928A95E1F7D6CF809142
:1027B000B8028F3F31F08F5F8093B8028A3008F4FF
:1027C000BACF0E9457049093790280937802D5CFB4
:1027D000F0E0EE0FFF1FE652FD4F8AE0A3E9B2E002
:1027E00001900D928A95E1F76AE070E083E992E04A
:1027F0000E94C7048093920240910B0350E06091C5
:102800000A0370E06A5F7C4FC7010E94DE298D8950
:1028100080939E0261E070E0C7010E94C70480932C
:102820009D0280909F029090A002A090A102B09083
:10283000A20280917A0290917B02A0917C02B091D9
:102840007D0288169906AA06BB06D1F080927A020C
:1028500090927B02A0927C02B0927D020E94BC0DFD
:1028600081110EC00E944B04861A970AA80AB90A61
:102870008092B9029092BA02A092BB02B092BC02BE
:102880008091A3020E94DD0488E0E4EAF2E0DE0128
:10289000559601900D928A95E1F78091A402869554
:1028A000F090A502E090A602B090A7020091AA02C3
:1028B0001091AB021092AB02112309F44ECF10FF1E
:1028C0000BC02D8990919B0320FF1AC091609093BB
:1028D0009B0360E00E943D1011FF06C020E04B2DDD
:1028E0006E2D8F2D0E94460F12FF04C00023A9F009
:1028F0000E94180F13FF31CF81E0809312032DCF78
:102900009E7F90939B030E948705809117038160AF
:10291000809317030E946E0ADFCF0E948705EACFDB
:1029200080916F0290916E02892B8093F0019091BB
:102930007002992391F0892B8093F00120E082EFBF
:1029400091E0FC013191CF0131112F5FF1E0883F1F
:102950009F07B9F721110E949C0848E050E066E605
:1029600072E080EF91E00E94D129892BA9F088E0E4
:10297000E0EFF1E0A6E6B2E001900D928A95E1F772
:10298000E091A303F091A403309731F00280F3812A
:10299000E02D80EF91E00995089510926F02E2EF2B
:1029A000F1E086E0DF011D928A95E9F790E080E092
:1029B0000E94A20490E080E00E947D0410926E02CA
:1029C0000E9490140895AAE2B0E0E9EEF4E10C94BC
:1029D000E7288BEB93E02091F100FC012193CF01DC
:1029E000F3E0833C9F07B9F78091BC03833009F47F
:1029F00070C0B8F4813009F447C0823009F4B1C026
:102A00008091E80083FF7EC28091BB039091BC035C
:102A10009A3008F077C2E92FF0E0EC56F54D0C94AF
:102A200053298A3009F48CC08B3009F46FC0893087
:102A300039F78091BB03813219F78091BF039091E0
:102A4000C0030297E8F68091E800877F8093E80052
:102A50008091E80082FF38C09091F3008091F200ED
:102A6000029731F48091F100813011F0863021F429
:102A70008091F1008093AE038091E8008B77809382
:102A8000E8000E942D03BCCF8091BB03813A09F07E
:102A9000B7CF8091E800877F8093E8008091BF03E3
:102AA0009091C003892B61F468E08FEA93E070E0B5
:102AB0000E94D9038091E8008B778093E800A0CF33
:102AC00060E090E080E0F3CF8091B9038111C0CF46
:102AD00097CF8091BB03813A09F092CF8091BF03D9
:102AE0009091C003892B09F08BCF8091E800877FFC
:102AF0008093E8008091E80080FFFCCF809168011E
:102B00008093F1008091E8008E77B9CF8091BB036C
:102B1000813209F075CF8091BF039091C003892B5A
:102B200009F06ECF8091E800877F8093E8000E94D3
:102B30002D038091BD03809368010E94CD1460CF66
:102B40008091BB03813209F05BCF8091E800877FE1
:102B50008093E8000E942D038091BE038093AD0313
:102B60004FCF8091BB03813A09F04ACF8091E800B2
:102B7000877F8093E8008091E80080FFFCCF809100
:102B8000AD03BECF803899F0823809F0BBC1809187
:102B9000BF038F70873008F0B5C18093E900809142
:102BA000EB0085FB882780F91092E90006C0809130
:102BB000B7039091B803911182609091E800977FDC
:102BC0009093E8008093F1001092F1008091E8006A
:102BD0008E7794C1882309F482C1823009F092C1B2
:102BE0008091BD03811185C18091BF038F702FEF4C
:102BF000280F263008F086C18093E9002091EB0071
:102C000020FF77C1933031F48091EB008062809394
:102C1000EB006FC19091EB0090619093EB0021E08D
:102C200030E001C0220F8A95EAF72093EA00109263
:102C3000EA008091EB008860EACF811163C11091B6
:102C4000BD031F778091E3008078812B8093E300A0
:102C50008091E800877F8093E8000E942D03809197
:102C6000E80080FFFCCF8091E30080688093E30060
:102C700082E0111183E08093B90344C1805882300F
:102C800008F040C18091BD039091BE038C3D23E0CC
:102C90009207A1F583E08A838AE289834FB7F8948B
:102CA000DE01139620E03EE051E2E32FF0E0509386
:102CB0005700E49120FF03C0E295EF703F5FEF7093
:102CC0008E2F90E0EA30C0F0C7968D939D932F5FD2
:102CD000243159F74FBF8091E800877F8093E80047
:102CE0006AE270E0CE0101960E94D9038091E8006B
:102CF0008B778093E80006C1C096E7CF4091BF0371
:102D00005091C003292F33272330310509F444C0E3
:102D100078F52130310509F46FC08BE390E0E0ECE9
:102D2000F4E02230310509F0EDC02091E800277F62
:102D30002093E8002091C1033091C20382179307CA
:102D400008F49C0140E02115310509F064C04111EF
:102D500062C08091E80082FDC9CF8091B9038823C9
:102D600029F2853019F28091E80083FFF2CFBECFBF
:102D700021323105A9F12232310509F0C3C04115D4
:102D8000510509F443C04130510509F0BBC082E34D
:102D900090E0EEE4F4E0C9CF992781309105C1F0CD
:102DA000009759F0029709F0ADC0EDE0F5E0E4912D
:102DB0008E2F90E0EDE0F5E007C0E1E4F5E0E4916E
:102DC0008E2F90E0E1E4F5E0009709F49BC0ADCFD1
:102DD000E1E3F5E0E4918E2F90E0E1E3F5E0F4CF5C
:102DE0004115510571F04130510509F08BC089E062
:102DF00090E0EBEEF4E099CF82E190E0EBEFF4E0CD
:102E000094CF89E090E0E2EDF4E08FCF80E490E0B1
:102E1000E0E8F4E08ACF8091B903882309F466CF13
:102E2000853009F463CF8091E80083FD5FCF809106
:102E3000E80082FD8ECF8091E80080FF84CF9091E2
:102E4000F3008091F2002115310519F088309105C9
:102E500050F041E0089709F040E08091E8008E775B
:102E60008093E80070CF44914093F1003196215057
:102E700031090196E8CF803809F044C08091E8001C
:102E8000877F8093E8008091BA038093F1009ECE03
:102E9000811138C01091BD031230A0F58091E80077
:102EA000877F8093E8001093BA030E942D031123BB
:102EB00011F084E005C08091E30087FDFACF81E046
:102EC0008093B90342E061EC81E00E944C0342E24E
:102ED00061EC82E00E944C038091B90313C08091A1
:102EE000BD03813079F481E0933009F080E0809374
:102EF000B8031092E9008091E800877F8093E80092
:102F00000E942D038091E80083FF0AC08091E800B1
:102F1000877F8093E8008091EB0080628093EB00D4
:102F2000AA96E3E00C9403290E94CD142FEF84E3CA
:102F30009CE0215080409040E1F700C0000088E113
:102F40009CE00FB6F894A895809360000FBE909314
:102F50006000FFCF882321F00E94A2080E949014F5
:102F60000895882339F090916F02982B90936F0207
:102F70000E9490140895882391F19CEF980F913A44
:102F800080F4E2EFF1E028EF31E09191891303C082
:102F9000DF0111971C922E173F07B9F70E9490147A
:102FA000089590E2980F983050F4877091E001C036
:102FB000990F8A95EAF7892F0E94A208EFCF9BE527
:102FC000980F933028F490E080E00E94A2040895C6
:102FD000885A8B3120F490E080E00E947D040895AF
:102FE000CF93C82F8823B1F08CEF8C0F813A00F576
:102FF000E2EFF1E088EF91E0DF012D91C21761F07F
:103000008A179B07D1F76C2F80EF91E00E94630431
:103010000E949014CF9108952191C21303C0DF0143
:1030200011971C928E179F07B9F70E949014EBCF4F
:1030300080E28C0F883068F4C77021E030E001C076
:10304000220FCA95EAF780916F02822B80936F025C
:10305000DFCFEBE5EC0FE33040F4F0E0E958FE4F52
:10306000808190E00E94A204D5CFC85ACB3190F65F
:10307000EC2FF0E0EE0FFF1FE658FE4F80819181AC
:103080000E947D04C7CF0F931F93CF93DF93C62F6A
:10309000D42F022FFC0182818823A9F06093C503FD
:1030A0000E9457049093C4038093C303C77081E0C8
:1030B00001C0880FCA95EAF70E94B117DF91CF913E
:1030C0001F910F9108958091C503681335C08091B9
:1030D000C3039091C4030E943C04883C910560F5B1
:1030E00010E21D0FCD17B9F080E28C0F883040F44C
:1030F000C77081E001C0880FCA95EAF70E94AA173D
:10310000183048F481E09D2F977001C0880F9A9580
:10311000EAF70E94B117802F0E94F017802F0E94BB
:10312000BB17183058F6D77081E001C0880FDA95C8
:10313000EAF70E94AA17C2CFC77081E001C0880FCA
:10314000CA95EAF7F6CF67EE7EEF90E080E00E9446
:10315000192A60E082E090E00E94FB2960E083E0B1
:1031600090E00E94FB29109272021092710260E0BE
:1031700074E184E090E00E94192A60E086E090E02B
:103180000E94FB296FEF87E090E00E94FB2940E05E
:1031900050E0BA0188E090E00E940D2A60E08DE0E6
:1031A00090E00E94FB2940E050E0BA0188E190E005
:1031B0000E940D2A60E087E190E00E94FB2940E038
:1031C00050E0BA018CE190E00E940D2A70E060E0CE
:1031D00080E290E00E94192A40E050E0BA0188E1C4
:1031E00090E00E940D2A0E94360E83E00E941B0E82
:1031F000EBE9F3E080818160808386950E947D10F9
:1032000021E04FEF6FEF80E00E94460F8BE00E94BD
:103210007D1040E050E0BA018FE090E00E940D2A5E
:1032200040E050E0BA0183E190E00E940D2A089549
:1032300090E080E00E94F529873E9E4F51F00E9469
:10324000A3188091A003847089618093A0030E94D9
:10325000150E86E090E00E94E7298093A00380325B
:1032600020F0877088618093A0039091A003892F3C
:10327000817090FF04C0892F8695869586950E945F
:10328000DD0408959091D80292FB222720F9281797
:1032900079F080FB92F99093D8026091D7027091F7
:1032A000D80284E090E00E94192A82E00E94B209CC
:1032B0000895A5E0B0E0EFE5F9E10C94DE287C018B
:1032C000FC0183819481892B31F080819181892354
:1032D0008F3F09F0ADC42596ECE00C94FA280E94CB
:1032E000D308182F682F89819A810E9481096981EA
:1032F0007A81812F0E9431078C01F7018281882316
:1033000009F402C50230F8E71F0709F492C058F526
:10331000011538E7130709F445C0013088E718079D
:1033200009F455C0F801E851FC47E730F10508F40D
:10333000F2C41092C503C8019057839708F089C45E
:1033400084E090E00E94F5299093D8028093D70200
:10335000F801E150F047E232F10508F099C0E25679
:10336000F54D0C945329043098E7190709F44DC022
:1033700080F10530F8E71F07A9F69091A003892F87
:103380008695869586958F5F8F719770843008F04B
:103390005EC0880F880F880F892B8093A0038091CF
:1033A000A0031FC083E00E941B0E809165028770FE
:1033B00009F491CFF7018281882309F48CCF8091A1
:1033C000D80282FF88CF82E00E94B20984CF80E0D9
:1033D000EACF8091A003982F987F79F0885080934E
:1033E000A003887F91E009F490E08091A00390FB16
:1033F00080F98093A0030E94150E8091A00386950A
:10340000869586950E94DD04D0CF8091A003982FE9
:10341000969596959695933040F49F5F990F990FE6
:10342000990F8770892B8093A0038091A0038160FE
:10343000E0CF8091A00380FF07C08E7F8093A00320
:103440000E94150E80E0DECF0E94360EAECF909324
:10345000A003A5CF26E241EE61EEC7010E9443180A
:10346000A4CF27E245EE65EEF8CF26E241EE60EE0E
:10347000F4CF27E245EE64EEF0CF26E241EE62EEB5
:10348000ECCF27E245EE66EEE8CF28E241E0EBCF55
:103490008091D70281608093D70295C08091D80235
:1034A00088608093D8028FC08091D7028260F3CF6A
:1034B0008091D7028460EFCF8091D7028860EBCFF4
:1034C0008091D8028160EDCF8091D8028260E9CFEF
:1034D0008091D7028061DFCF8091D7028062DBCFFD
:1034E0008091D7028064D7CF0E94CD148091D702FB
:1034F0008068D1CF8091D7028C60CDCF8091D802E7
:103500008360CFCF8091D7028E7FC5CF8091D802C4
:10351000877FC7CF8091D7028D7FBDCF8091D702A3
:103520008B7FB9CF8091D702877FB5CF8091D802AA
:103530008E7FB7CF8091D8028D7FB3CF8091D70295
:103540008F7EA9CF8091D7028F7DA5CF8091D702A2
:103550008F7BA1CF0E94CD148091D7028F779BCF14
:103560008091D702837F97CF8091D8028C7F99CFAB
:103570008091D70282FB992790F921E0922790FB56
:1035800082F990FB83F987CF8091D802982F90958C
:1035900091708E7F892B90FB81F983CF9091D70218
:1035A000892F8F7B96FF806476CF0E94CD149091F7
:1035B000D702892F97FB87F980586DCF61E08EE0A5
:1035C00090E00E94FB296091D7027091D80284E0BC
:1035D00090E00E94192A0E94CD14E7CE60E0EFCF60
:1035E0009091D702892F8F7E94FF806154CF909164
:1035F000D702892F8E7F90FF81604DCF9091D802A6
:10360000892F877F93FF88604CCF85E341C38091EA
:103610009B0380FF17C08E7F80939B0360919B0369
:1036200070919C0380919D0390919E030E94330FA3
:103630000E948705809117038160809317030E9481
:103640006E0AB3CE816080939B0386950E947D10A5
:10365000ACCE41E850E16BE870E10E948105A5CE57
:103660004BE850E161E870E1F8CF45E050E16FE0F0
:1036700070E1F3CF4FE050E165E070E1EECF4BEE4B
:103680005FE068EF7FE0E9CF48EF5FE06BEE7FE05F
:10369000E4CF41ED5FE06EED7FE0DFCF4EED5FE028
:1036A00061ED7FE0DACF49E150E16BE270E1D5CF27
:1036B0004BE250E169E170E1D0CF81E0C7CF65E036
:1036C00082E00E94961071CE68E086E0FACF6EE04C
:1036D00089E0F7CF64E18FE0F4CF67E185E1F1CFD6
:1036E00088E1B4CF62E289E1ECCF83E2AFCF6AE256
:1036F00085E2E7CF0E94CD142FEF34E38CE0215018
:1037000030408040E1F700C0000081E08093E0009D
:1037100080E28093D8001092C900EFE1FEE4319777
:10372000F1F700C0000087E090EBDC018093C60356
:103730009093C703A093C803B093C90388E19CE0AA
:103740000FB6F894A895809360000FBE9093600028
:10375000FFCF6FEF7FEF90E080E00E94192A0E9478
:1037600094178091D80282FB882780F991E08927FD
:103770000E944219F701828100811181882309F496
:103780004AC0C8010E94D308D82E682FC8010E94E1
:103790008109B8018D2D0E9431070E947B07B82E48
:1037A000192F882EF701A280958092949FE099228C
:1037B000809165028770F1F0DA2CAA20E1F0812F68
:1037C000807F803451F080E28B0D883098F091102A
:1037D00004C0812F807E803269F08091D80282FF00
:1037E00009C082E00E94B209809165028770DD24E1
:1037F000D3948111D12CC12EC2948FE0C822FBE05A
:10380000FC1508F471C0EC2DF0E0E054F54D0C947B
:10381000532980E0ADCFC8010E943B09D82EB9CF13
:10382000012F0F70107F11F00295007FAA20B9F0D0
:10383000002369F080E28B0D883010F0811009C000
:1038400080916F02082B00936F020E9490148B2DC1
:1038500049C080916E02082B00936E02F6CF8B2D2B
:103860000E94BB17002309F43FC080E28B0D883013
:1038700010F0811004C0802F0E94A20806C000959D
:1038800080916E02082300936E020E9490142CC057
:10389000012F0F70107F103211F00295007F8820E9
:1038A00089F021E0821609F47EC0AA2009F488C0BC
:1038B000992009F47EC0F701858180FFC8CF8F7001
:1038C000858377C02091D80222FD45C0AA20E9F166
:1038D000002339F080916F02082B00936F020E9441
:1038E000901480E00E94F017EC2DE850FF0B349705
:1038F00020F40E94DF0D0E940D0ADD20A9F08091C6
:10390000650280FD11C0F701128285958595859528
:103910000E94CE09C7010E945919809165028595C0
:10392000859585950E94A00985E0F701DE01119635
:1039300001900D928A95E1F709811A81C8010E94D0
:103940003B09B8010E943107C6CC80E00E94BB173A
:10395000002351F290CFAA20A1F090917002802F05
:10396000892B911003C00E94B117BECF31E0931292
:10397000FACF22FFB9CF981709F4B6CF809370021F
:10398000B3CF911006C00E949C08802F0E94AA17F6
:10399000ABCF81E0981609F4A7CF802F0E94AA1719
:1039A0000E949C08A1CFAA2031F095E0991508F457
:1039B0009BCF802FD8CFE4E0E91508F495CFE5CF71
:1039C000992019F3F9E38F122CC12FEF37EE83E022
:1039D000215030408040E1F700C0000022C1812F1B
:1039E00086958695837069F0813009F07DCF8B2DA7
:1039F000912F9370A11002C080E090E00E947D049E
:103A000073CF8B2D912F9370A11002C080E090E0B6
:103A10000E94A20469CF912F937009F03FC0A110BA
:103A200063CF4B2D429546954770440F440F8B2D25
:103A30008F7090E0042E02C0880F991F0A94E2F75D
:103A400030E020E0B4FE09C02FE030E002C0220FD9
:103A5000331F4A95E2F72095309516951695137009
:103A6000123099F078F44091710250917202113045
:103A700039F0822B932B842395230E94DE0934CFC7
:103A8000842B952B822B932BF8CF822B932B209179
:103A900071023091720282279327EFCF9695AA2068
:103AA00011F0912F9170992309F41ECF4B2D42955F
:103AB00046954770440F440F8B2D8F7090E0042E75
:103AC00002C0880F991F0A94E2F730E020E0B4FEAC
:103AD00009C02FE030E002C0220F331F4A95E2F701
:103AE00020953095169516951370123099F078F44C
:103AF0004091D5025091D602113039F0822B932B90
:103B0000842395230E949B09EFCE842B952B822B37
:103B1000932BF8CF822B932B2091D5023091D60294
:103B200082279327EFCF1F70AA2029F0812F0E94B0
:103B3000CE098B2D18CF8B2D0E94AA17812F0E94A2
:103B4000A009D2CE8B2D92EF891699F1981570F0BD
:103B5000E0EF8E16D1F0F1EF8F1691F0AA2009F464
:103B60005BC0911074CE812F8F7127C023EF821616
:103B700039F134EF8312F2CF8091D80282FD2EC04A
:103B8000812F8F71AA20D9F218C0AA2069F084E091
:103B9000891508F4A9CE1F7181E090E002C0880F5A
:103BA000991F1A95E2F7B8CF95E0991508F49CCEC5
:103BB000F2CF812F8F71A110C2CF0E94CE0994CE77
:103BC00090E080E0AA2009F49DCF1F7181E090E091
:103BD00002C0880F991F1A95E2F794CFAA2089F0A6
:103BE0001F71812F0E94CE098091D80282FF07C0E9
:103BF000E8E01E9FC0011124836080936502812F3D
:103C0000DCCF81E00E94B209F1E0F91508F06CCE3A
:103C100082E00E94B20968CE992039F0893309F414
:103C2000D4CE8B2D0E94BB175FCE812F8F7187CF93
:103C300085E0DE01119601900D928A95E1F7F7017A
:103C4000228189819A8121114ACB0E943B09182F38
:103C50004ECB0631FCE71F0749F580916F028A7A47
:103C600091E009F490E09093F80169E2811165E335
:103C700080EF91E00E9463040E94901496CB06317D
:103C80002CE7120799F58091F8018111BECC89E2E9
:103C9000E2EFF1E028EF31E09191891303C0DF01F9
:103CA00011971C922E173F07B9F7E6CF03303CE778
:103CB000130709F44ECD50F401159CE7190709F4D8
:103CC00019CD01301C4709F44ACD54CD0B35FCE722
:103CD0001F0709F49ECD0C352CE7120709F441CDDE
:103CE0000A351C4709F046CD81E042CD80916F0234
:103CF0008272F801E052F847E531F10508F03ACD5B
:103D0000E453F54D0C945329F801E851FC47E73092
:103D1000F10508F0B4CFEF51F54D0C9453291F93E2
:103D2000CF93DF9380913202807F09F04BC0809166
:103D30002F02882309F446C080916402C0913302A7
:103D400040912D0250912E0260913002709131020B
:103D5000D42FD52316E0C817A9F190E0611571059D
:103D6000A9F1DF3F99F1189FF001199FF00D11247F
:103D7000DF01AC5CBD4F11962C911197251326C025
:103D80002C91241323C012962C91129721111EC03E
:103D900013962D913C91261B370B283C3105B0F42E
:103DA000809132028F70806180933202E75CFD4F18
:103DB00080818F70806180838DE292E00E9459192A
:103DC0000E94C908DF91CF911F91089501968770D5
:103DD000C2CFA1E1B0E0EFEEFEE10C94DE288C0151
:103DE00085E0F801DE011D9601900D928A95E1F7BC
:103DF000F801E2808DE2882E82E0982E4091300218
:103E0000509131024115510509F430C190912D02B4
:103E100020912E02892F82238F3F09F427C1D08061
:103E2000C180A380B480F0902F02B501641B750B94
:103E3000FF2009F4E7C080913202382F307F683CC0
:103E4000710508F0ABC0311178C0FE2C2C1114C0E4
:103E50009D1112C0E11010C08F70806180933202FA
:103E6000C4010E94591980913202F80185838F2D77
:103E70006196ECE00C94FA28A114B104C9F18D2DDF
:103E80008C218F3FA9F181E08E2580FF05C04E2D4A
:103E90006C2D8D2D0E94A908A114B10459F18D2D0E
:103EA0008C218F3F39F181E08E25F82FF170BF2EE4
:103EB00080FF39C04E2D6C2D8D2D0E94A908A82E93
:103EC000811131C0DD86CE868D859E850E940709D1
:103ED000292F22952F70243078F49F702230A8F07B
:103EE0009923B9F0F8019581907F99F4FA2CBFCF0E
:103EF00080E0CBCF80E0D9CF2A5F2F70223068F0EE
:103F0000C8010E945919AB2CF1CF992311F08823D5
:103F100069F3805E883050F3F3CF803F38F3815FE0
:103F2000833070F7E3CFEE2009F4A1CF8091320205
:103F3000816080933202F12C9ACF2C1105C09D1123
:103F400003C0EE2009F477C0C8010E94E30988236A
:103F500009F1EE20F9F080913202803270F0209168
:103F60002D0230912E0238872F831986BB86AA86B0
:103F70008C87CE0107960E94591986E0F801ADE2C0
:103F8000B2E001900D928A95E1F70E948F1EFF2406
:103F9000F3946DCFC8010E945919F9CF31110AC0AD
:103FA0008DE292E00E94591986E0F40111928A95FF
:103FB000E9F7C1CF2C110EC09D110CC0E1100AC051
:103FC0008583C8010E94591986E0F40111928A95EF
:103FD000E9F74DCFC8010E94E3098823D9F2EE200A
:103FE000C9F280913202803240F220912D0230914C
:103FF0002E023A8329831B82BD82AC828E83CE013E
:104000000196B9CF683C7105F8F6FE2CEE2011F24E
:104010002C111EC09D111CC08091320280FD0FC06A
:10402000982F907F61F08583903F31F0982F907F9B
:10403000905F8F70892B8583C8010E94591986E093
:10404000F801ADE2B2E001900D928A95E1F70FCF51
:10405000C8010E94E309811190CF809132028160F2
:1040600080933202C8010E94591901CFEE2009F451
:1040700091CFC8010E94E309F82E882309F48ACF62
:1040800086E0F801ADE2B2E001900D928A95E1F789
:1040900080912D0290912E020E9407090E948F1E8E
:1040A000E6CEA7E1B0E0E7E5F0E20C94E7284B8B21
:1040B0005C8B6D8B7E8B8F8B611110926E021A8AD6
:1040C000198A85E0FE017396DE011D9601900D921E
:1040D0008A95E1F786E0FE013D96DE011796019094
:1040E0000D928A95E1F7CE0107960E94E91E88237A
:1040F00059F016E08091640290913302891343C015
:104100006796E3E00C94032986E0FE013796DE0112
:10411000119601900D928A95E1F78A859B85892BEE
:1041200041F38F81988589238F3F19F320913302C2
:1041300030E0C901019687709927409164024817C1
:10414000190671F40E94CD14109233021092640289
:1041500086E0EDE2F2E0DF011D928A95E9F7C9CF32
:1041600096E0929FD001939FB00D1124AC5CBD4F9F
:10417000FE01319601900D929A95E1F780933302FA
:104180000E94C908B6CF819FC00111248C5C9D4F4D
:104190000E94E91E882309F4B3CF8091640290E065
:1041A00001968770992780936402A4CFAAE0B0E0BB
:1041B000ECEDF0E20C94E628182F062F662339F177
:1041C0000E9457041E832DEF2F8321E028878160F2
:1041D0009A8789874E815F81688579858A850E9463
:1041E00051200023C9F00E94570419832DEF2A8320
:1041F0001B8281609D838C8349815A816B817C8184
:104200008D810E9451202A96E4E00C9402290E949C
:1042100057041E832CEFD8CF0E94570419832CEF2C
:10422000E6CFA1E0B0E0E7E1F1E20C94E128EE2472
:10423000E394F12C0EE912E09E012F5F3F4F4EE810
:1042400052E063E082E00E94C611C82E882339F153
:1042500000E080E01DC0D090BE02D00E2D2D30E0D9
:10426000A9014A5F5C4F7A01E1E0F0E0EC0FFD1F2D
:10427000E00FF11D1081FA019081191BB12E1B1462
:104280009CF0912F17FD90E0191B111118C00F5FC2
:104290009091BD020917F8F281110E9499088C2DA6
:1042A0002196E9E00C94FD28BA94F70180818F5F94
:1042B000808360E08D2D0E94D6208C2DE0CF1F5F83
:1042C000F70180818150808361E08D2D0E94D6208E
:1042D0008C2DDBCFA5E0B0E0E0E7F1E20C94E6281E
:1042E0000E9457048C018091730290917402801790
:1042F0009107A1F08FEF89838A831B820E94570464
:104300008160782F9D838C8349815A816B818D8157
:104310000E94512010937402009373022596E4E0EA
:104320000C9402291F920F920FB60F9211242F9313
:104330003F934F935F936F937F938F939F93AF932D
:10434000BF93CF93DF93EF93FF93D091E900DF709A
:104350008091EC00C82FC17080FDC0E81092E90088
:104360008091F000877F8093F00078940E94E3149E
:104370001092E9008091F00088608093F000CD2BCE
:10438000CF70C093E900FF91EF91DF91CF91BF9182
:10439000AF919F918F917F916F915F914F913F91DD
:1043A0002F910F900FBE0F901F9018951F920F9294
:1043B0000FB60F9211242F933F934F935F936F93F8
:1043C0007F938F939F93AF93BF93EF93FF938091CE
:1043D000E10082FF09C08091E20082FF05C0809168
:1043E000E1008B7F8093E1008091DA0080FF24C0A0
:1043F0008091D80080FF20C08091DA008E7F80936A
:10440000DA008091D90080FF9DC080E189BD82E102
:1044100089BD09B400FEFDCF81E08093B90380918E
:10442000AC03811109C00E94DD020E947E038091CD
:10443000E20084608093E2008091E10080FF17C079
:104440008091E20080FF13C08091E2008E7F809314
:10445000E2008091E20080618093E2008091D800C8
:1044600080628093D80019BC85E08093B903809165
:10447000E10084FF2BC08091E20084FF27C080E12F
:1044800089BD82E189BD89B5982F917080FFFBCFEE
:104490008091D8008F7D8093D8008091E1008F7E3D
:1044A0008093E1008091E2008F7E8093E200809112
:1044B000E20081608093E2008091BA03882309F4CE
:1044C00047C084E08093B9038091B9038091E100F3
:1044D00083FF27C08091E20083FF23C08091E10029
:1044E000877F8093E10082E08093B9031092BA0342
:1044F0008091E1008E7F8093E1008091E2008E7FC9
:104500008093E2008091E20080618093E20042E0CB
:1045100060E080E00E944C038091F000886080930E
:10452000F000FF91EF91BF91AF919F918F917F919B
:104530006F915F914F913F912F910F900FBE0F9010
:104540001F90189519BC1092B9031092AC0374CF48
:104550008091E30087FD93E09093B903B5CF789401
:104560001F921FB61F9211248F939F93AF93BF93F7
:104570008091A8039091A903A091AA03B091AB03E5
:104580000196A11DB11D8093A8039093A903A09348
:10459000AA03B093AB03BF91AF919F918F911F90EE
:1045A0001FBE1F9018951F921FB61F9211248F9344
:1045B0009F93AF93BF938091A703811113C0809104
:1045C000A8039091A903A091AA03B091AB034196CF
:1045D000A11DB11D8093A8039093A903A093AA03E2
:1045E000B093AB03BF91AF919F918F911F901FBE6E
:1045F0001F901895CDB7DEB72E970FB6F894DEBF93
:104600000FBECDBF85B7806885BF85B7806885BF81
:1046100084B7877F84BF0FB6F894A8958091600017
:10462000886180936000109260000FBE80E890E087
:104630000FB6F89480936100909361000FBE83E3FE
:1046400096E09093EF018093EE010E94DD020E94BC
:104650007E038091E20084608093E20078948091F0
:10466000B9038823A1F01091E9001F709091EC002C
:10467000892F817090FD80E8182B1092E9008091BD
:10468000E80083FD0E94E3141F701093E90082E0AC
:1046900084BD93E095BD9AEF97BD80936E00109214
:1046A000B9021092BA021092BB021092BC02879813
:1046B0008F988FE891E00197F1F700C000008FB16B
:1046C000881F8827881F80934A0180914A01882388
:1046D00009F461C01092630188E0809364010E9434
:1046E000BC0D81110E94762790914A0181E09827A4
:1046F00090930A03A82FA91BA093BE0290914A0190
:1047000080930B0390914A018093BD0280914A01EE
:10471000811106C086E98093540184E98093530196
:1047200020915401E22FE295EF70F0E061A12F702B
:1047300081E090E0AC0101C0440F2A95EAF7342FE4
:104740003095362331A322A1242B22A3209153019B
:10475000E22FE295EF70F0E031A12F7001C0880FD9
:104760002A95EAF7982F9095932391A392A1892BEC
:1047700082A38FE891E00197F1F700C0000010914B
:104780000B036CE073E044E551E083E5E82E81E043
:10479000F82EFB012CC088E0809363019ECFDA01E4
:1047A0002D91AD01822F82958F7090E0DC01909663
:1047B0008C9190E02F7002C0959587952A95E2F72D
:1047C0008170D7019D917D01292F22952F7030E0B6
:1047D000D90190962C9130E09F7002C035952795B5
:1047E0009A95E2F790E020FD92E0892B81938E2F3D
:1047F000861B8117A0F280914A0181112CC085E0AF
:10480000E9E6F1E0DE011A9601900D928A95E1F752
:104810008A85809345018B85809346018C858093A2
:1048200047018D85809348018E858093490189E0F9
:10483000EEE6F1E0DE01119601900D928A95E1F726
:10484000FE013196ACE3B1E0CE010A9621912D93A1
:10485000E817F907D9F780914A0195E0811190E0B6
:104860009093D40285E0891B8093D30205E411E084
:10487000F80181918F018F3F11F00E943506F1E020
:104880000A341F07A9F70CE311E055E4E52E51E0C7
:10489000F52ED8018D918D018F3F11F00E943506C4
:1048A000E016F106B1F784E1EAEDF2E0DF01282F2E
:1048B0001D922A95E9F7EFEBF2E0DF011D928A9550
:1048C000E9F7269A90E080E00E94F529873E9E4F06
:1048D00011F00E94A31882E090E00E94E7298093E3
:1048E000EE0284E090E00E94F5299093D802809334
:1048F000D70283E090E00E94E72990E00E94DE0961
:10490000259A2D9882E88093800089E18093810028
:104910008FEF9FEF90938700809386000E94181975
:104920000E9418198091D90281113BC090E080E06B
:104930000E94F529873E9E4F21F00E94A3180E94F5
:10494000A51088E090E00E94EF2960939B0370938C
:104950009C0380939D0390939E0380911703836033
:10496000809317036E7F71F40E94A51088E090E099
:104970000E94EF2960939B0370939C0380939D0397
:1049800090939E030E948E050E94870580919B0351
:1049900080FF04C060E086950E943D1081E0809316
:1049A000D9020E94BC0D811102C00E9479278BE4BC
:1049B00091E09093A4038093A30330E4232E44E07A
:1049C000642E712C8091B90300E112E1853009F465
:1049D0009BC00E9497129FEEA92E92E0B92E2AED5D
:1049E000822E22E0922E43E053E0D401F501219182
:1049F00031918D919D914E175F0709F493C028174F
:104A00003907A9F30E94BC0D382E512CF4010191F5
:104A100011914F01D501CD90DD905D01C016D106F9
:104A200069F1C026D126412CEE24E394F12CC70174
:104A30008C219D21892BC1F03320B1F049825A820B
:104A400021E0C70180239123892B09F420E02B83E7
:104A50000E9457048160782F9D838C8349815A81FD
:104A60006B818D810E9451204394EE0CFF1CB9E0B4
:104A70004B12DDCFF5013297118300835394EAE0A6
:104A80005E12C4CF0E944B0453C08091B90384309E
:104A900049F180E00E94DD0480E00E940D0A10923E
:104AA000A70388E190E00FB6F894A8958093600082
:104AB0000FBE2092600083B7817F846083BF83B77D
:104AC000816083BF7894889583B78E7F83BF0FB64C
:104AD000F894A8958091600088618093600010929E
:104AE00060000FBE8091B803882371F00E94971276
:104AF000EAEDF2E081919191892B09F089C1AEEE46
:104B0000B2E0AE17BF07B1F78091B903853009F461
:104B1000BCCF0E94CD140E9418190E94DF0D0E9484
:104B20000D0A57CF2817390709F06CCF0E946A2168
:104B30000E94BC0D80911603882309F464C0809103
:104B40001503E0919B03E695E81BE0931103823087
:104B500009F073C0F0E0EB5CFD4FE4910E2F10E024
:104B6000A5E7EA2EADE0FA2E80911203882361F0CA
:104B7000109212030E940A0E9093100380930F0369
:104B800010921403109213030E940A0EE0910F0377
:104B9000F09110039C012E1B3F0B2F3F3F4798F5D0
:104BA000209105032223B1F0109205032091030305
:104BB00030910403821B930B8F3F9F4758F4205D75
:104BC0003A483093040320930303809117038860CD
:104BD00080931703C0901303D0901403E00FF11FCC
:104BE000F0931003E0930F038FE093E0F701099532
:104BF0008091130390911403892B29F4CD2819F087
:104C000081E080930503E12CD12C80910B03E81601
:104C100008F47FC0D1100E9499080E94DF0D182F60
:104C200080910E03181709F4CDCE10930E030E9445
:104C30004B04812F0E940D0AC5CE863059F4F0E056
:104C4000EE5CFD4FE4910E2F10E0F5E6EF2EFDE057
:104C5000FF2E8ACF893061F4E695F0E0E15DFD4FEB
:104C6000E4910E2F10E0EEEBEE2EECE0FE2E7CCF6A
:104C70008F3061F4E695F0E0E45DFD4FE4910E2F96
:104C800010E078E3E72E7CE0F72E6ECF853159F403
:104C9000F0E0E75DFD4FE4910E2F10E063EBE62EB0
:104CA0006BE0F62E61CF08E210E031E3E32E3BE04B
:104CB000F32E883109F458CF833249F4E7E2F2E069
:104CC0000591149154E1E52E5DE0F52E4DCF04EFF2
:104CD00011E024EFE22E2AE0F22E843209F444CFD0
:104CE00000ED17E097E3E92E94E0F92E853209F004
:104CF0003BCF8E2F63E00E941F29E92FF0E0EC5D8F
:104D0000FD4FE4910E2F10E04EE4E42E4EE0F42E21
:104D10002BCF0E2D10E0F801EC5AFE4F8081E82FCA
:104D2000E295EF70F0E0E0A1F0E08F7002C0F59541
:104D3000E7958A95E2F7E170D801AD5ABE4F2C9104
:104D4000A22FA295AF70B0E090968C9190E02F705A
:104D500002C0959587952A95E2F780FD51C080E0C5
:104D60008E2BD801A45FBC4FEC919E2F93708917B6
:104D700009F444C0EE0FEE0FE82BEC93F0900A0319
:104D8000FE0CEF70F0E0EE54FE4F085F1C4F808188
:104D9000D8019C91890F8C93C12C843084F0EF2D25
:104DA000F0E0EA5FFC4F80818F5F80830E94BC0D42
:104DB000C82E882339F160E08F2D0E94D620F8019B
:104DC00080818D3F84F4EF2DF0E0EA5FFC4F80811D
:104DD000815080830E94BC0DC82E8823B1F061E011
:104DE0008F2D0E94D620D8018C91082E000C990B93
:104DF000B3010E943F29F8018083DC28E39405CFAA
:104E000082E0AECFCC24C394DACFCC24C394EBCFD2
:104E100009BD19BD09B400FEFDCF8091D8008F7D7A
:104E20008093D8008091E00082608093E0008091C0
:104E3000E00081FDFCCF0E94CD1466CE8EE1489B40
:104E400002C08150E1F7489BFECF0895589880E258
:104E50008A95F1F7589A0895FC013BE03A95F1F7ED
:104E600098E020E080E031E040E14A95F1F7880FDA
:104E7000489B02C08160232742E04A95F1F7000079
:104E800040E14A95F1F7915079F790E19A95F1F761
:104E900099B132E03A95F1F7000040E14A95F1F717
:104EA000917092272081920F90830895A1E0B0E045
:104EB000ECE5F7E20C94E42819828C017C01E60E03
:104EC000F11C0E151F0541F481E09981911180E0DC
:104ED0002196E6E00C9400290E941E27CE0101963F
:104EE0000E942C27F80181938F01EBCF509A589A9A
:104EF00008955098589AE89AE9E6F0E080818C7F0E
:104F0000808308956150770B91E001C0990F6A95F5
:104F1000EAF720E031E0911108C0222391F0589A7D
:104F200080E28A95F1F758980895492F482339F07F
:104F3000589A232740E24A95F1F79695ECCF589876
:104F4000F9CF5898EDCFFF920F931F93CF93DF9334
:104F5000EC018C01060F111DC017D10729F4CDB744
:104F6000DEB7E5E00C940129F9900E94262768E05D
:104F70008F2D0E948227F0CF1F920F920FB60F92B3
:104F800011240F931F932F933F934F935F936F932E
:104F90007F938F939F93AF93BF93EF93FF93CF93A1
:104FA000DF930F92CDB7DEB719820E941E27CE0184
:104FB00001960E942C27082F069506950695282F06
:104FC00022952570902F9570290F922F937026951A
:104FD0002695920F982797708981982B09F05CC0CD
:104FE000083008F059C080E18A95F1F7589A509A34
:104FF00082E08A95F1F700C0589888E0089F800108
:105000001124D801AC5FBE4F1696ED91FC91179715
:105010003097A9F06091B0017091B10114962D9173
:105020003C911597260F371F11968D919C911297E1
:10503000680F791F13964C9113978C910995F8017D
:10504000EC5FFE4F6381662351F02091B0013091F7
:10505000B10184819581820F931F0E94A3270E9432
:10506000262780E18A95F1F758985098589A80E160
:105070008A95F1F7F801EC5FFE4F6081662351F0ED
:105080002091B0013091B10181819281820F931FF3
:105090000E9456270E941E270F90DF91CF91FF910B
:1050A000EF91BF91AF919F918F917F916F915F91A0
:1050B0004F913F912F911F910F910F900FBE0F9025
:1050C0001F9018950F931F93CF93DF93EC010897D0
:1050D0000CF04CC0F894509A589885E08A95F1F7F6
:1050E00000009C2F969595708C2F8570980F892FB6
:1050F00083709695969523E0CC0FDD1F2A95E1F7F6
:10510000980F8E01092B0E94262700C068E0802F8F
:105110000E94822780E18A95F1F75098589A489B1F
:105120001EC087E090E048991CC0FE01EC5FFE4F76
:1051300063816623F9F02091B0013091B10184813F
:105140009581820F931F0E945627811113C0509A98
:10515000589A7894DF91CF911F910F91089500C0D4
:10516000DECF019729F4509A589A789480E0F2CFD4
:1051700000C0D9CF0E941E2780E28A95F1F7589887
:10518000509A80E18A95F1F7CC5FDE4F6881662303
:1051900051F02091B0013091B10189819A81820F43
:1051A000931F0E94A3270E942627789481E0D2CFE4
:1051B0002F923F924F925F926F927F928F929F9227
:1051C000AF92BF92CF92DF92EF92FF920F931F9315
:1051D000CF93DF93CDB7DEB7CA1BDB0B0FB6F894C6
:1051E000DEBF0FBECDBF09942A88398848885F8406
:1051F0006E847D848C849B84AA84B984C884DF8077
:10520000EE80FD800C811B81AA81B981CE0FD11D5A
:105210000FB6F894DEBF0FBECDBFED010895DB01E0
:105220008F939F930E944E2ABF91AF91A29F800DB2
:10523000911DA39F900DB29F900D11240895991B6D
:1052400079E004C0991F961708F0961B881F7A957D
:10525000C9F780950895AA1BBB1B51E107C0AA1F7F
:10526000BB1FA617B70710F0A61BB70B881F991F07
:105270005A95A9F780959095BC01CD01089597FBAB
:10528000072E16F4009407D077FD09D00E942B2931
:1052900007FC05D03EF4909581959F4F0895709539
:1052A00061957F4F0895EE0FFF1F0590F491E02D5B
:1052B00009940E94832A332312F48A1B9B0B0C94BB
:1052C00063290E94832AB7FF0895821B930B0895D8
:1052D0008F929F92AF92BF92CF92DF92EF92FF9206
:1052E000CF93DF93EC01688179818A819B8161157D
:1052F00071058105910521F464E279ED8BE597E074
:105300002DE133EF41E050E00E942F2A49015A017C
:105310009B01AC01A7EAB1E40E944E2A6B017C011B
:10532000ACEEB4EFA50194010E945C2ADC01CB0134
:105330008C0D9D1DAE1DBF1DB7FF03C00197A109B8
:10534000B04888839983AA83BB839F77DF91CF91ED
:10535000FF90EF90DF90CF90BF90AF909F908F9095
:1053600008950E946829089580E091E00E946829CC
:105370000895B0E0A0E08093000190930101A09314
:105380000201B09303010895FC014150504030F0F8
:1053900001900616D1F73197CF01089588279927F4
:1053A0000895FB01DC0104C08D910190801921F466
:1053B00041505040C8F7881B990B0895FB01DC0150
:1053C00002C001900D9241505040D8F70895F999CC
:1053D000FECF92BD81BDF89A992780B50895A6E1C8
:1053E000B0E044E050E00C94212AA8E1B0E042E0B3
:1053F00050E00C94212A262FF999FECF92BD81BD51
:10540000F89A019700B4021639F01FBA20BD0FB602
:10541000F894FA9AF99A0FBE08950396272F0E94DE
:10542000FC290E94FB29252F0E94FC29242F0C9483
:10543000FC290196272F0E94FC290C94FB29DC01F2
:10544000CB01FC01F999FECF06C0F2BDE1BDF89A8F
:10545000319600B40D9241505040B8F70895052E92
:1054600097FB1EF400940E94462A57FD07D00E9425
:10547000612A07FC03D04EF40C94462A50954095BF
:10548000309521953F4F4F4F5F4F089590958095F0
:10549000709561957F4F8F4F9F4F08950E94832A8B
:1054A000A59F900DB49F900DA49F800D911D112478
:1054B0000895B7FF0C944E2A0E944E2A821B930B2C
:1054C0000895A1E21A2EAA1BBB1BFD010DC0AA1F45
:1054D000BB1FEE1FFF1FA217B307E407F50720F05D
:1054E000A21BB30BE40BF50B661F771F881F991FD8
:1054F0001A9469F760957095809590959B01AC0121
:10550000BD01CF010895A29FB001B39FC001A39F29
:10551000700D811D1124911DB29F700D811D1124EC
:10552000911D0895F894FFCFC215EA158217EA1568
:1055300082171D163E1682173B174817821AF71A54
:105540008A1A541A581A8E1A5C1A921A9E1A681AD3
:10555000F01A6C1AA21A701AA61ACE1A741AAA1A7B
:10556000D51A7A1AB01AB81A601A961A641A9A1AC0
:105570007E1AB41AC41ADE1AEE1A4E1A861AFE1AC7
:10558000101C101C481C481CEF1C741C741C741C40
:105590000B1D931DA21DA21D071B291B301B351BB4
:1055A0003A1B3F1B441B491B4E1B531B581B5D1BC7
:1055B0005F1B641B671B6A1B6D1B701B721B751BBB
:1055C000771B351A391A2A1A311A3D1A411A451A07
:1055D0000100000000000001000000000000000ABF
:1055E00001000000000000010B00000000000001AD
:1055F0000C000000040D000000000000011100007C
:10560000000000000812000000000000F4F1F03774
:10561000339293959431326734970139045A0A389A
:1056200004530AF6F501191A1B1C1D1E1F20212206
:105630000102010010001010013332363497F1F0EE
:10564000F4F5F695679337818283E200E900EA007A
:10565000B500B600B700CD008301CC008A019201ED
:1056600094012102230224022502260227022A0293
:10567000B300B4006F0070009F01CB019F02A00235
:10568000920200FF0100010000FFFF000001000185
:10569000FF000001020202020606060909090909C3
:1056A000090F0F0F0F0F0F151515181919191919C3
:0E56B00019191919192324252525252525004A
:00000001FF
