:100000009CC200000C94FF24D1C20000CFC20000AB
:10001000CDC20000CBC20000C9C20000C7C20000B0
:10002000C5C20000C3C200000C943D230C942524DB
:100030000C94F222BBC20000B9C20000B7C200009B
:10004000B5C20000B3C20000B1C20000AFC20000E0
:10005000ADC200000C941923A9C20000A7C2000081
:10006000A5C20000A3C20000A1C200009FC2000000
:100070009DC200009BC2000099C2000097C2000010
:1000800095C2000093C2000091C200008FC2000020
:100090008DC200008BC2000089C2000087C2000030
:1000A00085C2000083C2000081C2000005010980F2
:1000B000A101850319012AB700150126B700950192
:1000C00075108100C0050C0901A101850419012AE0
:1000D000A002150126A002950175108100C005013E
:1000E0000906A101050719E029E715002501950872
:1000F000750181029501750881010507190029FF25
:10010000150026FF009506750881000508190129CC
:10011000051500250195057501910295017503915D
:1001200001C009023B00020100A0FA09040000011D
:10013000030101000921110100012244000705818A
:100140000308000109040100010300000009211156
:100150000100012232000705820320000112010084
:10016000020000000810CB573310030102000122E7
:10017000035100750065006600720065006E006343
:1001800000790020005200650076002E0020003328
:100190000000000E034B0065006500620069006FFF
:1001A000000000040309042223252628292A2C2DD7
:1001B0002F3032333536383A3B3D3E404243454797
:1001C000494A4C4E5051535557595A5C5E606264CF
:1001D0006668696B6D6F71737577797B7D7F8183DD
:1001E0008587898A8C8E90929496989A9C9E9FA1DE
:1001F000A3A5A7A8AAACAEAFB1B3B4B6B8B9BBBCFF
:10020000BEBFC1C2C3C5C6C7C9CACBCCCDCED0D173
:10021000D2D2D3D4D5D6D7D7D8D9D9DADADBDBDB6B
:10022000DCDCDCDCDCDDDDDDDDDCDCDCDCDCDBDB0C
:10023000DBDADAD9D9D8D7D7D6D5D4D3D2D2D1D060
:10024000CECDCCCBCAC9C7C6C5C3C2C1BFBEBCBB5D
:10025000B9B8B6B4B3B1AFAEACAAA8A7A5A3A19FD5
:100260009E9C9A98969492908E8C8A898785838199
:100270007F7D7B79777573716F6D6B69686664627A
:10028000605E5C5A5957555351504E4C4A49474548
:100290004342403E3D3B3A3836353332302F2D2CE9
:1002A0002A292826252322FFAA7F55400102030C74
:1002B0000D0E0F00070605040B0A090800010101D5
:1002C0000101010101010202020202020202020313
:1002D00003030303030303040404040404040505E3
:1002E00005050506060606060707070707080808A6
:1002F00008090909090A0A0A0B0B0B0C0C0C0D0D55
:100300000D0E0E0E0F0F0F101011111112121313EC
:100310001414151516161717181819191A1A1B1B65
:100320001C1D1D1E1E1F20202122222324242526C1
:1003300026272829292A2B2C2D2D2E2F30313232F9
:10034000333435363738393A3B3C3D3E3F40414205
:10035000434445464748494A4C4D4E4F50515354EB
:10036000555658595A5B5D5E5F616264656668699F
:100370006B6C6D6F7072737577787A7B7D7E80821F
:10038000838587888A8C8E8F91939596989A9C9E68
:10039000A0A2A3A5A7A9ABADAFB1B3B5B7BABCBE78
:1003A000C0C2C4C6C9CBCDCFD1D4D6D8DBDDDFE245
:1003B000E4E7E9EBEEF0F3F5F8FAFDFF1E0F0500B8
:1003C000047F3F1F643214643214783C1E1E140AEA
:1003D000050100AE00167C1E001F00200021002237
:1003E000002300AC00AB002B0014001A000800151D
:1003F00000170000003E003F00390004001600070F
:100400000009000A000000A800B200E10000001D81
:10041000001B0006001900050029031303E000215A
:1004200052E300E20000002C00000024002500261A
:100430000027002D002E004C002A0049001C001847
:10044000000C00120013002F00300031004C000B94
:10045000000D000E000F0033003400000028004A99
:1004600000110010003600370038000000E500528F
:10047000004D002C002C00E600E400E700000050D6
:100480000051004F000100010001003A003B003C18
:10049000003D003E003F000100010001000100019D
:1004A0000001000100010000000100010001000145
:1004B0000001000100010001000000010001000135
:1004C0000000000100010001000100010001000125
:1004D000000100010005780100000001000000405B
:1004E00000410042004300440045000100010001BA
:1004F00000010001005200010001000100010001A3
:100500000001000100500051004F000100010000F7
:1005100000010001000100010001000100010000D4
:1005200000010001000100010001000100010001C3
:100530000000000100010001000011241FBECFEFE8
:10054000DAE0DEBFCDBF04B603FE19C080911F0400
:1005500090912004A0912104B09122048730904B07
:10056000A740B04B61F410921F0410922004109227
:10057000210410922204E0E0F8E3099500C024E091
:10058000A0E3B2E001C01D92AF31B207E1F712E083
:10059000A0E0B1E0E4EDFFE402C005900D92A033CD
:1005A000B107D9F70E94FA1E0C94AA2729CD909181
:1005B0007501911529F081FD02C02E9A08952E989B
:1005C00008958093D6039093D70308958093D8031A
:1005D0009093D903089521E030E002C0220F331F29
:1005E0008A95E2F78091D8039091D903822B932BBF
:1005F000EDCF21E030E002C0220F331F8A95E2F7F1
:10060000209530958091D8039091D903822393232C
:10061000DDCF9A3090F5893080F5E82FF0E089E061
:10062000989FE00DF11D112451E0E1FD54E0E0FD43
:10063000550FE2FD529583E0F695E7958A95E1F72F
:10064000EE0FFF1FEE0FFF1FEB56FC4F20E030E0D8
:1006500070E04191DF01CB01022E02C09695879593
:100660000A94E2F78695880B8427852384278E9346
:100670002F5F3F4F2430310561F70895292F9A30BD
:1006800070F5893060F590E039E0239F800D911D71
:100690001124682F677023E0969587952A95E1F7D6
:1006A000FC01EE0FFF1FEE0FFF1FEB56FC4F40E06B
:1006B00050E080E0219130E0062E02C0369527956B
:1006C0000A94E2F72170042E01C0220F0A94EAF77F
:1006D000822B4F5F5F4F4430510561F7089580E0F2
:1006E0000895E091DF039091DE03E91302C080E0FA
:1006F00008959F0157E0E59FF0011124E052FC4F5F
:100700005181561306C05081581303C055815413AC
:1007100005C02F5F3F4FF901E770E7CF81E00895F3
:100720008091DF032091DE03281301C00895019614
:100730008770FACF9091DA03809589238093DA034A
:10074000282F277061F4891751F09091DC0392FFF4
:1007500006C08695869586954CDF1092DA0308953B
:100760008095982F8091D30389238093D303089594
:10077000972F7A30E8F46930D8F421E08230C8F459
:1007800070E029E0929F600D711D112490E0919519
:10079000819591098A7590E0FC01E60FF71FEE0F35
:1007A000FF1FEF52FC4F85919491282F822F0895BF
:1007B00020E090E0FBCF803E9105D1F1C8F4813379
:1007C000910509F481C048F48932910509F471C09A
:1007D0008A32910509F47FC0089589339105E1F0CB
:1007E00082389105C9F08533910509F45DC00895FB
:1007F000843E9105D1F148F4823E910531F1833E6A
:10080000910541F181EE90E00895863E9105C1F198
:10081000873E9105F1F108952091DB03237009F0E3
:1008200064C02091DC0323FF14C089E290E00895A6
:100830002091DB0320FD45C03091DC0330FF09C06F
:1008400024FD24C083EE90E008952091DB0322FD77
:10085000F7CF08952091DB0322FD44C03091DC03E3
:1008600030FD43C024FFF5CF11C02091DC0321FFF0
:10087000F0CF8091DB0384FD09C087EE90E00895FE
:100880002091DB0323FFE5CF24FFF7CF80E090E04A
:1008900008952091DB0323FD2BC03091DC0331FF51
:1008A000E1CF84EE90E008952091DB0325FFD1CFC6
:1008B000BCCF2091DB0325FD1EC02091DC0323FF6C
:1008C000C8CF89E390E008952091DB0326FFC1CFD4
:1008D0008AE290E008952091DB0326FFBACF81E3FE
:1008E00090E0089582EE90E0089580EE90E0089503
:1008F00086EE90E0089585E390E008959091DB0303
:1009000092FF10C041E0282F2471243009F040E00C
:1009100031E0282F2871283009F030E0431711F01A
:100920002CE0822793FF10C041E0282F247124314E
:1009300009F040E031E0282F2871283109F030E03B
:10094000431711F02CE082273091DC0330FF10C0F8
:1009500051E0282F2171213009F050E041E0282F8B
:100960002871283009F040E0541711F029E082275F
:1009700031FF10C041E0282F2171213109F040E002
:1009800031E0282F2871283109F030E0431711F0A9
:1009900029E0822794FD877E08950F931F93CF93BC
:1009A000DF9309DFEC01D23508F04DC0D03508F0F7
:1009B000C3C0C03ED10530F5CD3CD10508F09AC08A
:1009C000C83AD10578F4C53AD10508F090C0C130D5
:1009D000D10599F1CE010497813A910570F1C0E0FB
:1009E000D0E02BC0CE01885A91094B97C0F7C85A66
:1009F000D0E0CC0FDD1FCD53DE4F0990D881C02D44
:100A0000D4641BC0D03490F4D03208F0A8C0C83EE3
:100A1000D10598F0CE0191509F3108F78D2F6EDFF0
:100A2000082F8C2F90E0C7DE902B54C08C2F90E0C5
:100A3000C2DEDF70C82FD92BD06ACE01DF91CF91F3
:100A40001F910F910895C03882E5D807B8F5C036D8
:100A500082E5D80708F056C0C03482E5D807C8F44C
:100A6000C03282E5D80708F047C08C2F869586955E
:100A700020E2829FC0011124C37021E030E002C057
:100A8000220F331FCA95E2F7E901C82BD92BDD6885
:100A9000D4CF8C2F86958695877020E2829FC001E7
:100AA0001124C37021E030E002C0220F331FCA9529
:100AB000E2F7E901C82BD92BDC68BFCFC03C82E547
:100AC000D80750F48C2F8F71C03AD24580F5982FFB
:100AD00084EF906AEC01B1CFCE01805C92458097A3
:100AE00008F07DCFDC2FDF71C0EFD06AA6CFA497CE
:100AF000D064A3CFD065A1CF8C2F8F71D82FC1EF39
:100B0000D06A9BCF8C2F86958695877020E2829F36
:100B1000C0011124C37021E030E002C0220F331F56
:100B2000CA95E2F7E901C82BD92BDA6886CFE6DE51
:100B3000C0E0D82FD06281CF8C2F8F71DFDE93E0A1
:100B4000CC0FDD1F9A95E1F7DF70282F84FF04C0DA
:100B500090E1899F90011124C22FD0696ECF8D2F13
:100B60008F71CCDE082F8C2F90E025DE902BEC01CE
:100B7000E1CFCF92DF92FF920F931F93CF93DF933A
:100B80006C010091D8031091D9038091D603909104
:100B9000D703082B192BCFE0D0E081E090E00C2E9A
:100BA00002C0880F991F0A94E2F780239123892BB2
:100BB00061F4219790F7F12C8F2DDF91CF911F9148
:100BC0000F91FF90DF90CF900895FC2EB6018C2FEF
:100BD000CFDDE3DE019769F3EFCF0F931F93CF9340
:100BE000FC01258100811181C801211571F0611579
:100BF00061F0BFDFC82F682FC8010BDDB8018C2F53
:100C0000B7DDCF911F910F91089538DDC82FF6CF32
:100C1000CF93DF93EC01ADDFBE01AADDBEDEDF9135
:100C2000CF910895FC012481211599F08081918153
:100C3000EFDF282F92959F70963099F060F4925FC5
:100C40009F70923030F4203FB1F038F481E0283EBC
:100C500038F080E008959A5FF3CF81E0243FC9F730
:100C6000089591E0213F09F090E081E0283E08F0EE
:100C700080E0892B089581E0089580E00895F8943C
:100C8000E82FE295EF70F0E041A18F7021E001C004
:100C9000220F8A95EAF7922F9095942391A392A11F
:100CA000822F892B82A37894089581E08093080392
:100CB00008950895CF92DF92EF92FF921F93CF9302
:100CC000DF93462F172FE82FF0E0E454FD4F71110A
:100CD0000CC0E4918E2F7E2F6E2FDF91CF911F914C
:100CE000FF90EF90DF90CF900895F491EF2F86E082
:100CF000689FE00111242FEF30E0CE01B9010E947E
:100D00006226DB01CA01880F991F65E56A9FA00171
:100D10006B9F500D1124841B482F440F480FC901AD
:100D2000811B9109F89F7001F99FF00C11248F2D00
:100D3000149FB0011124672F70E06901C61AD70A09
:100D4000B601F69F6001F79FD00C1124A330B105C6
:100D500049F1B901641B7109AB01149FB001159FE2
:100D6000700D1124672F70E0261B370BF29FA00136
:100D7000F39F500D1124752FCC3FD34050F4A13078
:100D8000B105A1F0129709F0A7CFEF2D852F7F2F86
:100D9000A3CFA430B10569F0169709F49DCF7F2D3C
:100DA0008D2D9ACF7D2DEF2D8F2F96CF7F2FED2D6F
:100DB00093CFE52F7F2DF8CFCF93DF93762FC22FE0
:100DC000682F842F77DF472FEC2FF0E0E455FD4F9D
:100DD000E49190911601E91B282F8E2F90E072D399
:100DE000DF91CF910895CF938091CB0380FF03C013
:100DF000CED5CF910895C091180180911901C817DF
:100E0000B8F7EC2FF0E0E455FD4FE4918091160126
:100E1000E81B20E040E060E08E2F90E053D3CF5FEE
:100E2000ECCF0F931F93CF93DF93D82F162F042F60
:100E30008091CB03C091180180FD14C0DF91CF9148
:100E40001F910F910895EC2FF0E0E455FD4FE491D0
:100E500080911601E81B202F412F6D2F8E2F90E0DF
:100E600031D3CF5F80911901C81768F3BCDFE6CF9B
:100E7000762F9091CB0390FF08C0682F842F1ADF44
:100E8000962F672F482F892FCCCF0895CF93DF93CC
:100E9000EC01EBECF3E0438162818C81E9DF8C8132
:100EA0008F5F8C83DF91CF9108951092C903809159
:100EB000CA0384608093CA030895CF93DF93EC0143
:100EC000EC81F0E0E955FE4F4491EBECF3E06281F8
:100ED0008181CEDF8C818F5F8C83DF91CF910895EC
:100EE0000F931F93CF938C01C0E060911A01C61736
:100EF00068F079DFF8018481928190FF1DC08F5FD7
:100F0000F8018483CF911F910F91089520911801CA
:100F10002C0F3327331F70E08FEF90E00E9476266E
:100F2000F80184814091CE03C69F800D1124609109
:100F3000CD0342DFCF5FD9CF8150E2CFA0E0B0E058
:100F4000E4EAF7E00C941326EC018A8101E080FDCD
:100F50000FEF8C81811109C0013019F480911A01C1
:100F600081508093D80281E08C8310E080911A0137
:100F70001817B0F038DF9091D802013009F053C053
:100F800080911A018150911519F0892F815091E0BB
:100F90008093D8029C83CDB7DEB7E9E00C942F266E
:100FA000E0911801E10FF0E0E455FD4FE4918091EC
:100FB0001601E81B20E040E060E08E2F90E082D236
:100FC00094E0E92EF12CB12CC12ED12C8091D802C5
:100FD0008B0D813114F18F70082E001C00088C15C8
:100FE0000D04A1F4809118019601280F311D409144
:100FF000CE035E2D5403A0011124559547955595B8
:1010000047956091CD038091CC03D6DEB00E81E090
:10101000E81AF108D9F61F5FA9CF87FFDDCF9091BD
:101020001A01890FD9CF892F90E0019660911A019A
:1010300070E00E947626982FABCF1F93CF93DF935B
:10104000EC018C81811109C081E08C831092D70260
:1010500092E0909306018093050110911801809110
:101060001901181740F110E060911A01161798F154
:10107000BADE809105019091D702980F9093D70224
:1010800020910601280F20930601121654F4209196
:101090001A012150330B092E001C00089217030679
:1010A00034F0819580930501813009F41C82DF9131
:1010B000CF911F910895E12FF0E0E455FD4FE491A9
:1010C00080911601E81B20E040E060E08E2F90E068
:1010D000F9D11F5FC4CFE12FF0E070E0CF010E9493
:1010E000762620911801280F8091D70230E0082E33
:1010F000001C0008E817F0058CF080910601082E0E
:10110000001C00088E170F064CF04091CE03609132
:10111000CD038091CC0350DE1F5FA6CF24553D4FF9
:10112000F901E49180911601E81B20E040E060E0C5
:101130008E2F90E0C7D1F0CFA0E0B0E0E2EAF8E077
:101140000C941226EC01FC812F2F30E0D9010E9473
:1011500079279B01AC010E9469277B018C0180E209
:1011600090E08F1B9109FC01A5E59701A8010E9461
:1011700069275B016C019F01DF010E9441269B01F1
:101180000E948F269B01AC012E0D3F1D401F511F59
:10119000B501C6010E948827022F30E00A3220F5EF
:1011A000A901440F551F420F531F55954795142F02
:1011B0001095F12C85E5801BE82E80911A01F81618
:1011C00000F111DE9C8181E0911519F0903219F443
:1011D0008FEF8093040180910401890F8C83CDB738
:1011E000DEB7EAE00C942E2685E590E0821B930B97
:1011F000AC01440F551F480F591FBAF64F5F5F4FA0
:10120000D4CF8E2DF1FC802F209118012F0D332784
:10121000331F412F6091CD03CFDDF394CECFCF9319
:10122000DF93EC012091CE039C81892F817090FD8A
:10123000822F692F627091FD622F492F447092FDB9
:10124000422FEFDD8C81019687708C83DF91CF91E7
:1012500008950F931F93CF93DF938C01C0E0D0E0EC
:1012600090911A01C917D1055CF0BDDDF8018481A8
:10127000019681708483DF91CF911F910F91089522
:10128000F8014481809118019E01280F311D609161
:10129000CD038091CC039695C917D1053CF4411537
:1012A00039F04091CE0388DD2196DACF4115C9F39C
:1012B00040E0F9CF0F931F93CF93DF93843080F5F5
:1012C00081112FC0909180009F7790938000209192
:1012D000860030918700A82FB0E00E94792723E094
:1012E00030E040E050E00E948827E901FA01809157
:1012F0008600909187006CE070E00E946226621781
:10130000730798F0C90169E070E00E94622670934B
:10131000890060938800DF91CF911F910F9108950C
:1013200083E0909180009068D0CF8091860090916A
:1013300087002091860030918700890120918600E6
:101340003091870066E070E00E946226C60FD71FCA
:10135000E11DF11D85E0CC0FDD1FEE1FFF1F8A95FB
:10136000D1F7C80166E070E00E94622640E050E0DC
:10137000260F371F411D511DBE01CF010E94882736
:10138000E901FA0180918600909187008C01B901F2
:10139000CA010E9447269B01AC01D8010E9469271F
:1013A0009B01AC01BE01CF010E944726770FBB27EE
:1013B000AA27881F991FAA1F2091860030918700B5
:1013C000281739071A061B0620F480918600909191
:1013D0008700BC019CCF843008F083E02091C503D6
:1013E0002770982F990F990F990F922B9093C503FF
:1013F00021E0983008F420E09091C50320FB90F99B
:101400009093C50357CF90914C03292F30E07091F2
:101410004D03A9014395437050E07417150689F0F8
:10142000265B3C4F60FB87F9F90184839F5F9370D3
:1014300090934C0380914A038F5F80934A0381E02D
:10144000089580E0089590E06115D1F0855E9E4F8B
:10145000FC0180818F3F99F0E82FE295EF70F0E07A
:1014600041A18F7021E001C0220F8A95EAF7922FE7
:101470009095942391A392A1822F892B82A3089502
:10148000845E9E4FE5CF90E06115A9F0855E9E4F8A
:10149000FC0120812F3F91F0E22FE295EF70E05E9A
:1014A000F0E0808190E02F7002C0959587952A9595
:1014B000E2F781700895845E9E4FEACF80E0089540
:1014C0006E9A0895FC01EE0FFF1FE80FF91FE95A0D
:1014D000FD4F6183408322830895FC01680F791FCB
:1014E0008FEF41E39191892728E030E0982F990F01
:1014F00087FF09C0892F842721503040B9F7E617AC
:10150000F70781F70895892FF7CF80918703811519
:1015100071F0E0918B03F0918C03309739F00190DA
:10152000F081E02D309711F00995089580E008953D
:10153000A3E0B0E0EEE9FAE00C941A262091530201
:101540003091540228173907B1F0809353029093D9
:101550005402E0918B03F0918C03309761F000848A
:10156000F185E02D309739F023E029838A839B832E
:10157000CE01019609952396E2E00C943626A3E06D
:10158000B0E0E5ECFAE00C941A262091510230917B
:10159000520228173907B1F08093510290935202FA
:1015A000E0918B03F0918C03309761F00084F1851A
:1015B000E02D309739F024E029838A839B83CE0184
:1015C000019609952396E2E00C9436269C01FC01D5
:1015D000329680E09FEF4081461759F031969F3F49
:1015E00019F4411101C0982F8F5F8630A1F79F3FFA
:1015F00009F40895290F311D97FD3A95F901628389
:101600000895FC01329608962191261302C0DF014D
:101610001E92E817F907C1F7089580911301089504
:101620002FB7F89480914D0290914E02A0914F02F5
:10163000B09150022FBF08952FB7F89460914D02DA
:1016400070914E0280914F02909150022FBF0895E9
:1016500080918703811539F0EFDF462F572FBC01AA
:10166000CB01BA010895E8DFDC01CB01409183038F
:10167000509184036091850370918603480F591F30
:101680006A1F7B1FEDCF80918703811509F0C8CFBA
:10169000DFDFCB01089508950895FC018091430296
:1016A000909144028617970748F06115710529F457
:1016B0008091E8008E778093E800CB0140E00097AE
:1016C00041F4411106C08091E80082FF30C080E003
:1016D00008952091DC022115B1F12530B1F120915E
:1016E000E80023FD2EC02091E80022FDECCF2091E0
:1016F000E80020FFE4CF4091F3002091F200342F66
:10170000009719F02830310558F041E028303105B4
:1017100009F040E02091E8002E772093E800CFCF39
:1017200041914093F10001972F5F3F4FE9CF8091A6
:10173000DC02811541F0853041F08091E80083FFA3
:10174000C2CF81E0089582E0089583E00895982F44
:101750009093E900891771F07091EC002091ED00F1
:101760005091F00021FD09C09F5F973089F7809369
:10177000E9000895762F242F50E03091EB003E7F52
:101780003093EB003091ED003D7F3093ED003091D0
:10179000EB0031603093EB007093EC002093ED0090
:1017A0005093F0002091EE0027FDDECF0895809148
:1017B0003D0287FF13C08091E80082FF06C0809140
:1017C000E8008B778093E80008958091DC02811116
:1017D000F2CF08958091DC028115D9F38091E80061
:1017E00080FFF8CF8091E8008E77ECCF2091E40065
:1017F0003091E50095E6A9012091EC00822F8170DF
:1018000020FF06C08091E80080FF06C080E00895B8
:101810002091E80022FD1AC08091DC02811589F038
:10182000853089F08091EB0085FD0FC02091E400A8
:101830003091E50042175307F9F29150E1F684E048
:10184000089582E0089583E0089581E00895CF939C
:10185000DF93C8EDD0E088818F7E8883E7EDF0E0EC
:1018600080818160808384E082BF81E080933C023C
:1018700088818E7F8883E2EE10821092DA00A1EEDA
:10188000B0E01C9288818F77888388818068888304
:1018900088818F7D888319BC1092DC0210923B02F4
:1018A0001092DB0210923A02A0EE8C918B7F8C9307
:1018B00088818160888342E060E080E048DFA1EEBB
:1018C000B0E08C918E7F8C93E2EEF0E080818160BD
:1018D0008083808188608083E0EE80818E7F80833A
:1018E000888180618883DF91CF910895E8EDF0E0F1
:1018F00080818E7F80831092E2001092DA00109235
:10190000E100A0EEB0E08C9181608C9380818F77B4
:10191000808319BCA7ED8C918E7F8C9380818F7E04
:10192000808310923C020895A0E0B0E0EAE9FCE078
:101930000C9412267C016B015A01809152030AE03B
:1019400010E08A3010F001E010E0C1E0D0E0B60114
:10195000C701F5010995811115C021960C171D07C6
:101960008CF0CC9F9001CD9F300D300D112480E084
:1019700090E045E34A95F1F700000196821793073E
:10198000C1F7E5CFCDB7DEB7EAE00C942E263EB125
:101990003F7B2EB120644FB7F89487E592E0FC01BD
:1019A0000196508168E02EB9000000C057FF3EB993
:1019B000550F000000C000C000C03EB900C06A95CD
:1019C00091F752E08738950751F74FBF8FE594E0C4
:1019D0000197F1F700C0000008950F931F93CF9374
:1019E000DF93EB018A019091DC02943059F58093EA
:1019F000E9008FEF9091E80095FD06C095ED9A956E
:101A0000F1F700008150B1F78091E80085FF1AC01E
:101A1000EDDE811112C08091E80085FD06C0809145
:101A2000E8008E778093E800F3CF88818093F100FF
:101A30000150104011F02196EECF8091E8008E7792
:101A40008093E800DF91CF911F910F910895CF937C
:101A5000DF93EC0148E050E0BC0181E0BEDF88E0AC
:101A6000FE01A5E4B2E001900D928A95E1F7DF91C5
:101A7000CF91089543E050E0BC0182E0AECF909159
:101A8000DC0392FB222720F9281779F080FB92F9DA
:101A90009093DC036091DB037091DC0384E090E0C1
:101AA0000E94392782E00C949A030895FC0160811A
:101AB00086E090E00C941F278091C50380FD11C043
:101AC00081608093C503813019F489E08093C50358
:101AD00085EC93E0EBDF8091C5038695869586952E
:101AE000E9CB08958091D3039091DD03892B9091E8
:101AF000D403911589F0892B90E024E332E0F901B9
:101B000040812F5F3F4F41119F5F42E02A333407EE
:101B1000B1F791111092D4038093320248E050E063
:101B20006DE873E082E392E00E94F726892BB9F01A
:101B300088E0E2E3F2E0ADE8B3E001900D928A952F
:101B4000E1F7E0918B03F0918C03309741F0028034
:101B5000F381E02D309719F082E392E00995089522
:101B60001092D303E4E3F2E086E011928A95E9F75C
:101B700080E090E0DDDC80E090E001DD1092DD03AC
:101B8000B1CFEEDF8FEF94E32CE081509040204006
:101B9000E1F700C0000088E19CE00FB6F894A8953A
:101BA000809360000FBE90936000FFCFAAE2B0E088
:101BB000ECEDFDE00C9419268DE392E0FC0101961A
:101BC0002091F100208322E085349207B9F78091BB
:101BD0003E02893009F457C0C8F4823009F4B2C01B
:101BE000833009F482C0813081F18091E80083FF65
:101BF000E6C080913D0290913E029A3008F0DFC02D
:101C0000E92FF0E0E455F84D0C9489268A3009F468
:101C100089C08B3051F780913D02813231F780913C
:101C2000410290914202892B01F78091E800877F61
:101C30008093E800BCDD81E090913F02911101C0EA
:101C400080E0809314018CDFD0CF80913D02813AF7
:101C500061F68091E800877F8093E80080914102DF
:101C600090914202892B59F060E080E090E070E0B2
:101C700014DD8091E8008B778093E800B6CF68E0B0
:101C800085E492E0F4CF80913D02813209F0ADCF3E
:101C90008091410290914202029708F0A6CF809174
:101CA000E800877F8093E8008091E80082FF18C0F9
:101CB0002091F3008091F200922F029731F48091ED
:101CC000F100813011F0863021F48091F100809391
:101CD00013018091E8008B778093E80068DD85CF61
:101CE0008091DC028111E0CF80CF80913D02813A6A
:101CF00009F07BCF8091410290914202892B09F03B
:101D000074CF8091E800877F8093E8008091E8009D
:101D100080FFFCCF809114018093F1008091E80056
:101D20008E77DACF80913D02813209F05ECF8091CB
:101D3000E800877F8093E8003ADD8091400280933D
:101D4000120153CF80913D02813A09F04ECF80912C
:101D5000E800877F8093E8008091E80080FFFCCF57
:101D600080911201D9CF803889F0823841F5809175
:101D700041028F70873018F58093E9008091EB0065
:101D800085FB882780F91092E90006C08091DB026C
:101D9000880F90913A02892B9091E800977F909359
:101DA000E8008093F1001092F1008091E8008E77B6
:101DB00023C0811116C080913F02813009F18091CA
:101DC000E80083FF0AC08091E800877F8093E800E5
:101DD0008091EB0080628093EB00AA96E3E00C9484
:101DE0003526823061F780913F02811579F010929B
:101DF000E9008091E800877F8093E800D8DCDFCF9E
:101E0000933009F080E08093DB02F1CF80914102B2
:101E10008F70282F2150263090F68093E900209172
:101E2000EB0020FFE4CF933031F48091EB0080622F
:101E30008093EB00DCCF9091EB0090619093EB00EE
:101E400021E001C0220F8A95EAF72093EA00109260
:101E5000EA008091EB008860EBCF8111B0CF8091D8
:101E60003F028F77182F8091E3008078812B809339
:101E7000E3008091E800877F8093E80098DC809100
:101E8000E80080FFFCCF8091E30080688093E3004E
:101E900083E0111101C082E08093DC0290CF805872
:101EA000823008F08CCF20913F02309140022C3DCF
:101EB00083E0380789F583E08A838AE289834FB714
:101EC000F894DE01139620E03EE051E2E32FF0E0CB
:101ED00050935700849120FF03C082958F703F5F1D
:101EE0008F708A30B8F0895C8D931D922F5F2431FA
:101EF00069F74FBF8091E800877F8093E8006AE22E
:101F000070E0CE010196C9DB8091E8008B77809369
:101F1000E80055CF805DE8CF832F90E083309105B6
:101F200019F160F48130910509F46CC0823091059B
:101F300009F045CF8BE3E2E2F1E029C020914102B4
:101F4000309142028132910509F453C082329105E9
:101F500009F035CF2130310508F45CC009F02FCFEE
:101F600082E3ECEAF0E013C0822F90E0213099F197
:101F700082309105B9F1009709F021CFE3EAF1E051
:101F8000E4918E2FE3EAF1E0009709F418CF209155
:101F9000E800277F2093E80020914302309144021B
:101FA0008217930708F49C0140E021153105B1F533
:101FB000411134C08091E80082FDA6CF8091DC02FF
:101FC000811509F4A1CF853009F49ECF8091E800F6
:101FD00083FFF0CF99CFE3E9F1E0E4918E2FE3E9BD
:101FE000F1E0D2CFEFE6F1E0E4918E2FEFE6F1E001
:101FF000CBCF2130310550F009F0E1CE89E0EDE49E
:10200000F1E0C5CF82E1EDE5F1E0C1CF89E0E4E3A5
:10201000F1E0BDCF84E4EEEDF0E0B9CF8091DC02D9
:10202000811509F471CF853009F46ECF8091E800F5
:1020300083FD6ACF8091E80082FDBCCF8091E800EB
:1020400080FFB3CF4091F3008091F200942F2115CF
:10205000310519F08830910550F041E0089709F0FA
:1020600040E08091E8008E778093E8009ECF449115
:102070004093F1003196215031090196E8CF803824
:1020800009F09DCE8091E800877F8093E8008091E1
:102090003B028093F10089CE811191CE80913F0265
:1020A000182F823008F08BCE8091E800877F8093D4
:1020B000E80010933B027BDB111599F084E08093DC
:1020C000DC0242E061EC81E042DB42E261EC82E072
:1020D0003EDB8091DC02843051F482E08093150174
:1020E0006ECE8091E30087FDE9CF81E0E8CF81E00B
:1020F000F5CFCF93C82F811599F08450813A90F491
:10210000E4E3F2E08AE392E02081C21789F131969C
:102110008E179F07C9F76C2F82E392E057DAE2DC53
:10212000CF9108958C2F805E883060F4C77021E0D5
:1021300001C0220FCA95EAF78091D303822B8093C6
:10214000D303EDCF8C2F855A833028F48C2F845203
:10215000990BEED9E5CFC85ACB3110F7EC2FF0E050
:10216000EE0FFF1FE750FE4F8081918108DAD8CF34
:102170006C2F82E392E045DAB5DCCDCF811529F1F1
:10218000982F9450913A28F4682F82E392E039DA3C
:10219000A9CC982F905E983058F4982F81E091FD4B
:1021A00084E090FD880F92FD82950E94B003F0CFED
:1021B000982F955A933018F480E090E0B9C9885A66
:1021C0008B3118F480E090E0DAC908951F93CF9323
:1021D000DF93182FEB018DDF209731F4812FCEDFB5
:1021E000DF91CF911F9108958FE99FE00197F1F75B
:1021F00000C000002197F0CF80E090914D03209126
:102200004C03291731F1E92FF0E0E25BFC4F8081AC
:10221000282F2F779F5F937090934D0390914B03DE
:102220009F5F90934B03211541F0213061F460E0F2
:1022300070E087FF0CC089EA05C060E070E087FFAE
:1022400004C08EE4C3DF81E0D8CF8BE4FBCF8AEA01
:10225000F9CF0895811531F09091D303982B909385
:10226000D30340CC0895811519F00E94B0033ACCF5
:102270000895FF920F931F93CF93DF93C62FD42F10
:10228000F22E8115A1F06093C603CAD9809355023E
:102290009093560281E0C1FD84E0C0FD880FC2FD2D
:1022A0008295D8DFCDB7DEB7E5E00C943326809178
:1022B000C60368132FC00091550210915602B0D981
:1022C000801B910B883C910528F51D2F105ECD17C2
:1022D00091F0C77001E0802F01C0880FCA95EAF71E
:1022E000C2DF183040F48D2F877001C0000F8A952F
:1022F000EAF7802FAFDF60E070E08F2D67DF81E0CD
:10230000D1FD84E0D0FD880FD2FD8295183050F6C3
:10231000AADFC8CF81E0C1FD84E0C0FD880FC2FD07
:102320008295F6CF8F929F92AF92BF92CF92DF921B
:10233000EF92FF920F9388E090E00E9415274B01E7
:102340005C016093CB039092CC038093CD03B09259
:10235000CE031092CF031092D0031092D1031092AB
:10236000D20383E290E00E940D279401A5018092A0
:10237000CB033093CC03A092CD035093CE03809334
:10238000CF031092D0031092D1031092D2030F9179
:10239000FF90EF90DF90CF90BF90AF909F908F9085
:1023A000089586E090E00E940D278093C50382FD8A
:1023B00006C08DE18093C50385EC93E077DB8091C7
:1023C000C503803220F0877088618093C5039091A7
:1023D000C503892F817090FF04C0892F869586954B
:1023E00086950C945A090F93CF93DF93CBECD3E0EF
:1023F000488159816A817B8188E090E00E94312781
:102400006C81262F60E070E0CB01622F83E20E9496
:102410001F27DF91CF910F91089585E08093CB0323
:102420001092CC038FEF8093CD038093CE03109254
:10243000CF038091CA0383608093CA038BEC93E03F
:10244000D2CF8091CF03833018F48F5F8093CF0376
:102450008BEC93E0C8CF8091CF03811519F08150A8
:102460008093CF038BEC93E0BECFA0E0B0E0EBE332
:10247000F2E10C941526D82FE62EC42FD22E2091EF
:10248000CB0320FF35C08091CC038D1308C0909101
:10249000CD03961304C09091CE03941729F0909128
:1024A000CA0392609093CA03322F36953695E32F74
:1024B000F0E0EA57FE4F90819093C8032C7F2430C0
:1024C000E1F46D2F7E2D8C2F0E945A06962F672FD8
:1024D000482F892F0E9411078D2F8093CC03E09203
:1024E000CD03C093CE03D11419F08BEC93E07BDFC6
:1024F000CDB7DEB7E7E00C943126923019F4C091E5
:10250000CE03EACF963049F3993039F3993121F768
:1025100087EEF82EF30EEF2DE695F0E0E955FD4F2E
:10252000049110E060911A01161718F00E94F3064A
:10253000D3CF109FC001112470E00E946226862F25
:102540008D0FF0FE02C08D2F861B20911801210FE8
:102550003327331F4C2F6E2D0E94DC061F5FE2CF06
:10256000EBECF3E0818121E043816281885F7DCFE4
:10257000EBECF3E0818121E043816281885075CFEB
:10258000EBECF3E0628121E1620F08F46FEF21E0F0
:10259000438181816ACFEBECF3E0628121E1621B30
:1025A00008F460E021E0438181815FCFEBECF3E050
:1025B000438121E1420F08F44FEF21E062818181E4
:1025C00054CFEBECF3E0438121E1421B08F440E0FF
:1025D00021E06281818149CFCF92DF92FF920F93F8
:1025E0001F93CF93DF936901E801082F880F110B28
:1025F00041155105B1F0F80133E0EE0FFF1F3A9598
:10260000E1F7E95DFE4F81819281845E9C4FE0811C
:102610002E2F30E04E17510508F49A01A9010E94AF
:102620000427C8010E949C25F82E8115E1F020970F
:10263000D1F0C80123E0880F991F2A95E1F7FC012A
:10264000E95DFE4F2381422F50E0C217D10508F407
:10265000AE01895D9E4FFC0164817581645E7C4F93
:10266000C6010E9404278F2DDF91CF911F910F91FA
:10267000FF90DF90CF900895A4E0B0E0E2E4F3E1B2
:102680000C941626E0900403F090050300910603D5
:10269000109107030E941C0BDC01CB018E199F09CE
:1026A000A00BB10B11E084369105A105B10510F125
:1026B0000E94280BDC01CB010296A11DB11D89836C
:1026C0009A83AB83BC8300E010E0980144E050E0C3
:1026D000CE010196BC0185E07FDF182F811551F0F6
:1026E0000E941C0B60930403709305038093060300
:1026F00090930703812F2496E6E00C943226A1E004
:10270000B0E0E5E8F3E10C940A26662E2A011901EF
:1027100068018D019E012F5F3F4F40E050E0BA01FC
:102720005BDF182F8115B1F1F20180809180A280CA
:10273000B3800E941C0B7980681979098A099B096A
:10274000643671058105910530F4B701C6010E9418
:102750006D0A8715F9F08701910140E050E0BA0158
:10276000862D3ADF082FB701C6010E946D0A10E0DE
:1027700087110BC0102F117000FF07C00E941C0BA7
:10278000F2016083718382839383812F2196E2E13A
:102790000C942626A701B601C1010E940427F5CF9B
:1027A000AAE0B0E0E6EDF3E10C9414266B017D01A4
:1027B0000DE113E0CE0101969C0148E153E061E098
:1027C00080E09DDF811559F09AE09E012F5F3F4F19
:1027D000F901AEE0B3E001900D929A95E1F79AE02D
:1027E000EEE0F3E0D60101900D929A95E1F72A967A
:1027F000E8E00C943026A8E0B0E0E1E0F4E10C94CD
:1028000016267D0108E213E0CE0101969C014AE004
:1028100053E063E082E073DF182F811599F1909106
:10282000270380910903981769F190912B038091F8
:102830002A03891709F1E92FF0E0E05EFC4F848557
:1028400087FB662760F99F5F937090932B039091AD
:1028500029039F5F909329038F770E94030AF82E24
:102860008111E3CF00E010E09801A801B80184E0F5
:10287000B3DEF8221F2D02C0F110F4CF80912703A0
:1028800080930903812F2896E6E00C943226A0E07D
:10289000B0E0EDE4F4E10C941026D82EEB01C42E48
:1028A00059014801E880F9800A811B810E941C0BB4
:1028B000DC01CB018E199F09A00BB10B8436910569
:1028C000A105B10510F4C11479F000E010E0980101
:1028D000A401B5018D2D80DE811539F00E941C0BFD
:1028E000688379838A839B8381E0CDB7DEB7ECE090
:1028F0000C942C26A1E0B0E0E0E8F4E10C9418265A
:102900008091C50380FF16C086958695869589833C
:1029100041E090913403981301C040E08D01CE0155
:1029200001969C0160E073E086E0B1DF2196E4E06F
:102930000C94342680E0EBCFABE0B0E0E2EAF4E1C7
:102940000C94182628E0EBECF3E0CE010196DC01B4
:1029500001900D922A95E1F73091C8032091C903A7
:102960005091CA0339872A875B8741E09C01511146
:1029700001C040E00BE010E06CEF72E087E087DF21
:1029800081111092CA032B96E4E00C943426A0E047
:10299000B0E0EDECF4E10C940E26FC018281882E6F
:1029A000948081E08483E7EAF1E0A490E6E2F2E03B
:1029B000E491C091CE03C695C158D0E0CC0FDD1F85
:1029C000ED2EF12CB12C05E01FEFEA198E2F90E0CF
:1029D0003C0180911A01B81638F00E94F306CDB779
:1029E000DEB7EEE00C942A26CB2CD12C882D833038
:1029F00058F40B9DF0011124E957FD4F8091CC0351
:102A000080838091CD03818391101CC00C9DF001C7
:102A10000D9DF00D1124E957FD4F13821282809114
:102A200018019601280F311D0C9DF0010D9DF00D30
:102A30001124E957FD4F4281618180810E94DC06AB
:102A4000B394C7CF0C9DE0010D9DD00D1124C95743
:102A5000DD4F8B818115E1F081508B83189FC00180
:102A600011246C8170E00E94622670E0FB01E95540
:102A7000FE4F84918A19189FC0011124B3010E944E
:102A800062268091CE03689FB00111247A83C7CF5C
:102A90000E94DC266FEF70E00E9476268E159F055F
:102AA0000CF0BDCF882D833090F00E94DC266FEFB4
:102AB00070E00E94762688830E94DC262091CD0358
:102AC0002695622F70E00E947626280F29830C9DA0
:102AD000F0010D9DF00D1124E957FD4F12828091F8
:102AE000CE03893C58F088EC0C9DF0010D9DF00D53
:102AF0001124E957FD4F8483838391CF8431A0F75C
:102B000084E1F2CF6091CB036695669570E04BE06F
:102B100050E087E091E00E94EA26892B19F481E0D9
:102B20008093C9030E94430B809340039093410319
:102B30008091CA0384608093CA0308959091CB0367
:102B400090FF31C0811581F18B3280F58F73880F32
:102B5000880F9091CB039370892B8093CB03809146
:102B6000CA0381608093CA03611519F08BEC93E06E
:102B70003ADC6091CB036695669570E04BE050E0DF
:102B800087E091E00E94EA26892B91F00E94550788
:102B900081E08093430320E04091CE036091CD0318
:102BA0008091CC0362CC089581E0D1CF8AE2CFCF6F
:102BB000A9DFEECFAFE1B0E0E0EEF5E10C94102636
:102BC000FE013196DF0184E11D928A95E9F757E60F
:102BD000C52E51E0D52E7F019E2E8F2C05E711E0EA
:102BE000F60181916F018F3F09F443C0F894E82FFB
:102BF000E295EF70F0E021A18F7041E001C0440F39
:102C00008A95EAF7922F942B91A392A1842F809515
:102C1000892382A3789400C0ECE6F1E021E030E063
:102C2000A12CB12C41914F3F79F0A42FA295AF7008
:102C3000A05EB0E08C9190E04F7002C095958795B2
:102C40004A95E2F780FF9CC080E090E0A82AB92A6C
:102C5000220F331F0E171F0729F7F60182918F3FAE
:102C600011F00E943F0680EA8A95F1F7F701A082F1
:102C7000B18282E0E80EF11C8CE691E08C159D0596
:102C800009F0AECF44E150E0692D782D8FE693E056
:102C90000E94F726009749F024E1E92DF82DAFE6D0
:102CA000B3E001900D922A95E1F700916E0310E0D8
:102CB000000F111F065A1C4F892B09F463C081E0D5
:102CC000809359030E94100B8093570390935803ED
:102CD00080918703811509F4B1C07E0185E1E80E7A
:102CE000F11CF7018AE011928A95E9F7809152036D
:102CF0008A3008F06BC040ED53E1B701C8010E9473
:102D0000940C811509F488C04BEF53E1B701C80159
:102D10000E94940C811509F47FC04CE353E1B70184
:102D2000C8010E94940C811509F476C04AE754E169
:102D3000B701C8010E94940C811509F46DC04CE9DB
:102D400054E1B701C8010E94940C811509F464C0D4
:102D5000109252038091560390E0880F991F4AE029
:102D600050E0B701865A9C4F0E94F72621E020933D
:102D70005503892B09F041C06F96ECE00C942C268A
:102D8000C90164CF80915903811509F4A1CFE09066
:102D90005703F09058030E94100B8E199F09059756
:102DA00008F496CF4AE050E06FE673E0C8010E9455
:102DB000F726892B41F08AE0EFE6F3E0D801019095
:102DC0000D928A95E1F71092590382CFC090530378
:102DD000D09054030E94100B8C199D09843F9140A0
:102DE00008F089CF80915503811531F2F7018AE00F
:102DF00011928A95E9F710925503A0915603B0E01D
:102E0000AA0FBB1FA65ABC4F8AE0FE01759601901F
:102E10000D928A95E1F7B0CF809152038F3F39F43C
:102E20000E94100B8093530390935403DBCF8F5F6A
:102E3000809352038A3008F48DCFF2CF8AE0F801F4
:102E4000ADE1B3E001900D928A95E1F76AE070E0A0
:102E50008DE193E00E946D0A80931C0388E0EAE410
:102E6000F3E0A8E2B3E001900D928A95E1F768E003
:102E700070E088E293E00E946D0A80932703C0907F
:102E80003003D0903103E0903203F090330380910F
:102E9000460390914703A0914803B0914903C81697
:102EA000D906EA06FB06B1F0C0924603D09247036A
:102EB000E0924803F09249030E941C0BC61AD70AFD
:102EC000E80AF90AC0928303D0928403E092850352
:102ED000F0928603809134030E94EB098BE0E5E3D6
:102EE000F3E0DE01559601900D928A95E1F7F0909E
:102EF0003603E0903703D090380300913E031091E1
:102F00003F0310923F03111509F436CF10FF0CC098
:102F10008D899091CB0380FF19C091609093CB0372
:102F200060E0869586950ADE11FF05C020E04D2DF4
:102F30006E2D8F2D9ADA12FF03C00115A1F0E2DD8C
:102F400013FF1ACF81E08093430316CF9E7F9093A7
:102F5000CB030E9455078091CA0381608093CA0306
:102F60000E94F306E1CF0E945507EACF8091CB0380
:102F7000869586958F5F8B3208F081E061E0DECD2B
:102F80008091CB0386958695815009F48AE261E0B1
:102F9000D5CDA0E0B0E0EFECF7E10C9414267C0175
:102FA000FC018481811509F45FC061E0C7010E94C2
:102FB000ED05EC01F7018581811509F4AFC0C3303F
:102FC00098E7D90709F457C048F5C13098E7D90701
:102FD00009F44FC0C23098E7D90709F47BC0C11586
:102FE00098E7D90759F11092C6039E013057233252
:102FF000310508F0A2C484E090E00E941A27809373
:10300000DB039093DC03FE01E150F047E232F1056F
:1030100008F0ABC0EA54F84D0C948926C43098E708
:10302000D907C9F1C53098E7D90709F465C0FE0191
:10303000E851FC47E730F105B0F677C083E00E9425
:10304000EB0985EC93E00E94560D8091DA038770BE
:1030500059F0F7018581811539F08091DC0382FFF9
:1030600003C082E00E949A03CDB7DEB7E8E00C947B
:10307000302680E0E4CF8091C503883028F1885065
:103080008093C50391E0883008F490E08091C503F7
:1030900090FB80F913C09091C503892F8695869582
:1030A0008695983140F48F5F880F880F880F97704E
:1030B000892B8093C5038091C50381608093C503EC
:1030C00085EC93E00E94560D8091C5038695869508
:1030D00086950CC08091C50380FF0BC08E7F8093C6
:1030E000C50385EC93E00E94560D80E00E945A09CA
:1030F000ACCF0E945C0DA9CF8091C50386958695C3
:1031000086958F5F8F71843008F080E0880F880F7C
:10311000880F9091C5039770892BB2CFFE01E851BB
:10312000FC47E730F10508F021C4E852F84D0C9453
:10313000892626E241EE61EE9CD887CF27E245EE54
:1031400065EEFACF26E241EE60EEF6CF27E245EEDD
:1031500064EEF2CF26E241EE62EEEECF27E245EEDC
:1031600066EEEACF28E241E0EBCF8091DB0381609D
:103170008093DB036091DB037091DC0384E090E0DB
:103180000E9439270E94B00D60CF8091DC038860D7
:103190008093DC03EFCF8091DB038260E9CF8091E5
:1031A000DB038460E5CF8091DB038860E1CF809111
:1031B000DC038160EDCF8091DC038260E9CF8091F8
:1031C000DB038061D5CF8091DB038062D1CF80911A
:1031D000DB038064CDCF0E94B00D8091DB0380685B
:1031E000C7CF8091DB038C60C3CF8091DC03836009
:1031F000CFCF8091DB038E7FBBCF8091DC03877FB5
:10320000C7CF8091DB038D7FB3CF8091DB038B7FB2
:10321000AFCF8091DB03877FABCF8091DC038E7FC4
:10322000B7CF8091DC038D7FB3CF8091DB038F7E9E
:103230009FCF8091DB038F7D9BCF8091DB038F7BC2
:1032400097CF0E94B00D8091DB038F7791CF809153
:10325000DB03837F8DCF8091DC038C7F99CF9091AE
:10326000DB03892F8B7F92FF8460877F92FF8860CA
:103270007FCF8091DC03982F909590FB80F990FB95
:1032800081F986CF9091DB03892F8F7B96FF806435
:103290006FCF0E94B00D9091DB03892F97FB87F9C8
:1032A000805866CF61E08EE090E00E941F2762CFD9
:1032B00060E0F9CF9091DB03892F8F7E94FF8061CE
:1032C00057CF9091DB03892F8E7F90FF816050CF85
:1032D0009091DC03892F877F93FF886059CF92728A
:1032E000FE01E052F847EB30F10508F048C0E1522A
:1032F000F84D0C9489268091CB0380FF10C08E7FFF
:103300008093CB038BEC93E06ED80E94550780919D
:10331000CA0381608093CA030E94F30696CE81603F
:103320008093CB0361E08695869508DC8ECE91155F
:1033300021F026DE8ACE9115E1F318DE86CE9115B6
:1033400021F016D982CE9115E1F30AD97ECE9115DE
:1033500021F021D97ACE9115E1F312D976CE9115CB
:1033600021F02FD972CE9115E1F320D96ECE9115AF
:1033700021F071D86ACE9115E1F363D866CE9E0133
:10338000205E324520323105A0F4811129C0CF7171
:1033900081E090E002C0880F991FCA95E2F7EC0126
:1033A000682F83E090E00E941F27CE010E94E10277
:1033B0004CCE8115A9F0CA358CE7D80709F4BBC0FB
:1033C00008F070C0C1308CE7D80709F4B2C0C33030
:1033D0008CE7D80709F4A7C0C115DC4709F474C00D
:1033E000F701858100811181811509F4A8C0C80108
:1033F0000E94B905C82F682FC8010E940903B801AF
:103400008C2F0E94B8030E94CD04D82FC92FF7013A
:10341000D580068102950F708091DA03877001F1E3
:10342000CD2CD114F1F0892F807F803461F08D2F65
:10343000805E8830A8F0892F807E803221F4D230DF
:1034400078F0011569F08091DC0382FF09C082E009
:103450000E949A038091DA038770CC24C39481116F
:10346000C12C8C2F82958F70883009F453C108F0DD
:1034700085C0843008F068C0823008F490C01C2FEA
:103480001F70C07FC03211F01295107FD13008F448
:10349000BEC009F405C1D11409F40FC1011509F426
:1034A000D4C094C0CB358CE7D80709F446C0CC35DE
:1034B000DC4709F095CF8091DC03002482FF039460
:1034C000802D0E943F0D8CCF0E94B00D8FEF94E3B2
:1034D0002CE0815090402040E1F700C0000081E0E6
:1034E0008093E00080E28093D8001092C9008FE1C1
:1034F0009EE40197F1F700C00000A7E0B0EBCD011A
:1035000080931F0490932004A0932104B09322047D
:1035100088E19CE00FB6F894A895809360000FBEF8
:1035200090936000FFCF6FEF7FEF80E090E00E940C
:1035300039270E94C10D81E0C4CF80E0C2CFC8010D
:103540000E943E03C82F5BCF09F4C8C0C11409F420
:103550001AC18091DA0380FD16C1F70115828695A4
:10356000869586950E94EB02C70113DD8091DA03F0
:103570008695869586950E94F90205C1893009F4E1
:103580005BC18A5F8F70823008F7D23F09F065C156
:103590008C2F8F71D1105EC10E94EB02F0C01C2FE6
:1035A0001F70C03110F01295107FD114B9F01115B1
:1035B00069F08D2F805E883010F0D11109C08091A4
:1035C000D303812B8093D3030E94720D8D2F2FC0C4
:1035D0008091DD03812B8093DD03F6CF8D2F0E9438
:1035E000BE10111509F4B2CF8D2F805E883010F017
:1035F000D11104C0812F0E94B00306C010958091A4
:10360000DD0381238093DD030E94720D9FCF8091A3
:10361000DC0382FD16C0D11469F0111539F08091D8
:10362000D303812B8093D3030E94720D80E00E940C
:1036300079108CCF80E00E94BE10111509F486CF5E
:10364000D9CFD11499F0013020F4812F0E942A1192
:103650007DCF09F07BCF8091D403912F9823191748
:1036600009F474CF812B8093D40370CF01116ECFF6
:10367000812F0E9433119091D403812F892329F047
:10368000812F809589238093D4038091D503912F36
:10369000982309F45BCF109518231093D50356CFC8
:1036A000D11421F0063008F051CFCFCF053008F00B
:1036B0004DCF812F0E94331149CF0115D1F3D9335A
:1036C00049F48FEF97EE23E0815090402040E1F7DE
:1036D00000C000008D2F0E94BE1038CF8C2F869521
:1036E00086958370813060F009F030CF8D2F9C2F4C
:1036F0009370D11002C080E090E00E94BF0A26CFF4
:103700008D2F9C2F9370D11002C080E090E00E941A
:10371000980A1CCF8C2F837009F048C0D1102FC09D
:103720004D2F429546954770440F440F2D2F2F7013
:1037300030E0042E02C0220F331F0A94E2F780E02B
:1037400090E0D4FF09C08FE090E002C0880F991F7D
:103750004A95E2F780959095C695C695C370C2309C
:10376000E1F0C330B9F04091D6035091D703C13096
:1037700079F0822B932B842395230E94E1020E94EF
:10378000850A0E94D70260E0C7010E94ED056CCC5B
:10379000242B352B822B932BF0CF822B932B209134
:1037A000D6033091D70382279327E7CFD11491F125
:1037B000C0FFE5CF4D2F429546954770440F440F0B
:1037C0002D2F2F7030E0042E02C0220F331F0A94D9
:1037D000E2F780E090E0D4FF09C08FE090E002C003
:1037E000880F991F4A95E2F780959095C695C695E2
:1037F000C370C230C1F0C33099F04091D8035091EA
:10380000D903C13059F0822B932B842395230E9436
:10381000E602B5CF823008F4B2CFCCCF242B352BC3
:10382000822B932BF4CF822B932B2091D8033091B2
:10383000D90382279327EBCFCF70D11439F08C2F87
:103840000E94EB028D2F0E942A1199CF8D2F0E948A
:1038500033118C2F0E94F90292CF70F4D03FC9F03F
:10386000D13F91F0D11409F454C0011509F44EC0B0
:103870008D2F0E94791083CFD33F11F1D43F91F760
:103880009091DC0392FD2AC08C2F8F71D11411F31B
:1038900083CED11499F0053008F071CFCF7181E05B
:1038A00090E002C0880F991FCA95E2F7EC01809161
:1038B000D8039091D9038C279D27A9CF0630ECCF50
:1038C00080E090E0D11409F4A2CFCF7181E090E0C4
:1038D00002C0880F991FCA95E2F799CFD11461F001
:1038E0008C2F8F7192FF58CE982F990F990F990FA7
:1038F00093609093DA0350CE81E00E949A030230E5
:1039000008F43DCF82E00E949A0339CF8C2F8F714B
:1039100043CE011579F0D93349F48FEF97EE23E0C8
:10392000815090402040E1F700C000008D2F0E94A0
:10393000BE1025CF8C2F8F718DCF9091D303C631C0
:103940002CE7D20709F0CBCC9A7A81E0911101C023
:1039500080E08093C70365E3911101C069E282E3CF
:1039600092E00E94E60A0E94720D6FCBC6319CE77E
:10397000D90709F004CD8091C70365E3811101C027
:1039800069E282E392E00E94010BEDCF80911E0478
:10399000803170F480911D04811551F0E091DF03B6
:1039A0002091DE0330911904409118042E1301C0B8
:1039B0000895BF0187E0E89FF0011124DF01A052C4
:1039C000BC4F14968C911497811551F111968C91DE
:1039D0001197831325C08C91841322C015968C9166
:1039E000159781111DC012968D919D91A0911A0479
:1039F000B0911B048A1B9B0B883C910588F4809135
:103A00001E048F70806180931E04EA51FC4F8081F8
:103A10008F708061808388E194E0BBDA0C9490031E
:103A20006F5F7F4FFB01E770C1CFADE0B0E0EBE12E
:103A3000FDE10C940F268C0186E0F801DE0118965A
:103A400001900D928A95E1F7F801F580C48088E134
:103A5000882E84E0982E70901C0471101FC0C11431
:103A6000D1F0F11409F415C1C8010E9412068115A4
:103A700009F40FC187E0F801D40101900D928A95F5
:103A8000E1F78C2D813031F4809118049091190464
:103A90000E9408067BDFFF24F39453C0E080A280DD
:103AA000B380D0901D0480911A0490911B0495015D
:103AB000281B390BD11409F4B5C0283C310508F096
:103AC0008DC0C11441F390911904C18080911E04EE
:103AD000803108F056C0C91213C0909118049E118D
:103AE0000FC0F11048C08F70806180931E0488E180
:103AF00094E04FDA80911E04F8018683F12C21C0F6
:103B0000F11039C040E06C2D8E2D0E94710340E011
:103B10006C2D8E2D0E947103F82E8111EFCF8885B8
:103B200099850E940806292F22952F70903470F4F1
:103B30009F70223098F09115A9F0F801968190318C
:103B400088F48F2D2D96EDE00C942B262A5F2F7094
:103B5000223060F0C8011DDAFD2CF3CF911511F071
:103B6000811579F3805E883060F3F4CF803F48F3AD
:103B7000815F8330F9CF80911E04816080931E04A1
:103B8000BDCFC91207C0909118049E1103C0F11453
:103B900009F469C0C8010E941206811509F479C0B0
:103BA000F11409F476C080911E04803270F02091E7
:103BB00018043091190429833A83AB82BC827D8238
:103BC0001E828F83CE010196E4D987E0F801A8E137
:103BD000B4E001900D928A95E1F75CCF80911E04CC
:103BE000803148F488E194E0D4D9F40187E011925F
:103BF0008A95E9F783CFC11409F44DCF20911904B8
:103C000091812913C7CF909118049E11C3CFF11051
:103C1000C1CF8683C801BDD9F40187E011928A958E
:103C2000E9F739CF283C310500F7C11409F433CF47
:103C3000F11479F1909119048181981320C0809139
:103C400018048E111CC080911E0480FD0FC08031AD
:103C500068F08683807F803F39F08681982F907F3F
:103C6000905F8F70892B8683C80193D987E0F80114
:103C7000A8E1B4E001900D928A95E1F70CCFC8015C
:103C80000E9412068111A1CF80911E048160809351
:103C90001E04C8017ED9FFCEABE1B0E0E1E5FEE154
:103CA000C7C74E8B5F8B688F798F8A8F192F9B8F39
:103CB00091111092DD031D8A86E0FE017696DE01E9
:103CC0001F9601900D928A95E1F70A8D011561F01A
:103CD0000B8B1C8B61E0CE010F960E94ED0561E01D
:103CE000CE010F960E94ED050B8B1C8B87E0FE0129
:103CF0003F96DE01189601900D928A95E1F7CE016C
:103D0000089693DE81112EC02091DE033091DF03EF
:103D100087E0AE01485F5F4FFA0147505109DA0171
:103D200001900D928A95E1F78C858115D9F0822F4B
:103D300090E08395877090E0AC0134171506D9F0B8
:103D400097E0929FD0011124A052BC4F9E012F5F9B
:103D50003F4FF90101900D929A95E1F74093DE03F0
:103D60000E9490038091DF039091DE03891310C0BD
:103D70006B96E4E079C70E94B00D1092DE031092BA
:103D8000DF03E8E1F4E087E011928A95E9F7EACFF2
:103D900027E0829FC001112480529C4F46DE81158E
:103DA00039F38091DF039091E0030196877080934F
:103DB000DF03D8CFA6E0B0E0EFEDFEE139C70E9407
:103DC000100B8C018091890390918A0380179107D1
:103DD00071F019821A820E94100BBC0149815A812C
:103DE00080E090E059DF0093890310938A032696C0
:103DF000E4E03AC7CDB7DEB72E970FB6F894DEBF32
:103E00000FBECDBF85B7806885BF85B7806885BF89
:103E100084B7877F84BF0FB6F894A895809160001F
:103E2000886180936000109260000FBE80E890E08F
:103E30000FB6F89480936100909361000FBE81E00B
:103E4000809315018DE396E08093300290933102C8
:103E50000E94760C0E94270C8091E200846080937F
:103E6000E20078948091DC02811599F08091E9005C
:103E70001091EC008F7010FB112717F9182B10927E
:103E8000E9008091E80083FD0E94D60D1F70109319
:103E9000E90082E084BD93E095BD9AEF97BD8093E1
:103EA0006E00109283031092840310928503109287
:103EB00086038091D80080618093D8008AE18A953A
:103EC000F1F700C08091D900182F117080FD04C057
:103ED0000E94760C1092DC021093870387988F98CB
:103EE0008FE891E00197F1F700C000008FB187FBE8
:103EF000992790F990938803909375018038880BE7
:103F00008195880F880F880F8093160188E0809331
:103F100017018091870381112ED5EAE4F3E088E050
:103F200011928A95E9F78091750191E08927809334
:103F3000F702809175019093FA028091750180914A
:103F40007501811106C086E980931C0184E9809384
:103F50001B0160E080E00E94230A61E080E00E9493
:103F6000230A8FE891E00197F1F700C0000010E00C
:103F70008091FA02181708F470C1809175018111BF
:103F800025C085E0E6E7F1E0DE011A9601900D928A
:103F90008A95E1F785E0FE013A96A7E6B1E0019047
:103FA0000D928A95E1F789E0ECE7F1E09E012F5F41
:103FB0003F4FD90101900D928A95E1F789E0F9010F
:103FC000ACE6B1E001900D928A95E1F78091750120
:103FD00090E0811101C095E090936E0385E0891B0C
:103FE00080935603F7E6EF2EF1E0FF2E0CE611E08A
:103FF000F70181917F018F3F11F00E943F060E155E
:104000001F05B1F7ECE6EE2EE1E0FE2E05E711E02C
:10401000F70181917F018F3F11F00E943F060E153D
:104020001F05B1F7EAE5F3E084E111928A95E9F71B
:10403000EFE6F3E084E111928A95E9F7269A80E0B1
:1040400090E0F8D6833E9E4F09F447C063EE7EEFC2
:1040500080E090E00ED760E082E090E0F0D681E072
:1040600090E08093D6031092D70361E083E0E7D617
:1040700060E074E184E090E0FCD61982CE01019604
:104080000E94560D0E940D120E945C0D83E00E945A
:10409000EB0985EC93E00E94560D8091CB03816083
:1040A0008093CB0361E0869586950E949E1521E062
:1040B0004FEF6FEF80E00E94351261E08BE00E94CD
:1040C0009E1560E070E0AB018FE090E0CAD660E042
:1040D00070E0AB0183E190E0C4D682E090E09DD631
:1040E0008093DD0284E090E0A5D68093DB0390937B
:1040F000DC0383E090E091D690E00E94E102259AF3
:104100002D9882E88093800089E1809381008FEF71
:104110009FEF90938700809386000E94D1110E94A8
:10412000D1118091D90281112DC08BEC93E00E94B6
:1041300092118091CA0383608093CA038091CB035C
:10414000843008F09CC00E940D128BEC93E00E941A
:1041500092118091CB03843008F091C08370846009
:104160008093CB030E9455070E94600A8091CB0385
:1041700080FF05C060E0869586950E949E1581E0CF
:104180008093D90280918703811101C0F7D38DE11B
:1041900091E080938B0390938C038091DC0272E119
:1041A000E72E70E1F72E853009F4AEC00E94DA15D3
:1041B0005EED852E52E0952E8AE593E03C01FC01F0
:1041C000D4012D913D918081918142E0A23FB407BD
:1041D00009F4A8C032962817390799F3509087033D
:1041E00010E0F301E190F1903F01F401A190B19052
:1041F0004F01AE14BF0459F1AE24BF2400E041E0EA
:10420000C42ED12CC5018C219D21892BC1F05114C4
:10421000B1F009831A830E94100B8B839C8381E089
:104220008D8391E097012C213D21232B09F490E00F
:104230009E8349815A816B817C818D812DDD0F5F49
:10424000CC0CDD1C0930F1F6F401F292E2921F5F12
:104250001A3039F60E94280B6AC060E0812F0E9454
:10426000430A082F61E0812F0E94430AE12FF0E00A
:10427000E850FD4F880F802B80831F5F79CE80919F
:10428000CB038C3A08F46ECF8370886A69CF809133
:10429000DC02843051F180E00E94EB0980E00E9452
:1042A000D7021092DA0288E190E020E40FB6F89489
:1042B000A895809360000FBE2093600083B7817F34
:1042C000846083BF83B7816083BF7894889583B708
:1042D0008E7F83BF0FB6F894A895809160008861A7
:1042E00080936000109260000FBE0E94DA15EAE52C
:1042F000F3E080819181892B09F059C132968EE6D5
:1043000093E08E179F07A9F78091DC02853009F4AE
:10431000BECF0E94B00D0E94D1110E94850A0E945A
:10432000D70244CF2817390709F058CF43DD8091D1
:10433000C903811509F46EC08091C803E091CB03D5
:10434000E695E695E81BE0934203853109F4C9C080
:1043500008F084C0893009F4BAC008F072C0823015
:1043600009F4A3C0863009F4A9C020EDE22E27E0AD
:10437000F22E09E516E080914303811561F0109259
:1043800043030E94430B8093400390934103109298
:104390004403109245030E94430B20914003309147
:1043A0004103AC01421B530B4F3F5F4798F54091CF
:1043B000F4024115B1F01092F4024091F2025091D2
:1043C000F302841B950B8F3F9F4758F4405D5A487A
:1043D0004093F2025093F3028091CA038860809365
:1043E000CA03C0904403D09045032E0D3F1D209377
:1043F00040033093410380E493E0F80109958091F4
:10440000440390914503892B29F4CD2819F081E0CC
:104410008093F402F0908703F11419F00E94FC10CD
:10442000F82E80910803811551F0109208038091B5
:104430004C0380934D0380914A0380934B03E12CFE
:1044400098C08F3009F091CFE695F0E0EC53FC4F27
:10445000E491EE2EF12C0EE917E08DCF94EFE92ECA
:1044600091E0F92E09E219E0843209F484CF68F46E
:10447000883109F43FC0833209F077CFEFEBF3E0E6
:10448000E590F4900FE019E076CF853209F06DCF1A
:104490008E2F63E00BD4E92FF0E0E454FC4FE4915D
:1044A000EE2EF12C07EC14E166CFF0E0E353FC4F65
:1044B000E491EE2EF12C0DE517E05DCFF0E0E65330
:1044C000FC4FE491EE2EF12C06E417E054CFE69574
:1044D000F0E0E953FC4FE491EE2EF12C00E717E0F9
:1044E0004ACFF0E0EF53FC4FE491EE2EF12C0DE1BA
:1044F00018E041CF88E2E82EF12C0CE918E03BCF20
:1045000061E08E2D0E94430AD82E60E08E2D0E941D
:10451000430ADD0C8D292E2D30E0D901A850BD4F66
:10452000EC919E2F9370891719F1EE0FEE0FE82B87
:10453000EC938091F7028E0DEF70F0E0EF54FE4F98
:104540002B503D4F6901B080F9019081B90E9B2D30
:1045500060E094301CF49D3F1CF461E00E94030A6B
:104560008B2DBB0C990B64E070E0C0D3F601808307
:10457000E3948091FA02E81618F28091870381157E
:1045800019F00E94FC10F82AF1100E94280B0E94DA
:10459000850AF82E8091FB02F81609F4FECDF09200
:1045A000FB020E941C0B8F2D0E94D702F6CD80913A
:1045B000DB02811509F4A8CEF9BCE9BC09B400FE00
:1045C000FDCF8091D8008F7D8093D8008091E0004E
:1045D00082608093E0008091E00081FDFCCF0E942A
:1045E000B00D92CE1F921FB61F9211248F939F93EE
:1045F000AF93BF938091DA02811113C080914D0275
:1046000090914E02A0914F02B09150024196A11D8F
:10461000B11D80934D0290934E02A0934F02B09330
:104620005002BF91AF919F918F911F901FBE1F901D
:10463000189578941F921FB61F9211248F939F9301
:10464000AF93BF9380914D0290914E02A0914F0283
:10465000B09150020196A11DB11D80934D0290931F
:104660004E02A0934F02B0935002BF91AF919F9121
:104670008F911F901FBE1F9018951F920F920FB61B
:104680000F9211242F933F934F935F936F937F93D8
:104690008F939F93AF93BF93EF93FF938091E1002C
:1046A00082FF09C08091E20082FF05C08091E10095
:1046B0008B7F8093E1008091DA0080FF24C080919D
:1046C000D80080FF20C08091DA008E7F8093DA00CE
:1046D0008091D90080FFA9C080E189BD82E189BDB8
:1046E00009B400FEFDCF81E08093DC0280913C02A2
:1046F000811109C00E94760C0E94270C8091E20073
:1047000084608093E2008091E10080FF1AC0809174
:10471000E20080FF16C08091E2008E7F8093E2006D
:104720008091E20080618093E2008091D8008062F5
:104730008093D80019BC85E08093DC0283E08093ED
:1047400015018091E10084FF2FC08091E20084FF79
:104750002BC080E189BD82E189BD09B400FEFDCF97
:104760008091D8008F7D8093D8008091E1008F7E6A
:104770008093E1008091E2008F7E8093E20080913F
:10478000E20081608093E20080913B02811509F490
:1047900052C084E08093DC028091DC02843009F016
:1047A00052C082E0809315018091E10083FF2CC00C
:1047B0008091E20083FF28C08091E100877F809391
:1047C000E10082E08093DC0210923B028091E100E4
:1047D0008E7F8093E1008091E2008E7F8093E200E3
:1047E0008091E20080618093E20042E060E080E03E
:1047F0000E94A70B8091F00088608093F00081E018
:104800008093150180931401FF91EF91BF91AF91B7
:104810009F918F917F916F915F914F913F912F91D8
:104820000F900FBE0F901F90189519BC1092DC02CC
:1048300010923C0268CF8091E30087FF02C083E0C2
:10484000A9CF81E0A7CF81E0ADCF1F920F920FB625
:104850000F9211241F932F933F934F935F936F9366
:104860007F938F939F93AF93BF93CF93DF93EF93F8
:10487000FF93E9EEF0E080811091EC008F7010FB67
:10488000112717F9182B1082C0EFD0E08881877F9D
:10489000888378940E94D60DE9EEF0E0108288813A
:1048A000886088831F701083FF91EF91DF91CF9113
:1048B000BF91AF919F918F917F916F915F914F9138
:1048C0003F912F911F910F900FBE0F901F90189541
:1048D0008EE1489B02C08150E1F7489BFECF0895CE
:1048E000589880E28A95F1F7589A0895FC018BE078
:1048F0008A95F1F798E020E080E031E040E14A95C8
:10490000F1F7880F489B02C08160232742E04A9557
:10491000F1F7000040E14A95F1F7915079F790E105
:104920009A95F1F799B132E03A95F1F7000030E14C
:104930003A95F1F7917092272081920F9083089514
:10494000A1E0B0E0E5EAF4E271C119828C017C01DA
:10495000E60EF11CBDDFCE010196C8DFF8018193A0
:104960008F01EE15FF05B1F781E09981911180E08B
:104970002196E6E077C1509A589A08955098589A2F
:10498000E89AE9E6F0E080818C7F808308956150A9
:10499000770B91E001C0990F6A95EAF7692F90E0D3
:1049A00021E0611108C0911591F0589A80E28A9532
:1049B000F1F758980895362F382339F0589A9227EE
:1049C00030E23A95F1F76695ECCF5898F9CF5898C0
:1049D000EDCFFF920F931F93CF93DF93EC018C01E8
:1049E000060F111D8991F82E7BDF68E08F2DCFDF38
:1049F000C017D107B9F7CDB7DEB7E5E034C11F92D4
:104A00000F920FB60F9211240F931F932F933F9382
:104A10004F935F936F937F938F939F93AF93BF93C6
:104A2000EF93FF93CF93DF930F92CDB7DEB7198249
:104A30004FDFCE0101965ADF082F069506950695A1
:104A4000282F22952570902F9570920F292F237073
:104A500096959695920F982797708981892B09F0E2
:104A600055C0093008F052C080E18A95F1F7589A94
:104A7000509A82E08A95F1F700C0589888E0089F24
:104A800080011124D801A95DBE4F1696ED91FD91CC
:104A90001897309791F06091C1017091C2011496FE
:104AA0002D913D91260F371F15978D919D91680F80
:104AB000791F4C9113978C910995F801E95DFE4F90
:104AC0006381611549F02091C1013091C201848157
:104AD0009581820F931F7DDF03DF80E18A95F1F7D7
:104AE00058985098589A80E18A95F1F7F801E95D55
:104AF000FE4F6081611549F02091C1013091C201E2
:104B000081819281820F931F1BDFE2DE0F90DF9184
:104B1000CF91FF91EF91BF91AF919F918F917F9135
:104B20006F915F914F913F912F911F910F910F9036
:104B30000FBE0F901F9018950F931F93CF93DF9385
:104B4000EC0109970CF05EC0F894509A589885E0F3
:104B50008A95F1F700009C2F969595708C2F8570A3
:104B6000980F892F837096959695292F93E0CC0FF7
:104B7000DD1F9A95E1F7280F822F8C2B082FB0DECE
:104B800000C068E0802F03DF80E18A95F1F750983C
:104B9000589A489B30C087E090E048992EC0FE01AB
:104BA000E95DFE4F6381611559F02091C10130919B
:104BB000C20184819581820F931FC2DE8115F9F0B5
:104BC00087DE80E28A95F1F75898509A80E18A95BD
:104BD000F1F7C95DDE4F6881611549F02091C1018F
:104BE0003091C20189819A81820F931FF2DE78DEB3
:104BF000789481E008C000C0CCCF019749F4509A66
:104C0000589A789480E0DF91CF911F910F91089589
:104C100000C0C3CF2F923F924F925F926F927F92CC
:104C20008F929F92AF92BF92CF92DF92EF92FF92BC
:104C30000F931F93CF93DF93CDB7DEB7CA1BDB0B68
:104C40000FB6F894DEBF0FBECDBF09942A8839880D
:104C500048885F846E847D848C849B84AA84B98414
:104C6000C884DF80EE80FD800C811B81AA81B98120
:104C7000CE0FD11D0FB6F894DEBF0FBECDBFED0134
:104C8000089537D1332312F48A1B9B0B49C0DB01F3
:104C90008F939F931ED1BF91AF91A29F800D911DC5
:104CA000A39F900DB29F900D11240895992778E04D
:104CB000880F991F961708F0961B881F7A95C9F7D9
:104CC00080950895AA1BBB1B51E107C0AA1FBB1FFB
:104CD000A617B70710F0A61BB70B881F991F5A9588
:104CE000A9F780959095BC01CD01089597FB072EFB
:104CF00016F4009406D077FD08D0E4DF07FC05D059
:104D00003EF4909581959F4F0895709561957F4FE2
:104D10000895EE0FFF1F0590F491E02D0994E9D05E
:104D2000B7FF0895821B930B08958F929F92AF92C5
:104D3000BF92CF92DF92EF92FF92CF93DF93EC017D
:104D4000688179818A819B81611571058105910551
:104D500021F464E279ED8BE597E02DE133EF41E05A
:104D600050E09BD049015A019B01AC01A7EAB1E494
:104D7000B0D06B017C01ACEEB4EFA5019401B5D0CD
:104D8000DC01CB018C0D9D1DAE1DBF1DB7FF03C007
:104D90000197A109B04888839983AA83BB839F7731
:104DA000DF91CF91FF90EF90DF90CF90BF90AF90C9
:104DB0009F908F900895B9CF80E091E0B6CFB0E09A
:104DC000A0E08093000190930101A0930201B093B1
:104DD00003010895FC014150504030F00190061647
:104DE000D1F73197CF010895882799270895FB01BE
:104DF000DC0104C08D910190801921F44150504094
:104E0000C8F7881B990B0895FB01DC0102C00190D3
:104E10000D9241505040D8F70895F999FECF92BDB8
:104E200081BDF89A992780B50895A6E1B0E044E0E5
:104E300050E025C0A8E1B0E042E050E020C0262FBD
:104E4000F999FECF92BD81BDF89A019700B4021680
:104E500039F01FBA20BD0FB6F894FA9AF99A0FBE2E
:104E600008950396272FECDFEADF252FE9DF242FB3
:104E7000E7CF0196272FE4DFE2CFDC01CB01FC0175
:104E8000F999FECF06C0F2BDE1BDF89A319600B4A3
:104E90000D9241505040B8F70895052E97FB16F437
:104EA00000940FD057FD05D033D007FC02D046F454
:104EB00008C050954095309521953F4F4F4F5F4F1B
:104EC000089590958095709561957F4F8F4F9F4F76
:104ED00008950FD0A59F900DB49F900DA49F800DB5
:104EE000911D11240895B7FFF4CFF3DF821B930BBC
:104EF0000895A29FB001B39FC001A39F700D811DB3
:104F00001124911DB29F700D811D1124911D0895D2
:104F1000A1E21A2EAA1BBB1BFD010DC0AA1FBB1FBD
:104F2000EE1FFF1FA217B307E407F50720F0A21B2F
:104F3000B30BE40BF50B661F771F881F991F1A949C
:104F400069F760957095809590959B01AC01BD01C6
:104F5000CF010895F894FFCFB30ED90EDF0ED90E0E
:104F6000DF0E2D0F4F0FDF0E3F104C10F918611997
:104F70000119CB18CF180519D31809191519DF18FD
:104F80005A19E3181919E7181D194219EB182119B4
:104F90004919F11827192F19D7180D19DB181119EC
:104FA000F5182B19391952195819C518FD1868190F
:104FB000A218A61899189E18AA18AE18B2187B192C
:104FC00097199B199F19A319A719AB19AF19B319F1
:044FD000B719BB1939
:104FD4000100000001010201191A1B1C1D1E1F20E3
:104FE4002122000001000010001010F6F50D0B271F
:104FF4000D4B0B4C0B3A0D000000010000000000AB
:1050040000000A01000000000000010B0000000085
:105014000000080C00000000000000000055060419
:105024001400000000000001180000000000000B44
:10503400190000000000003132673497F4F1F037B2
:10504400339293959401333236349700F1F0F4F5AA
:10505400F69567933700000102020202060606096C
:1050640009090909090F0F0F0F0F0F151515181945
:10507400191919191919191919232425252525254B
:105084002500FF0100010000FFFF0000010001FFF7
:10509400001C03E200E900EA00B500B600B700CD49
:1050A400008301CC008A019201940121022302248D
:1050B400022502260227022A02B300B4006F007000
:1050C400009F01CB019F02A002E200E900EA00B5C3
:1050D40000B600B700CD008301CC008A0192019490
:1050E400012102230224022502260227022A02B3F6
:1050F40000B4006F0070009F01CB019F02A002006A
:00000001FF
