:100000000C9428030C94A8290C9460030C946003AE
:100010000C9460030C9460030C9460030C946003D4
:100020000C9460030C9460030C94AD230C9469232E
:100030000C94AA240C9460030C9460030C94600349
:100040000C9460030C9460030C9460030C946003A4
:100050000C9460030C9486240C9460030C9460034D
:100060000C9460030C9460030C9460030C94600384
:100070000C9460030C9460030C9460030C94600374
:100080000C9460030C9460030C9460030C94600364
:100090000C9460030C9460030C9460030C94600354
:1000A0000C9460030C9460030C9460030102E00163
:1000B00002E11B0103E10103E0000102E00102E1B2
:1000C0006E0103E10103E000AC00AB0035001E004F
:1000D0001F0020002100220023004B00AE002B0057
:1000E00014001A0008001500170000004E004C0014
:1000F000390004001600070009000A000000A800EB
:100100000100E10000001D001B00060019000500B1
:10011000417E407EE0002152E300E20000002C001E
:1001200000000100000029003A003B003C003D00B7
:100130003E003F0024002500260027002D002E0051
:100140004C002A004C001C0018000C001200130088
:100150002F00300031004A000B000D000E000F0090
:1001600033003400000028004D001100100036005C
:10017000370038000000E500E50052002C002C009C
:10018000E600E70001000000500051004F000000B1
:100190004000410042004300440045004600AE00DC
:1001A0000100010001000100010001000100010047
:1001B0000100010001000100010001000100010037
:1001C0000100000001000100010001000100010028
:1001D0000100010000000100010001000000010019
:1001E0001B000600190001000100010001000100D0
:1001F00001000100000001000000010000000100FA
:1002000001000100010001000100010001000100E6
:1002100001000100010001000100010001000100D6
:100220000100520001000100010001000100010075
:100230000100500051004F000100010000000100CA
:1002400001000100010001000100010000000100A7
:100250000100010001000100010001000100000097
:100260000100010001000000010001000100010087
:1002700001000100010001004E004B00A900AA008E
:100280004E004B00A900AA001E0F0500047F3F1F6F
:10029000643214643214783C1E1E140A05000101F5
:1002A0000101010101010102020202020202020235
:1002B0000303030303030303040404040404040505
:1002C00005050505060606060607070707070808C9
:1002D0000808090909090A0A0A0B0B0B0C0C0C0D7A
:1002E0000D0D0E0E0E0F0F0F101011111112121313
:1002F000131414151516161717181819191A1A1B8E
:100300001B1C1D1D1E1E1F202021222223242425EC
:100310002626272829292A2B2C2D2D2E2F30313225
:1003200032333435363738393A3B3C3D3E3F404135
:1003300042434445464748494A4C4D4E4F5051531D
:1003400054555658595A5B5D5E5F616264656668D4
:10035000696B6C6D6F7072737577787A7B7D7E8058
:1003600082838587888A8C8E8F91939596989A9CA4
:100370009EA0A2A3A5A7A9ABADAFB1B3B5B7BABCB8
:10038000BEC0C2C4C6C9CBCDCFD1D4D6D8DBDDDF89
:10039000E2E4E7E9EBEEF0F3F5F8FAFDFFFFAA7F00
:1003A00055400102030C0D0E0F00070605040B0A51
:1003B00009082223252628292A2C2D2F30323335CF
:1003C00036383A3B3D3E4042434547494A4C4E5001
:1003D00051535557595A5C5E6062646668696B6D2B
:1003E0006F71737577797B7D7F81838587898A8C2F
:1003F0008E90929496989A9C9E9FA1A3A5A7A8AA36
:10040000ACAEAFB1B3B4B6B8B9BBBCBEBFC1C2C36A
:10041000C5C6C7C9CACBCCCDCED0D1D2D2D3D4D504
:10042000D6D7D7D8D9D9DADADBDBDBDCDCDCDCDC2D
:10043000DDDDDDDDDCDCDCDCDCDBDBDBDADAD9D905
:10044000D8D7D7D6D5D4D3D2D2D1D0CECDCCCBCA93
:10045000C9C7C6C5C3C2C1BFBEBCBBB9B8B6B4B3B9
:10046000B1AFAEACAAA8A7A5A3A19F9E9C9A98964F
:100470009492908E8C8A89878583817F7D7B797722
:100480007573716F6D6B6968666462605E5C5A5902
:1004900057555351504E4C4A4947454342403E3DC3
:1004A0003B3A3836353332302F2D2C2A2928262551
:1004B000232205010980A101850319012AB700152E
:1004C0000126B700950175108100C0050C0901A136
:1004D00001850419012AA002150126A002950175C3
:1004E000108100C005010906A101050719E029E7EF
:1004F0001500250195087501810295017508810196
:100500000507190029FF150026FF009506750881CB
:1005100000050819012905950575019102950175D8
:10052000039101C009023B00020100A0FA09040086
:10053000000103010100092111010001224000070F
:1005400005810308000109040100010300000009FE
:10055000211101000122320007058203200001124F
:100560000100020000000810CB6713100101020017
:10057000011803530069006E0063002000520065FB
:100580000076002E002000310000000E034B0065B5
:10059000006500620069006F0000000403090400A8
:1005A000000000000000000000000000000000004B
:1005B000000000000000000000000000000000003B
:1005C0000000007E0F00D4FFFFFFC700000078008E
:1005D000000000000000002A2B280000000000009E
:1005E0000000000000000000000029000000002CB6
:1005F0001E3420212224342627252E362D37382755
:100600001E1F202122232425263333362E37381F60
:100610000405060708090A0B0C0D0E0F1011121322
:100620001415161718191A1B1C1D2F3130232D35C0
:100630000405060708090A0B0C0D0E0F1011121302
:100640001415161718191A1B1C1D2F3130354C00A4
:1006500011241FBECFEFDAE0DEBFCDBF04B603FE2C
:1006600018C08091EE039091EF03A091F003B09138
:10067000F1038730904BA740B04B59F41092EE0332
:100680001092EF031092F0031092F103E0E0F8E310
:10069000099523E0A8EFB1E001C01D92AE3EB2077C
:1006A000E1F711E0A0E0B1E0E8EAF9E502C0059069
:1006B0000D92A83FB107D9F70E94D1240C947E2C4B
:1006C0000C940000E8EDF0E080818E7F8083109232
:1006D000E2001092DA001092E100A0EEB0E08C91FE
:1006E00081608C9380818F77808319BCA7EDB0E007
:1006F0008C918E7F8C9380818F7E80831092D40327
:1007000008952091E4003091E50095E6A90120913B
:10071000EC00822F817020FF06C08091E80080FFEE
:1007200006C080E008952091E80022FD1AC0809163
:10073000E103882389F0853089F08091EB0085FD05
:100740000FC02091E4003091E50042175307F9F201
:100750009150E1F684E0089582E0089583E00895E1
:1007600081E008958091E30387FF13C08091E80042
:1007700082FF06C08091E8008B778093E80004C078
:100780008091E1038111F2CF08958091E1038823E4
:10079000D9F38091E80080FFF8CF8091E8008E7750
:1007A000ECCF982F9093E900242F762F50E08917F3
:1007B00031F07091EC002091ED005091F00021FD9E
:1007C00007C09F5F973071F78093E90081E008953B
:1007D0003091EB003E7F3093EB003091ED003D7F98
:1007E0003093ED003091EB0031603093EB0070936B
:1007F000EC002093ED005093F0002091EE0027FDD7
:10080000E0CF80E00895B0E0A0E0E9E0F4E00C94EF
:10081000CE2AC8EDD0E088818F7E8883E7EDF0E0B6
:1008200080818160808384E082BF81E08093D403F3
:1008300088818E7F888302EE10E0F801108210928A
:10084000DA0081EEC82ED12CF601108288818F77D4
:10085000888388818068888388818F7D888319BC9C
:100860001092E1031092E2031092E0031092DF0372
:1008700090EEE92EF12CF70180818B7F80838881B7
:100880008160888342E060E080E00E94D103F6014D
:1008900080818E7F8083F801808181608083808168
:1008A00088608083F70180818E7F8083888180616A
:1008B0008883CDB7DEB7E8E00C94EA2AFC0180918A
:1008C000E9039091EA0386179707A0F06115710577
:1008D00029F49091E8009E779093E80090E06115EC
:1008E000710551F4911108C08091E80082FF34C075
:1008F00080E00895BC01F2CF8091E1038823C1F12B
:100900008530C1F18091E80083FD30C08091E8001E
:1009100082FDEACF8091E80080FFE1CF8091F30073
:100920002091F200382F6115710519F0283031053A
:1009300058F091E02830310509F090E02091E8006E
:100940002E772093E800CBCF81918093F100615006
:1009500071092F5F3F4FE7CF8091E103882341F07A
:10096000853041F08091E80083FFBECF81E008959B
:1009700082E0089583E00895089508958091D60354
:1009800008959C014FB7F8948091D0039091D103C2
:10099000A091D203B091D3034FBF821B930B089554
:1009A0002FB7F8946091D0037091D1038091D20356
:1009B0009091D3032FBF08952FB7F8948091D0035F
:1009C0009091D103A091D203B091D3032FBF08958A
:1009D000A3E0B0E0EEEEF4E00C94D42A2091CD0335
:1009E0003091CE0328173907A1F09093CE0380935E
:1009F000CD03E091CB03F091CC03309751F024E08C
:100A000029839B838A830680F781E02DCE0101969E
:100A100009952396E2E00C94F02AA3E0B0E0E3E12C
:100A2000F5E00C94D42A2091C9033091CA03281709
:100A30003907A1F09093CA038093C903E091CB03D7
:100A4000F091CC03309751F023E029839B838A8374
:100A50000680F781E02DCE01019609952396E2E00C
:100A60000C94F02AFC01680F791F8FEF91E321911C
:100A7000822728E030E087FF09C0880F89272150AE
:100A80003109C9F7E617F70791F70895880FF7CFEF
:100A90008F929F92AF92BF92EF92FF920F931F930C
:100AA000CF93DF938430B8F5811136C090918000E8
:100AB0009F77909380002D98A0918600B091870039
:100AC000282F30E00E946F2C23E030E040E050E01F
:100AD0000E944D2C89019A01809186009091870097
:100AE0006CE070E00E94172B60177107D8F0C80106
:100AF00069E070E00E94172B709389006093880072
:100B0000DF91CF911F910F91FF90EF90BF90AF9029
:100B10009F908F90089583E09091800090689093CB
:100B20008000CACF8091860090918700E090860077
:100B3000F0908700E0918600F0918700C6E0D0E059
:100B4000BE010E94172B060F171F211D311D4801E2
:100B5000590185E0880C991CAA1CBB1C8A95D1F709
:100B6000C701BE010E94172B9F0150E040E0260FF5
:100B7000371F411D511DC501B4010E944D2C490173
:100B80005A01E0918600F0918700CA01B9010E94E4
:100B9000FB2A9B01AC01DF010E943A2C9B01AC01B6
:100BA000C501B4010E94FB2A2FE0969587957795A1
:100BB00067952A95D1F7009186001091870030E063
:100BC00020E0061717072807390708F095CF60912E
:100BD00086007091870090CFFA01811101C0FB015E
:100BE00009950895ECE3F3E01182828184608283A9
:100BF00008958091C203982F9E7F29F481708260AE
:100C00008093C20308958635E8F381708465F8CF38
:100C1000AF92BF92DF92EF92FF920F931F93CF9309
:100C2000DF93082F162FE901E42FF0E0E356FD4F84
:100C3000611110C0E4915E2F4E2F4983E8835A83DF
:100C4000DF91CF911F910F91FF90EF90DF90BF90B8
:100C5000AF900895E62EF12C4491D42EE42FF0E0CD
:100C600026E0829FC00111242FEF30E0B9010E94DD
:100C7000172B802F90E0880F991F55E5569FD001C4
:100C8000579FB00D11248A1B9B0B982F990F890F2A
:100C90005901AE18BF08AE9ED001AF9EB00DBE9EEA
:100CA000B00D11245B2F189F80011124012F1127F3
:100CB0005901A01AB10AAE9E8001AF9E100DBE9ED2
:100CC000100D11245901A81AB108AE9CC001AF9CA7
:100CD000900DBE9C900D1124892F9927281B390B4C
:100CE0002E9FC0012F9F900D3E9F900D1124E92F44
:100CF00062307105A1F050F46115710509F49DCFC2
:100D00006130710581F0EB2F512F97CF6430710561
:100D100069F080F06630710509F48FCFF4CFE42FCD
:100D20004B2F592F8ACFE42F412F87CFEB2F542FF2
:100D3000492F83CF4B2F5D2DE12F7FCF80E008958A
:100D4000F894E82FE295EF70F0E031A1282F2F7092
:100D500081E090E001C0880F2A95EAF7982F9095DE
:100D6000932391A392A1892B82A3789408959091C3
:100D7000F60292FF06C0282F28712830F9F4877FE9
:100D8000846093FF06C0282F28712831F1F4877EF4
:100D900084612091F70220FF06C0382F3871383067
:100DA000D9F4877F816021FF06C0282F2871283160
:100DB000D1F4877E816194FD877E0895282F247168
:100DC0002430F9F68B7F8860DCCF282F2471243102
:100DD00001F78B7E8861DDCF382F3171313019F703
:100DE0008E7F8860E0CF282F2171213121F78E7E00
:100DF0008861E1CF82389105B9F1B0F48133910572
:100E000009F47DC048F48932910509F46DC08A3235
:100E1000910509F47BC008958533910509F45FC0FD
:100E20008933910509F10895833E9105D9F138F48C
:100E3000803E910529F1823E910579F10895863E23
:100E40009105D9F1873E910509F43EC0843E910594
:100E500041F52091F70221FF24C08091F60284FD24
:100E600019C087EE90E008952091F602237009F0F2
:100E70005AC02091F70223FF14C089E290E0089540
:100E80002091F60220FD38C03091F70230FF09C0F2
:100E900024FF43C090E080E008952091F60222FDF7
:100EA000F7CF08952091F60222FD3AC03091F70263
:100EB00030FD39C024FFF5CFEDCF2091F60223FF9E
:100EC000F0CF24FDE7CFCDCF2091F60223FD2EC039
:100ED0003091F70231FFEECF84EE90E0089520913B
:100EE000F60225FFDECFC9CF2091F60225FD21C0F5
:100EF0002091F70223FFD5CF89E390E0D2CF209154
:100F0000F60226FFCECF8AE290E008952091F60205
:100F100026FFC7CF81E390E0089583EE90E0089527
:100F200082EE90E0089580EE90E0089586EE90E0E5
:100F3000089585E390E00895E62F972F7C30C8F45C
:100F4000693008F03EC0823008F03EC070E029E011
:100F5000929F600D711D1124FB019CE6899FE00D9D
:100F6000F11D1124EE0FFF1FE853FF4F859194915F
:100F700008957D3F91F4623020F5823028F5682F86
:100F800070E0660F771FE60FF72FF11DEE0FFF1FC2
:100F9000EE0FFF1FE858FD4FE9CF7C3F91F4623020
:100FA00080F4823088F4682F70E0660F771FE60FB8
:100FB000F72FF11DEE0FFF1FEE0FFF1FE658FD4F3D
:100FC000D5CF80E090E0089581E0FCCF1F93CF93D0
:100FD000DF930E94FA06EC01C11580E5D807F0F511
:100FE000C11580E4D80708F09CC0C03ED10520F5AB
:100FF000CD3CD10508F082C0C83AD10578F4C53A95
:10100000D10508F073C0C130D10519F1209709F15D
:10101000C430D105F0F4D0E0C0E01BC0C33CD10522
:10102000D0F7C85AD0E0CC0FDD1FCC57DE4F099067
:10103000D881C02DD4640DC0C11580E2D80708F056
:10104000D1C0C11581E0D80708F05AC0C83ED1050B
:1010500010F7CE01DF91CF911F910895C03682E540
:10106000D80718F5C03482E5D80708F06BC0C03245
:1010700082E5D80708F05FC0C11582E5D80708F4FB
:1010800097C02C2F2695269580E2289F9001112449
:101090008C2F8370C1E0D0E002C0CC0FDD1F8A9599
:1010A000E2F7C22BD32BDD68D4CFC03A82E5D80754
:1010B00060F4C03882E5D80708F459C0CF71D0E099
:1010C000DC2FCC27C46FD06AC4CFC03C82E5D807E0
:1010D00008F462C0C03E82E5D80708F09CCFDC2F40
:1010E000CC27CC27DF71C06FD06AB3CFC55AD0E010
:1010F000CF57DE4FC881D0E0D064ABCFD065A9CF49
:101100008D2F0E94B706182FCE0199270E94FA064C
:10111000C12FD0E0DC2FCC27CC27DF71C82BD92BF7
:1011200098CFCE0199270E94FA06CC27DF70C82BF2
:10113000D92BD06A8ECFCF71D0E0DC2FCC27C16FF6
:10114000D06A87CF2C2F26952695277080E2289F7E
:10115000900111248C2F8370C1E0D0E002C0CC0F2D
:10116000DD1F8A95E2F7C22BD32BDC6872CF2C2FC0
:1011700026952695277080E2289F900111248C2FB8
:101180008370C1E0D0E002C0CC0FDD1F8A95E2F78A
:10119000C22BD32BDA685DCF8C2F8F710E94B706DC
:1011A000C82FD0E0DC2FCC27CC27DF71D06251CF05
:1011B0008C2F8F710E94B70655E0D695C7955A952A
:1011C000E1F7CF70D0E0DC2FCC27282F30E084FF70
:1011D00005C044E0220F331F4A95E1F7C22BD32B01
:1011E000D06937CF8D2F8F710E94B706182FCE018F
:1011F00099270E94FA06C12FD0E0DC2FCC27CC27FC
:10120000DF71C82BD92BD2CF0E94D00408958091D2
:10121000820281111092820208958095909181023C
:101220009823909381020895ECEFF1E09191891356
:1012300003C0DF0111971C9292E0E230F907B1F789
:101240000895ACEFB1E0EFEF90E02D91821751F0EF
:10125000EF3F19F4211101C0E92F9F5F9630A9F7E4
:10126000EF3F09F408950E2E000CFF0BE650FE4FE1
:1012700082830895209176029091450256E02913C9
:1012800002C080E0089530E0529FF001539FF00DBE
:101290001124EA5BFD4F7181761306C070817813CB
:1012A00003C07281741304C02F5F3F4F2770E7CFD4
:1012B00081E008958091760290914502981301C0D3
:1012C00008958F5F8770FACFB0E0A0E0EAE6F9E01A
:1012D0000C94CD2A7C010091F4021091F5028091CA
:1012E000830290918402082B192BCFE0D0E0CC240C
:1012F000C394D12CBC2EC6010C2E02C0880F991F9E
:101300000A94E2F780239123892B49F4219790F7DF
:10131000B12C8B2DCDB7DEB7E9E00C94E92AB701EB
:101320008C2F0E949C070E94E607019779F3F1CF6A
:10133000CF93DF93EC010E946409BE010E949C07D9
:101340000E94E607DF91CF910895A82FA77023E0B0
:10135000969587952A95E1F7880F991F880F991F11
:10136000FB01E80FF91F50E040E080E0219130E000
:101370000A2E02C0369527950A94E2F7217033278A
:10138000042E01C0220F0A94EAF7822B4F5F5F4FB1
:101390004430510559F70895292F9C3068F489305D
:1013A00090F490E067E072E039E0239F800D911D9A
:1013B00011240E94A50908952C5F223020F463E0D7
:1013C00072E090E0F6CF80E00895262F277091E03C
:1013D00001C0990F2A95EAF723E0769567952A953B
:1013E000E1F7660F771F660F771FFA01E60FF71F09
:1013F00050E040E0682F70E08191DF0111979B0180
:10140000042E02C0369527950A94E2F721702195A3
:101410002827292328272C934F5F5F4F44305105FD
:1014200059F70895282F862F9C3070F4293058F4EE
:10143000622F70E029E0929F600D711D112447E03A
:1014400052E00E94E50908959C5F9230E0F7622F18
:1014500070E043E052E0F5CF9093F5028093F40200
:10146000089521E030E002C0220F331F8A95E2F791
:10147000209530958091F4029091F5028223932378
:101480000E942C0A08959091770280958923809379
:101490007702282F277091F4282F082E000C330B89
:1014A0009217130659F09091F70292FF07C08595A5
:1014B000859585950E94310A10927702089521E062
:1014C00030E002C0220F331F8A95E2F78091F402C8
:1014D0009091F502822B932B0E942C0A08959093F1
:1014E0008402809383020895FC0183819481892B77
:1014F00029F08081918189238F3F51F480E0089504
:10150000843FE1F717C0883EA8F0813FB9F712C0C9
:10151000808191810E94980992959F70963099F3ED
:1015200058F4925F9F70923048F7803F19F040F76F
:10153000883E20F781E008959A5FF4CF909153019F
:10154000992319F081FD03C02E9A81E008952E9809
:10155000FCCF0F931F93CF93DF938B01EA01909100
:10156000E103943061F58093E9008FEF9091E800FA
:10157000815095FD06C095ED9A95F1F70000811117
:10158000F5CF8091E80085FF1AC00E948103811188
:1015900011C08091E80085FD06C08091E8008E773B
:1015A0008093E800F2CFF80181918F018093F100E0
:1015B000219779F78091E8008E778093E800DF919A
:1015C000CF911F910F91089543E050E0BC0182E05C
:1015D0000E94A90A0895CF93DF93EC0148E050E000
:1015E000BC0181E00E94A90A88E0FE01A7EDB3E0FA
:1015F00001900D928A95E1F7DF91CF91089581E0F6
:101600008093E00080E28093D8001092C9008FE1BF
:101610009EE40197F1F700C0000087E090EBDC0149
:101620008093EE039093EF03A093F003B093F10344
:1016300088E19CE00FB6F894A895809360000FBEF7
:1016400090936000FFCFCF92DF92EF920F931F93A2
:10165000CF93DF93CDB7DEB7E0970FB6F894DEBF38
:101660000FBECDBF60916D018091C20380FF4BC062
:10167000E2EAF3E09E012F5F3F4F8E010F5C1F4FA8
:10168000C901A4914A2F50E0DA01AA0FBB1FA40F91
:10169000B51FAE5BBC4FCD90DD90EC90D901CD92E3
:1016A000DD92ED929D013196A017B10751F720917F
:1016B0006C0143E0249F800D911D11246E9A2EB180
:1016C0002F7B3EB130645FB7F894FC01649FE00D5E
:1016D000F11D1124BF018617970741F55FBFEFE5A4
:1016E000F4E03197F1F700C00000E0960FB6F894EF
:1016F000DEBF0FBECDBFDF91CF911F910F91EF9055
:10170000DF90CF90089580916E0190916F0123E05A
:10171000829FF0011124EE5BFC4F891708F0A8CFDF
:101720001182108212828F5F3396F7CFDC014D91C8
:10173000CD01E8E03EB9000000C047FF2EB9440FDC
:10174000000000C000C000C02EB900C0EA9591F7AB
:10175000C2CF0F931F93CF93DF93EC0110E000E013
:10176000909170019017110609F06CF40E94230B00
:101770008C8190E00196817099278C83DF91CF91C5
:101780001F910F91089520916E01A801420F511DE4
:101790009A01220F331F240F351F2E5B3C4F4C81C3
:1017A0006091C4038091C30396959017110651F080
:1017B0004CF0442349F04091C5030E9408060F5F96
:1017C0001F4FCECF4423B9F340E0F7CFB0E0A0E005
:1017D000ECEEFBE00C94CA2AEC014C81042F10E0E3
:1017E0009801D8010E946F2C9B01AC010E943A2CF9
:1017F0004B015C01E0E2F0E0E01BF10BA5E5B0E09D
:10180000AC019B010E943A2C6B017C019F01DF011E
:101810000E94452B9B01AC010E94452C9B01AC0111
:10182000280D391D4A1D5B1DC701B6010E944D2CB4
:10183000F22E822F90E039E23F1520F143E0249F01
:101840009001112435952795122F109500E085E51C
:10185000E82EEF1880917001081718F10E94230BF1
:101860009C8181E0992319F0903219F48FEF8093D5
:101870006B0180916B01890F8C83CDB7DEB7ECE0F3
:101880000C94E62A25E530E0B901681B790B9B0131
:10189000220F331F260F371F37FFD4CF2F5F3F4F45
:1018A000D1CF8E2D01FD8F2D20916E01622F600F03
:1018B0007727771F9B01220F331F260F371F2E5BC1
:1018C0003C4F412F6091C4030E9408060F5FC2CFB6
:1018D000EF92FF920F931F93CF93DF93EC018C81D4
:1018E000811109C081E08C831092400392E09093B3
:1018F0006A018093690180916E0190916F0123E0EC
:10190000829FF0011124EE5BFC4F891758F110E023
:1019100003E060917001161758F10E94230B80912B
:10192000690120914003280F2093400390916A01A0
:10193000980F90936A01191654F4022E000C330B81
:10194000409170014150550B2417350734F08195B3
:1019500080936901813009F41C82CDB7DEB7E6E0DF
:101960000C94EC2A1182108212828F5F3396CDCFB5
:10197000E12EF12C70E0C7010E942B2B20916E010B
:10198000820F482F50E020914003022E000C330BB1
:10199000E216F306BCF020916A01022E000C330B14
:1019A0002E153F057CF0809F900111242E5B3C4F4B
:1019B0004091C5036091C4038091C3030E9408064F
:1019C0001F5FA7CFFA01EE0FFF1FE40FF51FEE5BBD
:1019D000FC4F118210821282F3CFB0E0A0E0E3EF5F
:1019E000FCE00C94CB2AEC018A81BB24BA9480FDE4
:1019F00002C0BB24B394A09070018C81811109C0F6
:101A000081E0B8121EC08FEF8A0D80933F0381E002
:101A10008C83F12CE12CEA14B8F00E94230B809106
:101A20003F0391E0B91254C081114DC08091700103
:101A3000815080933F031C82CDB7DEB7EBE00C945E
:101A4000E72A10923F03E3CF00916E010E0D1F2D88
:101A5000111DC801880F991F080F191F0E5B1C4F1D
:101A6000F80111821082128234E0C32ED12C912C05
:101A700080913F03890D813114F18F70082E000C85
:101A8000990B8E159F0591F48091C5038C9DA00143
:101A90008D9D500D11245595479555954795980165
:101AA0006091C4038091C3030E9408069B0CF1E07F
:101AB000CF1AD108E9F68FEFE81AF80AACCF87FF02
:101AC000DDCF8A0DDBCF815080933F03BC82B4CF42
:101AD00090E001966091700170E00E942B2B809342
:101AE0003F038C83A9CFEF92FF921F93CF93DF9395
:101AF000EC0110E0EE24EA94F12C609170011617CD
:101B000070F00E94230B9A818C8190FF27C08F5F19
:101B10008C83DF91CF911F91FF90EF9008952091DA
:101B20006E01422F410F5527551FCA019A01220FFE
:101B3000331F280F391F2E5B3C4F70E0C7010E94F6
:101B40002B2B962F8C814091C5036091C403199F64
:101B5000800D11240E9408061F5FCFCF8150D8CF7F
:101B60009091C20390FF0EC090916E0120916F0181
:101B700033E0939FF0011124EE5BFC4F921718F0B5
:101B80000E94230B08958183608342839F5F339675
:101B9000F5CFA3E0B0E0EFECFDE00C94D22A8C018D
:101BA0008091410381110AC09E012F5F3F4F4FEF8B
:101BB0006FEF0E9408068A8180934103F8016481D7
:101BC000613069F08091410340E0662361F040E0BC
:101BD000623011F44091410380E060E004C0609104
:101BE000410340E080E00E94B00DF801848190E064
:101BF000019663E070E00E942B2B84832396E4E03F
:101C00000C94EE2AA3E0B0E0E8E0FEE00C94D42AC5
:101C10009091C20390FF0AC09E012F5F3F4F0E9428
:101C200008064B8169818A810E94B00D2396E2E00B
:101C30000C94F02ACF93DF93EC01E2ECF3E04381C4
:101C400062818C810E94020E8C818F5F8C83DF9178
:101C5000CF910895CF93DF93EC01EC81F0E0EE5447
:101C6000FC4F4491E2ECF3E0628181810E94020E1C
:101C70008C818F5F8C83DF91CF910895B0E0A0E0DD
:101C8000E4E4FEE00C94CC2A7C015B016A018091C3
:101C9000D30201E010E08A3010F40AE010E0C1E065
:101CA000D0E0B501C701F6010995811104C0219664
:101CB0000C171D072CF4CDB7DEB7EAE00C94E82A28
:101CC000CC9F9001CD9F300D300D112490E080E02D
:101CD00045E34A95F1F70000019682179307C1F793
:101CE000E0CF80919102811110C08091D800806175
:101CF0008093D8008AE18A95F1F700C08091D900DD
:101D000080FF0AC081E08093910281E0909191026E
:101D1000913009F080E0089582E0809391020E9462
:101D200062031092E103F1CF0E94710E811103C092
:101D30008091C8030895E091CB03F091CC033097D4
:101D400029F00190F081E02D0995089580E0089533
:101D50000F931F930E94710E882329F00E94D004D4
:101D60001F910F9108950E94D0040091D402109108
:101D7000D5022091D6023091D702600F711F821FC9
:101D8000931FEECF0E94710E882319F00E94DC048D
:101D900008950E94A80ECB010895682F86E090E078
:101DA0000E94E72B0895282F220F220F220F9091D7
:101DB000C7039770922B9093C703987F21E009F493
:101DC00020E09091C70320FB90F99093C7030E94F5
:101DD00048058091C7030E94CD0E08958091C703E6
:101DE00080FD13C081608093C703813019F489E0BE
:101DF0008093C7038091C7030E94CD0E8091C703D3
:101E00008695869586950E9448050895B0E0A0E0E5
:101E1000ECE0FFE00C94C62AFC016280448081E083
:101E20008483E2EBF3E07490E1E3F4E0E491C091A9
:101E3000C503C695C158D0E0CC0FDD1FCD2FDD27DF
:101E4000812C75E0972EAA24AA94B12C55245A947B
:101E5000E719EE2EF12C80917001881638F00E945F
:101E6000230BCDB7DEB7E0E10C94E22AC82CD12CCD
:101E700082E0861568F09C9CF0019D9CF00D112479
:101E8000EE58FC4F8091C30380838091C40381830B
:101E9000411023C09C9CF0019D9CF00D1124EE5834
:101EA000FC4F1382128220916E01C601820F911D98
:101EB0009C01220F331F280F391F2E5B3C4F9C9C27
:101EC000F0019D9CF00D1124EE58FC4F4281618180
:101ED00080810E9408068394BECF9C9C80019D9CBB
:101EE000100D11240E581C4FF80183818823F1F046
:101EF00081508383859DC0011124648170E00E941C
:101F0000172BFB01FF27EE54FC4F8491E82FE719B4
:101F1000E59DC0011124B7010E94172B8091C503D4
:101F2000689FB0011124F8017283BDCF0E94A02BDD
:101F3000B5010E942B2B8C179D070CF0B4CFF2E05B
:101F4000F61598F40E94A02BB5010E942B2BF801E6
:101F500080830E94A02B2091C4032695622F70E0FD
:101F60000E942B2B280FF80121839C9CF0019D9C43
:101F7000F00D1124EE58FC4F12828091C503893C6C
:101F800058F088EC9C9CF0019D9CF00D1124EE58BB
:101F9000FC4F8483838387CF8431A0F784E1F2CF21
:101FA0006091C203669570E04BE050E08EE591E0F1
:101FB0000E94B02B892B19F481E080933D030E948D
:101FC000C20E909337038093360380913E03846062
:101FD00080933E030895CF92DF92EF92FF926B01C0
:101FE0007C010E94F905B701A60188E090E00E94FB
:101FF000F92BFF90EF90DF90CF900895A3E0B0E031
:10200000E4E0F0E10C94CD2A082FD62EF42EC22E57
:102010009091C20390FF3CC02091C303281308C0D5
:102020008091C403861304C08091C503841729F0EE
:1020300080913E03826080933E03E92FE695AE2FA8
:10204000B0E0A453BE4F8C9180933C039E7F9230AE
:1020500019F59E012F5F3F4F4F2D6D2D802F0E9450
:1020600008064B8169818A810E94B00D0093C303E9
:10207000D092C403F092C503CC2051F06091C2030A
:102080007091C3038091C4039091C5030E94EB0F2C
:102090002396E9E00C94E92A823019F4F090C50304
:1020A000E5CF8630A1F1893091F18931F9F6E95116
:1020B0006E2F6170B62EE695F0E0E356FC4F14915A
:1020C000E12C60917001E61618F00E94230BCECF30
:1020D000E19EC001112470E00E94172B802FB110E7
:1020E00014C0860F20916E01622F6E0D7727771F27
:1020F0009B01220F331F260F371F2E5B3C4F4F2DA6
:102100006D2D0E940806E394DCCF861BEBCF022FD7
:10211000ADCFE2ECF3E0438121E1421B08F440E063
:1021200021E0628181810E94FE0F0895E2ECF3E0DC
:10213000438121E1420F08F44FEF21E06281818168
:102140000E94FE0F0895E2ECF3E0628121E1621B40
:1021500008F460E021E0438181810E94FE0F089530
:10216000E2ECF3E0628121E1620F08F46FEF21E01D
:10217000438181810E94FE0F0895E2ECF3E08181AA
:1021800021E04381628188500E94FE0F0895E2ECB5
:10219000F3E0818121E043816281885F0E94FE0F2C
:1021A00008958091C603882319F081508093C60357
:1021B0006091C2037091C3038091C4039091C503E1
:1021C0000E94EB0F08958091C603833018F48F5F4F
:1021D0008093C6036091C2037091C3038091C403CE
:1021E0009091C5030E94EB0F08959091C20390FF58
:1021F00031C0917081112FC092609093C203809181
:102200003E03816080933E03662351F06091C203D8
:102210007091C3038091C4039091C5030E94EB0F9A
:102220006091C203669570E04BE050E08EE591E06E
:102230000E94B02B892BB1F00E94F20581E08093BF
:10224000390320E04091C5036091C4038091C3032A
:102250000E94FE0F08958B3210F09465CECF880F48
:10226000982BCBCF0E94D00FE9CF8091C2038695E7
:10227000815009F48AE261E00E94F510089580918E
:10228000C20386958F5F8B3208F081E061E00E9487
:10229000F51008959091C20390FF08C09695981785
:1022A00028F0961718F40E943F11089561E00E94EB
:1022B000F5100895E2ECF3E087E1808311828FEF5F
:1022C000828383831482ACE3B3E012968C911297DD
:1022D000836012968C9360817181828193810E94C8
:1022E000EB0F089567EE7EEF90E080E00E94052CF2
:1022F00060E082E090E00E94E72B60E083E090E005
:102300000E94E72B109284021092830260E074E135
:1023100084E090E00E94052C60E086E090E00E945E
:10232000E72B6FEF87E090E00E94E72B40E050E062
:10233000BA0188E090E00E94F92B60E08DE090E027
:102340000E94E72B40E050E0BA0188E190E00E9453
:10235000F92B60E087E190E00E94E72B40E050E03D
:10236000BA018CE190E00E94F92B70E060E080E21D
:1023700090E00E94052C40E050E0BA0188E190E036
:102380000E94F92B0E94EE0E83E00E94D30E40E0E3
:1023900050E0BA018FE090E00E94F92B40E050E05D
:1023A000BA0183E190E00E94F92B089590E080E06B
:1023B0000E94E12B873E9E4F51F00E947211809146
:1023C000C703847089618093C7030E94CD0E86E0A5
:1023D00090E00E94D32B8093C703803220F0877057
:1023E00088618093C7039091C703892F817090FF04
:1023F00004C0892F8695869586950E944805089584
:102400009091F70292FB222720F9281779F080FBA0
:1024100092F99093F7026091F6027091F70284E0CE
:1024200090E00E94052C82E00E94430A089580916A
:10243000810290918002892B8093FA01909182020F
:10244000992391F0892B8093FA0120E08CEF91E0A1
:10245000FC013191CF0131112F5FF2E082309F07F3
:10246000B9F721110E94070948E050E068E772E0DF
:102470008AEF91E00E94BD2B892BA9F088E0EAEF5A
:10248000F1E0A8E7B2E001900D928A95E1F7E091C2
:10249000CB03F091CC03309731F00280F381E02D33
:1024A0008AEF91E00995089510928102ECEFF1E036
:1024B00086E0DF011D928A95E9F790E080E00E94B6
:1024C0000D0590E080E00E94E804109280020E94D6
:1024D00017120895AAE2B0E0E0E7F2E10C94D32AE3
:1024E00083EE93E02091F100FC012193CF01F3E012
:1024F0008B3E9F07B9F78091E403833009F470C0E5
:10250000B8F4813009F447C0823009F4B1C0809139
:10251000E80083FF7EC28091E3039091E4039A3048
:1025200008F077C2E92FF0E0E058F34D0C943F2B10
:102530008A3009F48CC08B3009F46FC0893039F7C8
:102540008091E303813219F78091E7039091E803CA
:102550000297E8F68091E800877F8093E8008091F9
:10256000E80082FF38C09091F3008091F20002975A
:1025700031F48091F100813011F0863021F48091A6
:10258000F1008093D6038091E8008B778093E80078
:102590000E94B203BCCF8091E303813A09F0B7CF28
:1025A0008091E800877F8093E8008091E703909115
:1025B000E803892B61F468E087ED93E070E00E9406
:1025C0005E048091E8008B778093E800A0CF60E004
:1025D00090E080E0F3CF8091E1038111C0CF97CFED
:1025E0008091E303813A09F092CF8091E7039091C3
:1025F000E803892B09F08BCF8091E800877F8093D7
:10260000E8008091E80080FFFCCF80917101809309
:10261000F1008091E8008E77B9CF8091E303813299
:1026200009F075CF8091E7039091E803892B09F0B9
:102630006ECF8091E800877F8093E8000E94B2030C
:102640008091E503809371010E94541260CF8091C4
:10265000E303813209F05BCF8091E800877F8093AC
:10266000E8000E94B2038091E6038093D5034FCF28
:102670008091E303813A09F04ACF8091E800877F97
:102680008093E8008091E80080FFFCCF8091D50323
:10269000BECF803899F0823809F0BBC18091E70342
:1026A0008F70873008F0B5C18093E9008091EB000E
:1026B00085FB882780F91092E90006C08091DF032E
:1026C0009091E003911182609091E800977F909340
:1026D000E8008093F1001092F1008091E8008E777D
:1026E00094C1882309F482C1823009F092C180919B
:1026F000E503811185C18091E7038F702FEF280FCB
:10270000263008F086C18093E9002091EB0020FF7D
:1027100077C1933031F48091EB0080628093EB00BD
:102720006FC19091EB0090619093EB0021E030E05D
:1027300001C0220F8A95EAF72093EA001092EA007E
:102740008091EB008860EACF811163C11091E503AD
:102750001F778091E3008078812B8093E300809144
:10276000E800877F8093E8000E94B2038091E80030
:1027700080FFFCCF8091E30080688093E30082E0DB
:10278000111183E08093E10344C18058823008F046
:1027900040C18091E5039091E6038C3D23E09207D0
:1027A000A1F583E08A838AE289834FB7F894DE013A
:1027B000139620E03EE051E2E32FF0E05093570003
:1027C000E49120FF03C0E295EF703F5FEF708E2F22
:1027D00090E0EA30C0F0C7968D939D932F5F24312F
:1027E00059F74FBF8091E800877F8093E8006AE245
:1027F00070E0CE0101960E945E048091E8008B7724
:102800008093E80006C1C096E7CF4091E70350915E
:10281000E803292F33272330310509F444C078F524
:102820002130310509F46FC08BE390E0E4E2F5E07C
:102830002230310509F0EDC02091E800277F209378
:10284000E8002091E9033091EA038217930708F426
:102850009C0140E02115310509F064C0411162C0BE
:102860008091E80082FDC9CF8091E103882329F29D
:10287000853019F28091E80083FFF2CFBECF21327C
:102880003105A9F12232310509F0C3C041155105C6
:1028900009F443C04130510509F0BBC082E390E028
:1028A000E2EBF4E0C9CF992781309105C1F00097A0
:1028B00059F0029709F0ADC0E1E7F5E0E4918E2F01
:1028C00090E0E1E7F5E007C0EBE9F5E0E4918E2F59
:1028D00090E0EBE9F5E0009709F49BC0ADCFEBE8A1
:1028E000F5E0E4918E2F90E0EBE8F5E0F4CF4115B0
:1028F000510571F04130510509F08BC089E090E03D
:10290000EFE4F5E099CF82E190E0EFE5F5E094CFD8
:1029100089E090E0E6E3F5E08FCF80E490E0E4EE3C
:10292000F4E08ACF8091E103882309F466CF8530F3
:1029300009F463CF8091E80083FD5FCF8091E800C8
:1029400082FD8ECF8091E80080FF84CF9091F300CC
:102950008091F2002115310519F08830910550F071
:1029600041E0089709F040E08091E8008E7780937D
:10297000E80070CF44914093F10031962150310925
:102980000196E8CF803809F044C08091E800877F45
:102990008093E8008091E2038093F1009ECE811144
:1029A00038C01091E5031230A0F58091E800877FD0
:1029B0008093E8001093E2030E94B203112311F008
:1029C00084E005C08091E30087FDFACF81E0809329
:1029D000E10342E061EC81E00E94D10342E261EC5C
:1029E00082E00E94D1038091E10313C08091E5034E
:1029F000813079F481E0933009F080E08093E00346
:102A00001092E9008091E800877F8093E8000E949F
:102A1000B2038091E80083FF0AC08091E800877FBD
:102A20008093E8008091EB0080628093EB00AA968F
:102A3000E3E00C94EF2A0E9454122FEF84E39CE011
:102A4000215080409040E1F700C0000088E19CE008
:102A50000FB6F894A895809360000FBE9093600025
:102A6000FFCF882321F00E940D090E9417120895BC
:102A7000882339F090918102982B909381020E94D3
:102A800017120895882309F44DC0823879F40E9402
:102A9000940E81FF47C089E30E9421090E9417120A
:102AA00089E30E9414090E9417120895833859F48B
:102AB0000E94940E80FF36C083E50E9421090E9487
:102AC000171283E5EECF843859F40E94940E82FFEA
:102AD00029C087E40E9421090E94171287E4E1CFF0
:102AE0009CEF980F913AE8F290E2980F983050F4EA
:102AF000877091E001C0990F8A95EAF7892F0E94AB
:102B00000D09D1CF9BE5980F933028F490E080E039
:102B10000E940D050895885A8B3120F490E080E0E2
:102B20000E94E8040895CF93C82F8823C9F0823803
:102B3000C9F40E94940E81FD13C089E30E9421090B
:102B40000E9417122FEF87EE93E0215080409040B3
:102B5000E1F700C0000089E30E9414090E941712E7
:102B6000CF9108958338A1F40E94940E80FDF8CF90
:102B700083E50E9421090E9417122FEF81EE94E055
:102B8000215080409040E1F700C0000083E5E4CF91
:102B90008438A1F40E94940E82FDE2CF87E40E9463
:102BA00021090E9417122FEF81EE94E021508040FE
:102BB0009040E1F700C0000087E4CECF8CEF8C0F8F
:102BC000813A68F4ECEFF1E08191C817A1F122E0BD
:102BD000E230F207C9F78C2F0E942109BFCF80E2B3
:102BE0008C0F883068F4C77021E030E001C0220FFC
:102BF000CA95EAF780918102822B80938102AECF41
:102C0000EBE5EC0FE33040F4F0E0EF57FE4F80814E
:102C100090E00E940D05A4CFC85ACB3108F0A0CF98
:102C2000EC2FF0E0EE0FFF1FEC57FE4F80819181FB
:102C30000E94E80495CF8C2F0E9414090E9417125D
:102C4000CACF1F93CF93DF93182FD0E0C0E0893312
:102C500011F4C0E5D0E0812F0E949315209739F43C
:102C6000812F0E944215DF91CF911F9108958FE926
:102C70009FE00197F1F700C000002197EFCFB0E08F
:102C8000A0E0E5E4F6E10C94CC2AEC018AE0A82E61
:102C9000FE012491222309F497C0213009F03EC09F
:102CA00031968491813031F42296FE0184910E9404
:102CB000211607C0823039F42296FE0184910E94C9
:102CC00093152196E5CF833031F42296FE0184914D
:102CD0000E944215F6CF843009F074C02296FE019E
:102CE000249190E080E0FE0131962053330B2A308E
:102CF000310548F0019728F3EFE9FFE03197F1F74C
:102D000000C00000F7CFA89EA001A99E500D11247D
:102D1000C901840F951F2491EF01E5CFE22FF0E068
:102D2000E153FA4FB490822F86958695869590E070
:102D3000FC01E154FA4FE4902770F12C022E02C0FE
:102D4000F594E7940A94E2F731E0E322FF24FC01D2
:102D5000E155FA4FC490D12C022E02C0D594C794ED
:102D60000A94E2F7E1E0CE22DD24FC01E156FA4FBD
:102D7000049110E002C0159507952A95E2F70170BD
:102D80001127E114F10419F081EE0E949315C1148A
:102D9000D10419F086EE0E9493158B2D0E94211606
:102DA000C114D10419F086EE0E944215E114F10419
:102DB00019F081EE0E9442150115110509F481CF29
:102DC0008CE275CFEF017DCFCDB7DEB7EAE00C9492
:102DD000E82A0F931F93CF93DF93C62FD42F022F90
:102DE000FC0182818823A9F06093ED030E94DC043A
:102DF0009093EC038093EB03C77081E001C0880FD0
:102E0000CA95EAF70E943815DF91CF911F910F9173
:102E100008958091ED03681332C08091EB03909187
:102E2000EC030E94C104883C910548F510E21D0F97
:102E3000CD17B9F080E28C0F883040F4C77081E084
:102E400001C0880FCA95EAF70E943115183048F47E
:102E500081E09D2F977001C0880F9A95EAF70E9434
:102E60003815802F0E942116183070F6D77081E037
:102E700001C0880FDA95EAF70E943115C5CFC770F7
:102E800081E001C0880FCA95EAF7F6CFA4E2B0E06E
:102E9000ECE4F7E10C94C62A8E010F5F1F4F88E126
:102EA000D8011D928A95E9F76DE4E62E61E0F62ED1
:102EB000680173E5472E71E0572E66246394712CE8
:102EC000FDE48F2EF1E09F2EF70181917F018F3F6E
:102ED00009F445C0F894E82FE295EF70F0E021A1E5
:102EE0008F70A30102C0440F551F8A95E2F7CA01F3
:102EF000922F982B91A392A18095892382A37894F5
:102F000000C0E4E4F1E021E030E0B12CA12C4191DB
:102F10004F3F09F46DC0A42FA295AF70B0E090961A
:102F20008C9190E04F7002C0959587954A95E2F795
:102F300080FD5EC0C901A82AB92A220F331F8E1650
:102F40009F0629F7F701319780818F3F11F00E948A
:102F5000A00650EA5A95F1F7D601AD92BC92B2E0C4
:102F6000CB0ED11C4E145F0409F0AECF48E150E007
:102F7000B8018AED92E00E94BD2B009741F028E154
:102F8000F801AAEDB2E001900D922A95E1F70091C7
:102F9000F302892B81F181E0809389020E94DC0495
:102FA0009093880280938702809187029091880293
:102FB0000E94C104059718F110E0000F111F07507F
:102FC0001D4F4CE050E06AED72E0C8010E94BD2B3D
:102FD000D12C892B51F08CE0EAEDF2E0D801019080
:102FE0000D928A95E1F7DD24D3941092890208C0EE
:102FF00090E080E0A0CF809189028111D5CFD12CC3
:103000000E94710EC82EE091F302AE01475E5F4F41
:103010007A01882309F494C08CE0DA011D928A9524
:10302000E9F70E2F10E0000F111F07501D4F809180
:10303000D3028A3008F04FC047E15BE1B701C80115
:103040000E943E0E882309F46AC048EE52E2B7019E
:10305000C8010E943E0E882309F461C04CE459E186
:10306000B701C8010E943E0E882309F458C045E507
:103070005AE1B701C8010E943E0E882309F44FC0EF
:1030800041E35AE1B701C8010E943E0E882309F4CA
:1030900046C043E05AE1B701C8010E943E0E8823B2
:1030A000F1F11092D3028091F20290E0880F991F03
:1030B0004CE050E0B70187509D4F0E94BD2B21E0AE
:1030C00020939002892BE1F4C12C8C2D8D29A4969C
:1030D000E0E10C94E22A80918A0290918B020E9496
:1030E000C104843F914008F0A7CF809190028823CB
:1030F00059F38CE0F70111928A95E9F7109290024A
:10310000A091F202B0E0AA0FBB1FA750BD4F8CE008
:10311000FE01799601900D928A95E1F7D6CF8091C4
:10312000D3028F3F31F08F5F8093D3028A3008F44F
:10313000BACF0E94DC0490938B0280938A02D5CF91
:10314000F0E0EE0FFF1FE750FD4F8CE0A7EAB2E082
:1031500001900D928A95E1F76CE070E087EA92E0C9
:103160000E9432058093A6024091320350E06091A4
:10317000310370E0635D7C4FC7010E94CA2B898DCB
:103180008093B40261E070E0C7010E943205809331
:10319000B3028090B5029090B602A090B702B090B2
:1031A000B80280918C0290918D02A0918E02B09114
:1031B0008F0288169906AA06BB06D1F080928C026F
:1031C00090928D02A0928E02B0928F020E94710E98
:1031D00081110EC00E94D004861A970AA80AB90A63
:1031E0008092D4029092D502A092D602B092D702D9
:1031F0008091B9028093C8038091BA020E94480569
:1032000088E0EBEBF2E0DE01599601900D928A9591
:10321000E1F78091BB028695F090BC02E090BD0280
:10322000B090BE020091C1021091C2021092C2027F
:10323000112309F44ACF10FF0BC0298D9091C203CE
:1032400020FF1AC091609093C20360E00E94F510C5
:1032500011FF06C020E04B2D6E2D8F2D0E94FE0F1A
:1032600012FF04C00023A9F00E94D00F13FF2DCF3E
:1032700081E08093390329CF9E7F9093C2030E94FF
:10328000F20580913E03816080933E030E94230BF0
:10329000DFCF0E94F205EACFA4E0B0E0E2E5F9E179
:1032A0000C94D32A4091C3025091C4026091C5028C
:1032B0007091C6022FB7F8948091D0039091D103FA
:1032C000A091D203B091D3032FBF841B950BA60B03
:1032D000B70B11E084369105A105B10570F10E948C
:1032E000A80E6E5F7F4F8F4F9F4F69837A838B83CA
:1032F0009C8380912501909126018A559D4F409194
:10330000240150E04530510510F044E050E0BE018A
:103310006F5F7F4F0E94CA2B84E090E00E944E2A8C
:10332000182F882351F00E94D0046093C302709339
:10333000C4028093C5029093C602812F2496E3E0D5
:103340000C94EF2A4F925F926F927F928F929F928E
:10335000AF92BF92EF92FF920F931F93CF93DF93A1
:103360007B01FB0140805180628073809FB7F8949D
:103370008090D0039090D103A090D203B090D3035B
:103380009FBF84189508A608B708F4E68F16910425
:10339000A104B10418F4C1E0442329F1C82F880F17
:1033A000DD0BFE0183E0EE0FFF1F8A95E1F7EC5F76
:1033B000FE4F818192818A559D4F408150E00417D4
:1033C000150708F4A801B9010E94CA2BCE010E947A
:1033D0004E2AC82F882339F00E94D004F701608359
:1033E0007183828393838C2FDF91CF911F910F91F3
:1033F000FF90EF90BF90AF909F908F907F906F90D5
:103400005F904F900895A8E0B0E0E9E0FAE10C94F5
:10341000D22A85E0E2ECF3E0DE01119601900D92F4
:103420008A95E1F780913C0390913D03A0913E0382
:103430008E839F83A88741E08885811101C040E089
:1034400008E010E09E012F5F3F4F6FEC72E087E0D5
:103450000E94A219811110923E032896E4E00C9478
:10346000EE2AA1E0B0E0E7E3FAE10C94D22A8091E1
:10347000C70380FF18C0869586958695898341E0AD
:103480009091BA02981301C040E001E010E09E0163
:103490002F5F3F4F6BEC72E086E00E94A2192196ED
:1034A000E4E00C94EE2A80E0E9CFA1E0B0E0EBE5A7
:1034B000FAE10C94D22A0E94940E898341E0909103
:1034C000B902981301C040E001E010E09E012F5FB7
:1034D0003F4F67EC72E085E00E94A2192196E4E07C
:1034E0000C94EE2A4F925F927F928F929F92AF92AE
:1034F000BF92CF92DF92EF92FF920F931F93CF93E1
:10350000DF930F92CDB7DEB7C62E4A015901482E80
:10351000880F5508C2010E944E2A782E882309F48C
:1035200080C0C20133E0880F991F3A95E1F7FC0192
:10353000EC5FFE4F438150E04115510511F041E031
:1035400050E08C5F9E4FFC01648175816A557D4F10
:10355000CE0101960E94CA2BF40140815181628103
:1035600073812FB7F8948091D0039091D103A091EB
:10357000D203B091D3032FBF841B950BA60BB70BBF
:1035800084369105A105B10540F4B701C8010E9438
:1035900032059981891709F444C00C2C000CDD0810
:1035A000C6010E944E2A782E811113C0712C872DDE
:1035B0000F90DF91CF911F910F91FF90EF90DF90CF
:1035C000CF90BF90AF909F908F907F905F904F90E3
:1035D0000895C60123E0880F991F2A95E1F7FC01A1
:1035E000EC5FFE4F438150E0E416F50608F4A701B6
:1035F0008C5F9E4FFC01648175816A557D4FC501CA
:103600000E94CA2BB701C8010E9432059981891313
:10361000CDCF0E94D004F4016083718382839383B1
:10362000C6CFA701B801C5010E94CA2BC0CFACE02C
:10363000B0E0EDE1FBE10C94CE2A6B018CE0E82ECA
:10364000F12C07EA12E09E012F5F3F4F4EE952E056
:1036500061E080E00E94721A882349F09CE0FE013C
:103660003196A2E9B2E001900D929A95E1F79CE0C3
:10367000E2E9F2E0D60101900D929A95E1F72C96DD
:10368000E8E00C94EA2AA5E0B0E0E9E4FBE10C9460
:10369000CA2A7C01FC0183819481892B31F08081CD
:1036A000918189238F3F09F0CEC42596ECE00C94DC
:1036B000E62A0E946409182F682F89819A810E9446
:1036C000120A69817A81812F0E949C078C01F7017F
:1036D00082810034FEE71F07D1F101342EE7120783
:1036E000E9F1F7018281882309F4E6C40230F8E7A2
:1036F0001F0709F49EC0B8F5011538E7130709F450
:1037000051C0013088E7180709F461C0F801E85199
:10371000FC47E730F10508F4D5C41092ED03C80169
:103720009057839708F0A0C484E090E00E94E12BBA
:103730009093F7028093F602F801E150F047E232ED
:10374000F10508F0A5C0E657F34D0C943F2B8823F4
:1037500041F28AEB90E00E943F16C3CF882309F222
:103760008CEA90E0F8CF043098E7190709F44DC0CF
:1037700080F10530F8E71F0749F69091C703892FBC
:103780008695869586958F5F8F719770843008F047
:103790005EC0880F880F880F892B8093C7038091A4
:1037A000C7031FC083E00E94D30E80917702877009
:1037B00009F47BCFF7018281882309F476CF8091C9
:1037C000F70282FF72CF82E00E94430A6ECF80E050
:1037D000EACF8091C703982F987F79F08850809323
:1037E000C703887F91E009F490E08091C70390FBC4
:1037F00080F98093C7030E94CD0E8091C703869500
:10380000869586950E944805D0CF8091C703982F52
:10381000969596959695933040F49F5F990F990FE2
:10382000990F8770892B8093C7038091C7038160AC
:10383000E0CF8091C70380FF07C08E7F8093C703CE
:103840000E94CD0E80E0DECF0E94EE0EAECF9093B0
:10385000C703A5CF26E241EE61EEC7010E94E9163B
:10386000A4CF27E245EE65EEF8CF26E241EE60EE0A
:10387000F4CF27E245EE64EEF0CF26E241EE62EEB1
:10388000ECCF27E245EE66EEE8CF28E241E0EBCF51
:103890008091F60281608093F60295C08091F702D4
:1038A00088608093F7028FC08091F6028260F3CF28
:1038B0008091F6028460EFCF8091F6028860EBCFB2
:1038C0008091F7028160EDCF8091F7028260E9CFAD
:1038D0008091F6028061DFCF8091F6028062DBCFBB
:1038E0008091F6028064D7CF0E9454128091F60234
:1038F0008068D1CF8091F6028C60CDCF8091F702A5
:103900008360CFCF8091F6028E7FC5CF8091F70282
:10391000877FC7CF8091F6028D7FBDCF8091F60261
:103920008B7FB9CF8091F602877FB5CF8091F70268
:103930008E7FB7CF8091F7028D7FB3CF8091F60253
:103940008F7EA9CF8091F6028F7DA5CF8091F60260
:103950008F7BA1CF0E9454128091F6028F779BCF6C
:103960008091F602837F97CF8091F7028C7F99CF69
:103970008091F60282FB992790F921E0922790FB33
:1039800082F990FB83F987CF8091F702982F909569
:1039900091708E7F892B90FB81F983CF9091F602F5
:1039A000892F8F7B96FF806476CF0E94541290916E
:1039B000F602892F97FB87F980586DCF61E08EE082
:1039C00090E00E94E72B6091F6027091F70284E08C
:1039D00090E00E94052C0E945412E7CE60E0EFCFE9
:1039E0009091F602892F8F7E94FF806154CF909141
:1039F000F602892F8E7F90FF81604DCF9091F70264
:103A0000892F877F93FF88604CCF85E33DC38091EA
:103A10000202811104C089E20E94140937C385E3C0
:103A2000FBCF8091C20380FF17C08E7F8093C203BB
:103A30006091C2037091C3038091C4039091C50348
:103A40000E94EB0F0E94F20580913E0381608093FB
:103A50003E030E94230BA9CE81608093C20361E0E4
:103A600086950E94F510A1CE45E351E16FE371E127
:103A70000E94EC059ACE4FE351E165E371E1F8CF86
:103A80004DEB50E167EC70E1F3CF47EC50E16DEBAB
:103A900070E1EECF43EA50E160EB70E1E9CF40EB3B
:103AA00050E163EA70E1E4CF49E850E166E970E192
:103AB000DFCF46E950E169E870E1DACF41ED50E14E
:103AC00063EE70E1D5CF43EE50E161ED70E1D0CF10
:103AD00061E081E0C6CF65E082E00E944A1165CED8
:103AE00068E086E0FACF6EE089E0F7CF64E18FE02E
:103AF000F4CF67E185E1F1CF61E088E1B2CF62E226
:103B000089E1EBCF61E083E2ACCF6AE285E2E5CF09
:103B100003302CE7120709F475C008F058C00115EE
:103B20008CE7180709F461C001301C4709F470C024
:103B3000F701828100811181882309F477C0C801CF
:103B40000E946409D82E682FC8010E94120AB80189
:103B50008D2D0E949C070E94E607B82E192F882EF3
:103B6000F701A280958092949FE09922809177023C
:103B70008770F1F0DA2CAA20E1F0812F807F803469
:103B800051F080E28B0D883098F0911004C0812FA5
:103B9000807E803269F08091F70282FF09C082E066
:103BA0000E94430A809177028770DD24D3948111AB
:103BB000D12CC12EC2948FE0C822FBE0FC1508F482
:103BC0009EC0EC2DF0E0E455F34D0C943F2B0B35EB
:103BD000ECE71E0749F10C35FCE71F07D9F00A3561
:103BE0001C4709F0A5CF81E01CC00E9454123FEF92
:103BF00084E39CE0315080409040E1F700C0000039
:103C00000E94FF0A6FEF7FEF90E080E00E94052C9A
:103C10000E941B158091F70282FB882780F991E0B2
:103C200089270E94001284CF80E0FBCFC8010E9448
:103C3000CC09D82E8CCF012F0F70107F11F0029578
:103C4000007FAA20B9F0002369F080E28B0D883054
:103C500010F0811009C080918102082B009381022D
:103C60000E9417128B2D49C080918002082B00936F
:103C70008002F6CF8B2D0E944215002309F43FC02D
:103C800080E28B0D883010F0811004C0802F0E94DC
:103C90000D0906C0009580918002082300938002E0
:103CA0000E9417122CC0012F0F70107F103211F0DC
:103CB0000295007F882089F021E0821609F47EC0F9
:103CC000AA2009F488C0992009F47EC0F7018581F3
:103CD00080FFC8CF8F70858377C02091F70222FDC7
:103CE00045C0AA20E9F1002339F080918102082B18
:103CF000009381020E94171280E00E949315EC2D20
:103D0000E850FF0B349720F40E94940E0E949E0A04
:103D1000DD20A9F08091770280FD11C0F7011282A9
:103D20008595859585950E945F0AC7010E94431B72
:103D3000809177028595859585950E94310A85E069
:103D4000F701DE01119601900D928A95E1F7098144
:103D50001A81C8010E94CC09B8010E949C07A5CC19
:103D600080E00E944215002351F290CFAA20A1F0DA
:103D700090918202802F892B911003C00E943815E8
:103D8000BECF31E09312FACF22FFB9CF891709F4E1
:103D9000B6CF80938202B3CF911006C00E9407096C
:103DA000802F0E943115ABCF81E0981609F4A7CF80
:103DB000802F0E9431150E940709A1CFAA2031F05F
:103DC00095E0991508F49BCF802FD8CFE4E0E91552
:103DD00008F495CFE5CF992019F3F9E38F122CC1A0
:103DE0002FEF37EE83E0215030408040E1F700C0F4
:103DF000000022C1812F86958695837069F08130FD
:103E000009F07DCF8B2D912F9370A11002C080E01F
:103E100090E00E94E80473CF8B2D912F9370A11036
:103E200002C080E090E00E940D0569CF912F937051
:103E300009F03FC0A11063CF4B2D429546954770C6
:103E4000440F440F8B2D8F7090E0042E02C0880F1A
:103E5000991F0A94E2F730E020E0B4FE09C02FE099
:103E600030E002C0220F331F4A95E2F720953095CB
:103E7000169516951370123099F078F440918302DC
:103E800050918402113039F0822B932B8423952397
:103E90000E946F0A34CF842B952B822B932BF8CF63
:103EA000822B932B209183023091840282279327C7
:103EB000EFCF9695AA2011F0912F9170992309F4D4
:103EC0001ECF4B2D429546954770440F440F8B2DC6
:103ED0008F7090E0042E02C0880F991F0A94E2F7B9
:103EE00030E020E0B4FE09C02FE030E002C0220F35
:103EF000331F4A95E2F72095309516951695137065
:103F0000123099F078F44091F4025091F50211309A
:103F100039F0822B932B842395230E942C0AEFCE19
:103F2000842B952B822B932BF8CF822B932B2091D4
:103F3000F4023091F50282279327EFCF1F70AA2059
:103F400029F0812F0E945F0A8B2D18CF8B2D0E94A4
:103F50003115812F0E94310AD2CE8B2D92EF891616
:103F600099F1981570F0E0EF8E16D1F0F1EF8F1601
:103F700091F0AA2009F45BC0911074CE812F8F714B
:103F800027C023EF821639F134EF8312F2CF8091EC
:103F9000F70282FD2EC0812F8F71AA20D9F218C09E
:103FA000AA2069F084E0891508F4A9CE1F7181E088
:103FB00090E002C0880F991F1A95E2F7B8CF95E0FC
:103FC000991508F49CCEF2CF812F8F71A110C2CF2A
:103FD0000E945F0A94CE90E080E0AA2009F49DCF71
:103FE0001F7181E090E002C0880F991F1A95E2F7D7
:103FF00094CFAA2089F01F71812F0E945F0A8091BF
:10400000F70282FF07C0E8E01E9FC0011124836011
:1040100080937702812FDCCF81E00E94430AF1E098
:10402000F91508F06CCE82E00E94430A68CE992010
:1040300039F0893309F4D4CE8B2D0E9442155FCE1E
:10404000812F8F7187CF85E0DE01119601900D924F
:104050008A95E1F7F701228189819A81211129CB83
:104060000E94CC09182F2DCB0631FCE71F0709F061
:104070004FCD809181028A7A91E009F490E090938B
:1040800002028111C2CC89E20E9421090E9417120A
:104090008CCB06312CE7120709F4B9CC8091810250
:1040A0008272F801E052F847E531F10508F040CDA1
:1040B000E854F34D0C943F2BF801E851FC47E730EE
:1040C000F10538F7E353F34D0C943F2B1F93CF9337
:1040D000DF9380914402807F09F04BC080914102C0
:1040E000882309F446C080917602C0914502409130
:1040F0003F02509140026091420270914302D42FDE
:10410000D52316E0C817A9F190E061157105A9F152
:10411000DF3F99F1189FF001199FF00D1124DF0185
:10412000AA5BBD4F11962C911197251326C02C9197
:10413000241323C012962C91129721111EC013969E
:104140002D913C91261B370B283C3105B0F4809112
:1041500044028F70806180934402E55BFD4F808153
:104160008F70806180838FE392E00E94431B0E94E6
:104170005A09DF91CF911F91089501968770C2CFA0
:10418000A1E1B0E0E6ECF0E20C94CA2A8C0185E0F3
:10419000F801DE011D9601900D928A95E1F7F80174
:1041A000E2808FE3882E82E0982E40914202509167
:1041B00043024115510509F430C190913F0220910D
:1041C0004002892F82238F3F09F427C1D080C1800C
:1041D000A380B480F0904102B501641B750BFF20F1
:1041E00009F4E7C080914402382F307F683C7105A4
:1041F00008F0ABC0311178C0FE2C2C1114C09D11F9
:1042000012C0E11010C08F70806180934402C4011D
:104210000E94431B80914402F80185838F2D619693
:10422000ECE00C94E62AA114B104C9F18D2D8C2187
:104230008F3FA9F181E08E2580FF05C04E2D6C2DAA
:104240008D2D0E943A09A114B10459F18D2D8C21B4
:104250008F3F39F181E08E25F82FF170BF2E80FF5E
:1042600039C04E2D6C2D8D2D0E943A09A82E81113A
:1042700031C0DD86CE868D859E850E949809292FC6
:1042800022952F70243078F49F702230A8F0992363
:10429000B9F0F8019581907F99F4FA2CBFCF80E0B6
:1042A000CBCF80E0D9CF2A5F2F70223068F0C801D1
:1042B0000E94431BAB2CF1CF992311F0882369F3A3
:1042C000805E883050F3F3CF803F38F3815F8330D6
:1042D00070F7E3CFEE2009F4A1CF80914402816012
:1042E00080934402F12C9ACF2C1105C09D1103C07C
:1042F000EE2009F477C0C8010E94740A882309F1EE
:10430000EE20F9F080914402803270F020913F025B
:104310003091400238872F831986BB86AA868C8706
:10432000CE0107960E94431B86E0F801AFE3B2E09E
:1043300001900D928A95E1F70E946620FF24F39484
:104340006DCFC8010E94431BF9CF31110AC08FE322
:1043500092E00E94431B86E0F40111928A95E9F7EE
:10436000C1CF2C110EC09D110CC0E1100AC0858375
:10437000C8010E94431B86E0F40111928A95E9F777
:104380004DCFC8010E94740A8823D9F2EE20C9F2E9
:1043900080914402803240F220913F0230914002ED
:1043A0003A8329831B82BD82AC828E83CE01019623
:1043B000B9CF683C7105F8F6FE2CEE2011F22C11F5
:1043C0001EC09D111CC08091440280FD0FC0982F1B
:1043D000907F61F08583903F31F0982F907F905FC0
:1043E0008F70892B8583C8010E94431B86E0F801EA
:1043F000AFE3B2E001900D928A95E1F70FCFC801CB
:104400000E94740A811190CF809144028160809350
:104410004402C8010E94431B01CFEE2009F491CF52
:10442000C8010E94740AF82E882309F48ACF86E016
:10443000F801AFE3B2E001900D928A95E1F7809127
:104440003F02909140020E9498090E946620E6CEA9
:10445000A7E1B0E0EEE2F2E20C94D32A4B8B5C8B46
:104460006D8B7E8B8F8B6111109280021A8A198A54
:1044700085E0FE017396DE011D9601900D928A95EE
:10448000E1F786E0FE013D96DE01179601900D9260
:104490008A95E1F7CE0107960E94C020882359F043
:1044A00016E08091760290914502891343C0679689
:1044B000E3E00C94EF2A86E0FE013796DE011196C8
:1044C00001900D928A95E1F78A859B85892B41F3AE
:1044D0008F81988589238F3F19F32091450230E021
:1044E000C9010196877099274091760248171906ED
:1044F00071F40E945412109245021092760286E0E6
:10450000EFE3F2E0DF011D928A95E9F7C9CF96E06B
:10451000929FD001939FB00D1124AA5BBD4FFE0165
:10452000319601900D929A95E1F7809345020E9491
:104530005A09B6CF819FC00111248A5B9D4F0E940A
:10454000C020882309F4B3CF8091760290E00196D1
:104550008770992780937602A4CFAAE0B0E0E3EBBE
:10456000F2E20C94D22A182F062F662339F10E940A
:10457000DC041E832DEF2F8321E0288781609A873A
:1045800089874E815F81688579858A850E94282286
:104590000023C9F00E94DC0419832DEF2A831B82BB
:1045A00081609D838C8349815A816B817C818D815F
:1045B0000E9428222A96E4E00C94EE2A0E94DC0451
:1045C0001E832CEFD8CF0E94DC0419832CEFE6CF9A
:1045D000A1E0B0E0EEEEF2E20C94CD2AEE24E394FA
:1045E000F12C04EB12E09E012F5F3F4F42EA52E0B4
:1045F00063E082E00E94721AC82E882339F100E03D
:1046000080E01DC0D090D902D00E2D2D30E0A90140
:10461000435D5C4F7A01E1E0F0E0EC0FFD1FE00F3D
:10462000F11D1081FA019081191BB12E1B149CF011
:10463000912F17FD90E0191B111118C00F5F909179
:10464000D8020917F8F281110E9404098C2D2196D5
:10465000E9E00C94E92ABA94F70180818F5F8083A6
:1046600060E08D2D0E94AD228C2DE0CF1F5FF70101
:1046700080818150808361E08D2D0E94AD228C2D40
:10468000DBCFA5E0B0E0E7E4F3E20C94D22A0E948D
:10469000DC048C018091850290918602801791073D
:1046A000A1F08FEF89838A831B820E94DC048160E2
:1046B000782F9D838C8349815A816B818D810E94E3
:1046C000282210938602009385022596E4E00C943C
:1046D000EE2A1F920F920FB60F9211242F933F9341
:1046E0004F935F936F937F938F939F93AF93BF93FA
:1046F000CF93DF93EF93FF93D091E900DF70809128
:10470000EC00C82FC17080FDC0E81092E9008091D4
:10471000F000877F8093F00078940E946A121092D4
:10472000E9008091F00088608093F000CD2BCF707D
:10473000C093E900FF91EF91DF91CF91BF91AF91CD
:104740009F918F917F916F915F914F913F912F91A9
:104750000F900FBE0F901F9018951F920F920FB6DB
:104760000F9211242F933F934F935F936F937F93F7
:104770008F939F93AF93BF93EF93FF938091E1004B
:1047800082FF09C08091E20082FF05C08091E100B4
:104790008B7F8093E1008091DA0080FF24C08091BC
:1047A000D80080FF20C08091DA008E7F8093DA00ED
:1047B0008091D90080FF9DC080E189BD82E189BDE3
:1047C00009B400FEFDCF81E08093E1038091D40322
:1047D000811109C00E9462030E9403048091E200DB
:1047E00084608093E2008091E10080FF17C0809197
:1047F000E20080FF13C08091E2008E7F8093E20090
:104800008091E20080618093E2008091D800806214
:104810008093D80019BC85E08093E1038091E1008A
:1048200084FF2BC08091E20084FF27C080E189BD16
:1048300082E189BD89B5982F917080FFFBCF80916F
:10484000D8008F7D8093D8008091E1008F7E809387
:10485000E1008091E2008F7E8093E2008091E2008F
:1048600081608093E2008091E203882309F447C0CD
:1048700084E08093E1038091E1038091E10083FF74
:1048800027C08091E20083FF23C08091E100877FF1
:104890008093E10082E08093E1031092E203809133
:1048A000E1008E7F8093E1008091E2008E7F809313
:1048B000E2008091E20080618093E20042E060E0EB
:1048C00080E00E94D1038091F00088608093F00026
:1048D000FF91EF91BF91AF919F918F917F916F91D8
:1048E0005F914F913F912F910F900FBE0F901F90AE
:1048F000189519BC1092E1031092D40374CF8091E3
:10490000E30087FD93E09093E103B5CF78941F9285
:104910001FB61F9211248F939F93AF93BF938091E3
:10492000D0039091D103A091D203B091D30301960B
:10493000A11DB11D8093D0039093D103A093D20306
:10494000B093D303BF91AF919F918F911F901FBEE2
:104950001F9018951F921FB61F9211248F939F933B
:10496000AF93BF938091CF03811113C08091D00387
:104970009091D103A091D203B091D3034196A11D90
:10498000B11D8093D0039093D103A093D203B09331
:10499000D303BF91AF919F918F911F901FBE1F9026
:1049A0001895CDB7DEB72F970FB6F894DEBF0FBEC0
:1049B000CDBF85B7806885BF85B7806885BF84B760
:1049C000877F84BF0FB6F894A895809160008861B6
:1049D00080936000109260000FBE80E890E00FB6F8
:1049E000F89480936100909361000FBE8EE996E089
:1049F0009093F9018093F8010E9462030E940304DE
:104A00008091E20084608093E20078948091E103D9
:104A10008823A1F01091E9001F709091EC00892F7C
:104A2000817090FD80E8182B1092E9008091E800D9
:104A300083FD0E946A121F701093E90082E084BD1A
:104A400093E095BD9AEF97BD80936E001092D402CB
:104A50001092D5021092D6021092D70287988F98A2
:104A60008FE891E00197F1F700C000008FB1881F37
:104A70008827881F8093530180915301882309F46C
:104A800061C010926C0188E080936D010E94710EEC
:104A900081110E9462299091530181E0982790939F
:104AA0003103A82FA91BA093D902909153018093A1
:104AB0003203909153018093D80280915301811168
:104AC00006C086E980935D0184E980935C012091B2
:104AD0005D01E22FE295EF70F0E061A12F7081E0BF
:104AE00090E0AC0101C0440F2A95EAF7342F3095CD
:104AF000362331A322A1242B22A320915C01E22F93
:104B0000E295EF70F0E031A12F7001C0880F2A9577
:104B1000EAF7982F9095932391A392A1892B82A3D2
:104B20008FE891E00197F1F700C000001091320387
:104B300063E373E04DE551E08CE5E82E81E0F82E6B
:104B4000FB012CC088E080936C019ECFDA012D918F
:104B5000AD01822F82958F7090E0DC0190968C9150
:104B600090E02F7002C0959587952A95E2F78170A5
:104B7000D7019D917D01292F22952F7030E0D90119
:104B800090962C9130E09F7002C0359527959A95AC
:104B9000E2F790E020FD92E0892B81938E2F861B17
:104BA0008117A0F280915301811127C086E0E2E7CE
:104BB000F1E0DE011A9601900D928A95E1F7FE016F
:104BC0003A96ADE4B1E0CE0140969F0141914D93FC
:104BD000E817F907D9F789E0E8E7F1E0DE01119677
:104BE00001900D928A95E1F7FE013196A4E4B1E0BF
:104BF00081918D93E217F307D9F78091530196E0E5
:104C0000811190E09093F30286E0891B8093F20279
:104C10000DE411E053E5E52E51E0F52EF801819108
:104C20008F018F3F11F00E94A006E016F106B1F748
:104C300004E411E0D8018D918D018F3F11F00E94A5
:104C4000A006B1E00D341B07A9F788E1E9EFF2E017
:104C5000DF01282F1D922A95E9F7EAEDF2E0DF0146
:104C60001D928A95E9F790E080E00E94E12B873E53
:104C70009E4F11F00E94721182E090E00E94D32BAF
:104C80008093110384E090E00E94E12B9093F7025F
:104C90008093F6020E944617EFEFF6E721E0E1501D
:104CA000F0402040E1F700C000000E9446178091CC
:104CB000F90280FF08C06FEF7FEF90E080E00E9474
:104CC000052C0E94FF0A83E090E00E94D32B90E025
:104CD0000E946F0A269A2E98259A2D9882E8809332
:104CE000800089E1809381008FEF9FEF9093870090
:104CF000809386000E94D6110E94D6118091F802FE
:104D000081113BC090E080E00E94E12B873E9E4FE6
:104D100021F00E9472110E945A1188E090E00E94D6
:104D2000DB2B6093C2037093C3038093C4039093FF
:104D3000C50380913E03836080933E036E7F71F4D0
:104D40000E945A1188E090E00E94DB2B6093C2031E
:104D50007093C3038093C4039093C5030E94F90525
:104D60000E94F2058091C20380FF04C060E0869536
:104D70000E94F51081E08093F8020E94710E81116B
:104D800002C00E94652984E591E09093CC03809352
:104D9000CB0330E4232E44E0642E712C8091E10398
:104DA00000E112E1853009F49BC00E94461792E1B0
:104DB000A92E93E0B92E29EF822E22E0922E4AE20C
:104DC00053E0D401F501219131918D919D914E17C0
:104DD0005F0709F493C028173907A9F30E94710EE1
:104DE000382E512CF401019111914F01D501CD9034
:104DF000DD905D01C016D10669F1C026D126412C97
:104E0000EE24E394F12CC6018E219F21892BC1F061
:104E10003320B1F049825A8221E0C8018E219F21BE
:104E2000892B09F420E02B830E94DC048160782F19
:104E30009D838C8349815A816B818D810E942822B8
:104E40004394EE0CFF1CB9E04B12DDCFF501329715
:104E5000118300835394ECE05E12C4CF0E94D0040F
:104E600053C08091E103843049F180E00E944805FD
:104E700080E00E949E0A1092CF0388E190E00FB676
:104E8000F894A895809360000FBE2092600083B7CD
:104E9000817F846083BF83B7816083BF7894889566
:104EA00083B78E7F83BF0FB6F894A895809160007A
:104EB000886180936000109260000FBE8091E003D3
:104EC000882371F00E944617E9EFF2E081919191F9
:104ED000892B09F089C1A1E1B3E0AE17BF07B1F793
:104EE0008091E103853009F4BCCF0E9454120E94E6
:104EF000D6110E94940E0E949E0A57CF2817390798
:104F000009F06CCF0E9441230E94710E80913D03F5
:104F1000882309F464C080913C03E091C203E695C4
:104F2000E81BE0933803823009F073C0F0E0E756E5
:104F3000FD4FE4910E2F10E0AAE2EA2EAEE0FA2E29
:104F400080913903882361F0109239030E94C20EC8
:104F5000909337038093360310923B0310923A03E9
:104F60000E94C20EE0913603F09137039C012E1B84
:104F70003F0B2F3F3F4798F520912C032223B1F0A0
:104F800010922C0320912A0330912B03821B930B48
:104F90008F3F9F4758F4205D3A4830932B0320936E
:104FA0002A0380913E03886080933E03C0903A03B9
:104FB000D0903B03E00FF11FF0933703E0933603EB
:104FC00086E393E0F701099580913A0390913B03C2
:104FD000892B29F4CD2819F081E080932C03E12C52
:104FE000D12C80913203E81608F47FC0D1100E94C2
:104FF00004090E94940E182F80913503181709F4A4
:10500000CDCE109335030E94D004812F0E949E0ABA
:10501000C5CE863059F4F0E0EA56FD4FE4910E2FEC
:1050200010E0FAE1EF2EFEE0FF2E8ACF893061F426
:10503000E695F0E0ED56FD4FE4910E2F10E0E3E72A
:10504000EE2EEDE0FE2E7CCF8F3061F4E695F0E0A1
:10505000E057FD4FE4910E2F10E07DEEE72E7CE04F
:10506000F72E6ECF853159F4F0E0E357FD4FE49110
:105070000E2F10E068E6E62E6CE0F62E61CF08E217
:1050800010E036EEE32E3BE0F32E883109F458CFE2
:10509000833249F4EBE8F2E00591149159ECE52EE6
:1050A0005DE0F52E4DCF04EF11E029EAE22E2BE072
:1050B000F22E843209F444CF00ED17E09CEBE92E88
:1050C00094E0F92E853209F03BCF8E2F63E00E94E9
:1050D0000B2BE92FF0E0E857FD4FE4910E2F10E085
:1050E00046E0E42E4FE0F42E2BCF0E2D10E0F80119
:1050F000E35AFE4F8081E82FE295EF70F0E0E0A1E7
:10510000F0E08F7002C0F595E7958A95E2F7E170BF
:10511000D801A45ABE4F2C91A22FA295AF70B0E037
:1051200090968C9190E02F7002C0959587952A9566
:10513000E2F780FD51C080E08E2BD801AD5CBC4F02
:10514000EC919E2F9370891709F444C0EE0FEE0F77
:10515000E82BEC93F0903103FE0CEF70F0E0E45498
:10516000FE4F015D1C4F8081D8019C91890F8C936B
:10517000C12C843084F0EF2DF0E0E35DFC4F8081A2
:105180008F5F80830E94710EC82E882339F160E002
:105190008F2D0E94AD22F80180818D3F84F4EF2D88
:1051A000F0E0E35DFC4F8081815080830E94710EAE
:1051B000C82E8823B1F061E08F2D0E94AD22D80166
:1051C0008C91082E000C990BB3010E942B2BF80137
:1051D0008083DC28E39405CF82E0AECFCC24C39457
:1051E000DACFCC24C394EBCF09BD19BD09B400FEBE
:1051F000FDCF8091D8008F7D8093D8008091E00012
:1052000082608093E0008091E00081FDFCCF0E94ED
:10521000541266CE8EE1489B02C08150E1F7489B54
:10522000FECF0895589880E28A95F1F7589A08952C
:10523000FC013BE03A95F1F798E020E080E031E0B6
:1052400040E14A95F1F7880F489B02C0816023270F
:1052500042E04A95F1F7000040E14A95F1F791509C
:1052600079F790E19A95F1F799B132E03A95F1F733
:10527000000040E14A95F1F7917092272081920F4A
:1052800090830895A1E0B0E0E8E4F9E20C94D02A1C
:1052900019828C017C01E60EF11C0E151F0541F4EC
:1052A00081E09981911180E02196E6E00C94EC2A4E
:1052B0000E940A29CE0101960E941829F8018193C3
:1052C0008F01EBCF509A589A08955098589AE89ABF
:1052D000E9E6F0E080818C7F808308956150770B50
:1052E00091E001C0990F6A95EAF720E031E0911151
:1052F00008C0222391F0589A80E28A95F1F75898D5
:105300000895492F482339F0589A232740E24A95B7
:10531000F1F79695ECCF5898F9CF5898EDCFFF92CA
:105320000F931F93CF93DF93EC018C01060F111D98
:10533000C017D10729F4CDB7DEB7E5E00C94ED2A0C
:10534000F9900E94122968E08F2D0E946E29F0CFFB
:105350001F920F920FB60F9211240F931F932F934A
:105360003F934F935F936F937F938F939F93AF93ED
:10537000BF93EF93FF93CF93DF930F92CDB7DEB739
:1053800019820E940A29CE0101960E941829082F2D
:10539000069506950695282F22952570902F9570D5
:1053A000290F922F937026952695920F9827977024
:1053B0008981982B09F05CC0093008F059C080E160
:1053C0008A95F1F7589A509A82E08A95F1F700C0D1
:1053D000589888E0089F80011124D801AC5FBE4F27
:1053E0001696ED91FC9117973097A9F06091BA014C
:1053F0007091BB0114962D913C911597260F371F84
:1054000011968D919C911297680F791F13964C916C
:1054100013978C910995F801EC5FFE4F6381662329
:1054200051F02091BA013091BB0184819581820FA6
:10543000931F0E948F290E94122980E18A95F1F71B
:1054400058985098589A80E18A95F1F7F801EC5FE6
:10545000FE4F6081662351F02091BA013091BB016B
:1054600081819281820F931F0E9442290E940A2902
:105470000F90DF91CF91FF91EF91BF91AF919F91ED
:105480008F917F916F915F914F913F912F911F91DC
:105490000F910F900FBE0F901F9018950F931F93B1
:1054A000CF93DF93EC0109970CF04CC0F894509A1D
:1054B000589885E08A95F1F700009C2F9695957095
:1054C0008C2F8570980F892F83709695969523E081
:1054D000CC0FDD1F2A95E1F7980F8E01092B0E9452
:1054E000122900C068E0802F0E946E2980E18A9511
:1054F000F1F75098589A489B1EC087E090E0489971
:105500001CC0FE01EC5FFE4F63816623F9F0209121
:10551000BA013091BB0184819581820F931F0E9453
:105520004229811113C0509A589A7894DF91CF91F3
:105530001F910F91089500C0DECF019729F4509A72
:10554000589A789480E0F2CF00C0D9CF0E940A29FF
:1055500080E28A95F1F75898509A80E18A95F1F7A0
:10556000CC5FDE4F6881662351F02091BA01309103
:10557000BB0189819A81820F931F0E948F290E940B
:105580001229789481E0D2CF2F923F924F925F926E
:105590006F927F928F929F92AF92BF92CF92DF9243
:1055A000EF92FF920F931F93CF93DF93CDB7DEB7A8
:1055B000CA1BDB0B0FB6F894DEBF0FBECDBF09943C
:1055C0002A88398848885F846E847D848C849B8493
:1055D000AA84B984C884DF80EE80FD800C811B81A1
:1055E000AA81B981CE0FD11D0FB6F894DEBF0FBED0
:1055F000CDBFED010895DB018F939F930E943A2C5C
:10560000BF91AF91A29F800D911DA39F900DB29F5E
:10561000900D11240895991B79E004C0991F9617E5
:1056200008F0961B881F7A95C9F780950895AA1BE4
:10563000BB1B51E107C0AA1FBB1FA617B70710F07D
:10564000A61BB70B881F991F5A95A9F780959095AF
:10565000BC01CD01089597FB072E16F4009407D0E6
:1056600077FD09D00E94172B07FC05D03EF49095DA
:1056700081959F4F0895709561957F4F0895EE0F26
:10568000FF1F0590F491E02D09940E946F2C3323A5
:1056900012F48A1B9B0B0C944F2B0E946F2CB7FFAC
:1056A0000895821B930B08958F929F92AF92BF92A1
:1056B000CF92DF92EF92FF92CF93DF93EC0168815C
:1056C00079818A819B81611571058105910521F49C
:1056D00064E279ED8BE597E02DE133EF41E050E0B6
:1056E0000E941B2C49015A019B01AC01A7EAB1E4BD
:1056F0000E943A2C6B017C01ACEEB4EFA501940141
:105700000E94482CDC01CB018C0D9D1DAE1DBF1DE0
:10571000B7FF03C00197A109B04888839983AA8382
:10572000BB839F77DF91CF91FF90EF90DF90CF9079
:10573000BF90AF909F908F9008950E94542B089532
:1057400080E091E00E94542B0895B0E0A0E08093A7
:10575000000190930101A0930201B0930301089509
:10576000FC014150504030F001900616D1F73197BE
:10577000CF010895882799270895FB01DC0104C013
:105780008D910190801921F441505040C8F7881B39
:10579000990B0895FB01DC0102C001900D9241506C
:1057A0005040D8F70895F999FECF92BD81BDF89A7F
:1057B000992780B50895A6E1B0E044E050E00C944C
:1057C0000D2CA8E1B0E042E050E00C940D2C262F07
:1057D000F999FECF92BD81BDF89A019700B40216E7
:1057E00039F01FBA20BD0FB6F894FA9AF99A0FBE95
:1057F00008950396272F0E94E82B0E94E72B252F60
:105800000E94E82B242F0C94E82B0196272F0E944E
:10581000E82B0C94E72BDC01CB01FC01F999FECFBE
:1058200006C0F2BDE1BDF89A319600B40D92415028
:105830005040B8F70895052E97FB1EF400940E947F
:10584000322C57FD07D00E944D2C07FC03D04EF49C
:105850000C94322C50954095309521953F4F4F4FE9
:105860005F4F089590958095709561957F4F8F4F0C
:105870009F4F08950E946F2CA59F900DB49F900D8F
:10588000A49F800D911D11240895B7FF0C943A2C0C
:105890000E943A2C821B930B0895A1E21A2EAA1B98
:1058A000BB1BFD010DC0AA1FBB1FEE1FFF1FA217D0
:1058B000B307E407F50720F0A21BB30BE40BF50BCD
:1058C000661F771F881F991F1A9469F76095709556
:1058D000809590959B01AC01BD01CF010895A29FD9
:1058E000B001B39FC001A39F700D811D1124911DB4
:1058F000B29F700D811D1124911D0895F894FFCF62
:1059000049137113091571130915A413C51309154A
:10591000C214CF14821CF71C8A1C541C581C8E1CE9
:105920005C1C921C9E1C681CF01C6C1CA21C701C35
:10593000A61CCE1C741CAA1CD51C7A1CB01CB81C3E
:10594000601C961C641C9A1C7E1CB41CC41CDE1CAF
:10595000EE1C4E1C861CFE1C1B1E1B1E531E531EC3
:10596000FA1E7F1E7F1E7F1E161F9E1FAD1FAD1FBE
:10597000111D341D3B1D401D451D4A1D4F1D541D4D
:10598000591D5E1D631D681D6B1D701D731D761DE9
:10599000791D7C1D7F1D821D851D351C391C2A1C0F
:0859A000311C3D1C411C451C9B
:1059A8000100000000000001000000000000000CE1
:1059B80001000000000000010D00000000000001CF
:1059C8000E000000040F000000000000011300009A
:1059D800000000000114000000000000081500008D
:1059E80000000000F4F1F037339293959431326758
:1059F80034973001BE04EB0ABD04E40AF6F5011938
:105A08001A1B1C1D1E1F202122010201001000105C
:105A18001001333236349730F1F0F4F5F695679388
:105A280037818283E200E900EA00B500B600B700DA
:105A3800CD008301CC008A01920194012102230246
:105A480024022502260227022A02B300B4006F00AE
:105A580070009F01CB019F02A002A60200FF010077
:105A6800010000FFFF0000010001FF000001020229
:105A780002020606060909090909090F0F0F0F0F87
:105A88000F1515151819191919191919191919238B
:085A9800242525252525250004
:00000001FF
